:040000000200513277
:01000B0032C2
:0100130032BA
:01001B0032B2
:0100230032AA
:01002B0032A2
:01003300329A
:01003B003292
:01004300328A
:03004B000206604A
:0300AA0002004E03
:03004E0002058325
:2000AD0075B1677E007F011EBEFF011FEE4F70F7E5B130E7FB75B2882275985075892075A0
:2000CD008DDCD28E438E10438780D29943A4012275FFDE75FFAD1200AD1200C643E1044335
:2000ED00E34022AF8210990280FB8F992210980280FB8599821200F085998222C01E8581A0
:20010D001EE51E24FBF886820886830886F0120DFCE5828583F045F070028062E51E24FBDE
:20012D00FF8F25E51E24FBF8862208862308862490000175F00012077190000175F0001252
:20014D000DFCAE827F00C3EF9E501FEF2401F582E43400F583E0FDBD0A0DEF2401F582E4E0
:20016D003400F583740DF00F80DC750E01750F00751000750D008E117582C612041FD01E5C
:20018D002275080074C0250840177513087514007515407512007516017582C6120495801D
:2001AD00E375090C750E09750F00751040750D007511017582C612041F2275130B751400B7
:2001CD007515407512017516027582C612049574FFB50B05758200805F7F008F068EF00526
:2001ED00F07C017D008006EC2CFCED33FDD5F0F7AA0B7B00EA5204EB5205EC4D600774319E
:20020D002FF58280330E8E07BE080040D0E50C30E0057582398021E50C30E10575822A8080
:20022D0017E50C30E205758230800DE50C30E30575822380037582FF22AF82E4FDFEEF70B1
:20024D001DC006C0057434C0E0740EC0E07480C0E0120109158115811581D005D006C0069C
:20026D00C0057408C0E0E4C0E07408C0E0E4C0E07408C0E0E4C0E07408C0E0E4C0E07408B0
:20028D00C0E0E4C0E0744AC0E0740EC0E07480C0E0120109E58124F3F58190A12075F0074D
:2002AD00E41203BAD005D0067F00C007C006C0051201C7AC82D005D006D0078C03BCFF022C
:2002CD008003BB2A17902710E4F5F0C007C006C0051203BAD005D006D00780CEBB232AC049
:2002ED0006C0051201C7AC82D005D006BC2313902710E4F5F0C006C0051203BAD005D006EC
:20030D0080DD8D828E830203B9EBFA3395E0FCC007C006C005C004C003C002C002C0047477
:20032D005AC0E0740EC0E07480C0E0120109E58124FBF581D002D003D004D005D0068D43F5
:20034D008E4490000AC004C003C0021206E4A882A983D002D003D004D007EA28F8EC39F911
:20036D00E824D0FDE934FFFEC007C006C005C0031201C7AC82D003D005D006D007ECB50367
:20038D001B902710E4F5F0C007C006C005C0031203BAD003D005D006D00780CC0FC3EF64FB
:2003AD0080948550030202B78D828E8322AC82AD83AEF0FF780079007A007B00C3E89CE936
:2003CD009DEA9EEB9F500F08B8000909B900050ABA00E90B80E62220C7FDD2C530C3FDC205
:2003ED00C5C2C3228582C210C30280FB228582C2D2C410C30280FB2230C3FD85C282C2C33A
:20040D002230C3FDAFC2C2C3D2C410C30280FB8F8222AF82C0071203E4D00774FE5FF5829E
:20042D001203F1850D821203F17F00AD117E001DBDFF011E8F037C00C3EB9DEC64808EF035
:20044D0063F08095F0501FEF250EFCE4350FFDAE108C828D838EF0120E14F582C0071203A4
:20046D00F1D0070F80C5AE117F001EBEFF011FEE250EFEEF350FFFAD108E828F838DF0125B
:20048D000E14F5821203FA22AF82C0071203E4D0078F0674FE5EF582C0071203F1851282FB
:2004AD001203FA1203E4D00774014FF5821203F17F00AD167E001DBDFF011E8F037C00C386
:2004CD00EB9DEC64808EF063F08095F0502ED2C2EF2513FCE43514FDAE15C007C006C0056D
:2004ED00C004120405AB82D004D005D006D0078C828D838EF0EB1206C90F80B6C2C2AE1698
:20050D007F001EBEFF011FEE2513FEEF3514FFAD15C007C006C00512040EAC82D005D006E8
:20052D00D0078E828F838DF0EC1206C922751723750E17750F00751040750D207511017519
:20054D00823012041F751700750E17750F00751040750D2175110175823012041F75170026
:20056D00750E17750F00751040750D2275110175823012041F221200DD12064612064A1221
:20058D00065312065A75820D1200F0745DC0E0740EC0E07480C0E01208201581158115815A
:2005AD00E4F518F519C3E5189401E519940040F512018E7466C0E0740EC0E07480C0E01230
:2005CD0001091581158115811201C7AF82BF2A028012E4F518F519C3E5189401E5199400D4
:2005ED0050E680F312018E758200120246AE82AF83C007C00612018ED006D007C007C00689
:20060D00C006C007749AC0E0740EC0E07480C0E0120109E58124FBF581D006D007C006C092
:20062D000774ADC0E0740EC0E07480C0E0120820E58124FBF58180902275E1052243A8025E
:20064D0043E608D2AF2275D98143D8402275CF93D2C622C0E0C0D010DF02802E051CE4B553
:20066D001C02051D051AE4B51A02051B75E90075F970C37432951AE4951B5011E4F51AF508
:20068D001B0518B518070519800353D8C0D0D0D0E0321201C7AF82BFFFF8E4F51AF51BC3AC
:1C06AD00E51A9401E51B940040F522E4F51AF51BC3E51A9432E51B940040F5223C
:200E34000A54797065206469676974733B20656E6420772F230020202020202563256325FE
:200E54006325632563002563000A53746172740D0A0043616C6962726174696F6E3A0A4860
:200E7400656C6C6F20776F726C64210A3031325F3334355F3637383A0A61626320646566F4
:200E9400206768696A00596F75722076616C75652069733A0A202564000A0D596F757220C1
:0C0EB4006B6579207761733A202564009B
:06008000E478FFF6D8FD54
:20005E007900E94400601B7A00900ECB785175AF00E493F2A308B8000205AFD9F4DAF27501
:02007E00AFFFD2
:1B06C90020F71130F6138883A88220F509F6A8837583002280FEF280F5F02230
:1D06E400E5828543F0A4C582C0F08544F0A4D0F025F0C5838543F0A42583F5832227
:20070100C01E85811EC082058105810581E51E24FBF8A91E0909E6F70809E6F70809E6F756
:20072100A81E080886820886830886F0120E14FAA3120E14FBA3120E14FF74012AFCE43BBB
:20074100FD8F06A81E080886820886830886F0EC1206C9A3ED1206C9A3EE1206C98A828B52
:20076100838FF0A81E08E61206C9851E81D01E2285822685832785F02875352675360075C4
:20078100374085223885233985243A85253B9007011208F2AE82AF83AB26AC27AD288B82CD
:2007A1008C838DF0E41206C98E828F8322C01E85811EE51E24F8FF8F3BE51E24FBFF8F35D4
:2007C100753600753740E51E24F8F8863808863908863A9007011208F2AE82AF83E51E24F0
:1B07E100FBF886030886040886058B828C838DF0E41206C98E828F83D01E22CC
:200086007800E84400600A790175AF00E4F309D8FC7850E84400600C7901900001E4F0A318
:0400A600D8FCD9FAAF
:2007FC00C01E85811E1200F0D01E2285823885833985F03AE4F535F536F537851F3B9007BF
:20081C00FC0208F2C01E85811EE51E24FBFF8F3BE4F535F536F537E51E24FBF8863808860C
:0D083C003908863A9007FC1208F2D01E22FF
:20084900AF82C02BC02CC02D1208568007C029C02A8F82221581158115810533E4B53302D5
:20086900053422AF8274302FFF24C6500A74072FFF3000034307208F82020849E582FFC4F9
:20088900540FF582C00712086CD007740F5FF58202086C858243852E44852F4585304685C8
:2008A9003147AA32754820EA2AFAE547235401FF8A064EFAE5442544F544E54533F545E52E
:2008C9004633F546E54733F547C3EA95434008EAC39543FA434401D548CD85442E85452F12
:2008E9008546308547318A322285822985832A85352B85362C85372DE4F533F534AD38AE3A
:2009090039AF3A8D828E838FF0120E14FC74012DF538E43EF5398F3AECFF7003020DF5BFD4
:2009290025028003020DEDC201C202C203C204C205C206C207C208753C00753D007CFFAA4C
:2009490038AB39AE3A8A828B838EF0120E14FFA3AA82AB838A388B398E3ABF25078F821266
:20096900084980998F3F74D0253F5026E53F24C64020BCFF12E53D75F00AA4FD2F24D0F593
:200989003D70C2D20280BEEC75F00AA42F24D0FC80B3BF2E07BCFFAD7C0080A98F05BD61C9
:2009A90000400CED248540075307DFD2008002C200BF2002806DBF2B028063BF2D02805952
:2009C900BF42028063BF43028068BF4403020B97BF4603020BADBF480302094EBF49030260
:2009E9000B97BF4A0302094EBF4C028040BF4F03020B9EBF5003020B2CBF5302805CBF5410
:200A09000302094EBF5503020BA3BF5803020BA8BF5A0302094E020BB1D20102094ED203A7
:200A290002094ED20402094ED20602094ED20702094E30060CE53B14FE8E3B8E01870780E8
:200A490011E53B24FEFE8E3B8E018705098706198D078F82120849020BBAE53B24FDFE8E0D
:200A69003B8E01870309870509870619198B2E8D2F8E308B828D838EF0C004120DFCAD82E0
:200A8900AE83D004BCFF028D0420012AC3ED953D5024E53DC39DF53DAE3D8E031EEB60140C
:200AA900758220C006C005C004120849D004D005D00680E68E3D8C06852E82852F83853001
:200AC900F0120E14FCFF602F8E041EC374808CF063F08095F050208F82C006C005120849B5
:200AE900D005D006AA2EAB2FAC300ABA00010B8A2E8B2F8C3080C1200103020BBAC3ED9545
:200B09003D4003020BBAE53DC39DF53DAE3D8E041EEC7003020BB8758220C006120849D002
:200B29000680EBE53B24FDFC8C3B8C01870209870309870419198A2E8B2F8C30AC30BC8082
:200B49000040047F438014BC600040047F50800BBC400040047F4980027F588F82C00712ED
:200B6900084975823A120849758230120849758278120849D007BF4902800BBF5002800628
:200B8900852F82120885852E821208858023D205753C0A801C753C088017753C0A801275C0
:200BA9003C10800DD20880098F8212084980028E3D30085CE53B24FCFE8E3B8E0187020973
:200BC90087030987040987061919198A2E8B2F8C308E31752EC0752F0E753080852E40856E
:200BE9002F4185304274012540FAE43541FCAE428A2E8C2F8E308540828541838542F012E1
:200C09000E14FEFF70030209068F8212084980CCE53C7003020906753E4E30062DE53B142B
:200C2900FC8C3B8C01E7FA3395E0FBFCFE8A2E8B2F8C308E31200566AA2E7B007C007E0018
:200C49008A2E8B2F8C308E318054300721E53B24FCFE8E3B8E01870209870309870409879C
:200C6900061919198A2E8B2F8C308E318030E53B24FEFE8E3B8E01870409870619EE3395F5
:200C8900E0FBFA8C2E8E2F8B308A31200510AA2EAB2F7C007E008A2E8B2F8C308E31300586
:200CA90022E53130E71BC3E4952EFAE4952FFBE49530FCE49531FE8A2E8B2F8C308E318000
:200CC90002C205D209A93E7E00753200853C82C006C00112089CD001D00620090BE532C425
:200CE900FCE7FB4CF7198002A7320EB209E52E452F4530453170D2893E8E05E53D70037575
:200D09003D01200224200121ED04FEAC3DC3EE9C5015758220C006C005C004120849D004DD
:200D2900D005D0061C80E68C3D30050E75822DC005120849D005153D8023ED602030030EAD
:200D490075822BC005120849D005153D800F30040C758220C005120849D005153D200122A1
:200D6900AE3D8E041EC3ED9C502B3002047C3080027C208C82C006C005120849D005D00661
:200D890080E0C3ED953D5008E53DC39DF53D8007753D0080028E3DA93E8D068E051EED605E
:200DA90026B20920090A09E7C4540FFD8D3280078705740F5DF532853282C006C00112084F
:200DC9006CD001D00680D4200103020906AE3D8E051EED7003020906758220C00612084921
:130DE900D00680EB8F821208490209068533828534832299
:0B0EC0003C4E4F20464C4F41543E007A
:180DFC00AA82AB83120E146003A380F8C3E5829AF582E5839BF58322FB
:0D00510075814E120E30E582600302004EF4
:1C0E140020F71430F6148883A88220F507E6A88375830022E280F7E49322E022ED
:040E300075820022A5
:00000001FF
