:040000000200513277
:01000B0032C2
:0100130032BA
:01001B0032B2
:0100230032AA
:01002B0032A2
:01003300329A
:01003B003292
:01004300328A
:03004B000201733C
:0C00AA00E4F508F509F50AF50B02004E1C
:03004E000201129A
:2000B60075B1677E007F011EBEFF011FEE4F70F7E5B130E7FB75B288227598507589207597
:2000D6008DDCD28E438E10438780D29943A4012275FFDE75FFAD1200B61200CF43E104431A
:2000F600E34022AF8210990280FB8F992210980280FB8599821200F9859982221200E67505
:2001160082201200F912015C1201601201647441C0E07408C0E07480C0E012022D158115D2
:2001360081158175087D75090A75EA8275FAF5C3E50A941DE50B940040F512010385820C86
:2001560012019280F52275A50F2275E1272275D98175DAC275D84043E608D2AF22C0E0C0C2
:20017600D010DF02800E75E90075F970050AE4B50A02050B53D8C0D0D0D0E0327472B50C06
:2001960021C374BB95087408950940087508BB7509088031E50824F6F508E50934FFF509A5
:2001B6008023746CB50C1EC374F39508740C950950087508F375090C800B740A2508F5085D
:2001D600E43509F509C008C0097468C0E07408C0E07480C0E012022DE58124FBF581AF0839
:1301F60074FFC39FF5EA74FFC3950874FF9509FF8FFA22B4
:20084100456D62656464656420436F6E74726F6C205374656572696E672043616C696272BE
:140861006174696F6E0A000D0A5354525F50573A2025750054
:06008000E478FFF6D8FD54
:20005E007900E94400601B7A00900880780175AF00E493F2A308B8000205AFD9F4DAF275A2
:02007E00AFFFD2
:200086007800E84400600A790175AF00E4F309D8FC7800E84400600C7900900001E4F0A369
:0400A600D8FCD9FAAF
:20020900C00E85810E1200F9D00E2285823185833285F033E4F52EF52FF530850D34900226
:20022900090202FFC00E85810EE50E24FBFF8F34E4F52EF52FF530E50E24FBF88631088654
:0D024900320886339002091202FFD00E2207
:20025600AF82C024C025C0261202638007C022C0238F8222158115811581052CE4B52C02F8
:20027600052D22AF8274302FFF24C6500A74072FFF3000034307208F82020256E582FFC4F2
:20029600540FF582C007120279D007740F5FF58202027985820F8527108528118529128598
:2002B6002A13AA2B751420EA2AFAE513235401FF8A064EFAE5102510F510E51133F511E5D5
:2002D6001233F512E51333F513C3EA950F4008EAC3950FFA431001D514CD85102785112821
:2002F60085122985132A8A2B22858222858323852E24852F25853026E4F52CF52DAD31AEFD
:2003160032AF338D828E838FF0120821FC74012DF531E43EF5328F33ECFF7003020802BFE1
:20033600250280030207FAC201C202C203C204C205C206C207C2087535007536007CFFAA4C
:2003560031AB32AE338A828B838EF0120821FFA3AA82AB838A318B328E33BF25078F821282
:20037600025680998F3874D025385026E53824C64020BCFF12E53675F00AA4FD2F24D0F5A1
:200396003670C2D20280BEEC75F00AA42F24D0FC80B3BF2E07BCFFAD7C0080A98F05BD61C9
:2003B60000400CED248540075307DFD2008002C200BF2002806DBF2B028063BF2D0280594B
:2003D600BF42028063BF43028068BF44030205A4BF46030205BABF480302035BBF49030244
:2003F60005A4BF4A0302035BBF4C028040BF4F030205ABBF5003020539BF5302805CBF54ED
:200416000302035BBF55030205B0BF58030205B5BF5A0302035B0205BED20102035BD20376
:2004360002035BD20402035BD20602035BD20702035B30060CE53414FE8E348E01870780D3
:2004560011E53424FEFE8E348E018705098706198D078F821202560205C7E53424FDFE8E0D
:20047600348E01870309870509870619198B278D288E298B828D838EF0C004120809AD82ED
:20049600AE83D004BCFF028D0420012AC3ED95365024E536C39DF536AE368E031EEB601421
:2004B600758220C006C005C004120256D004D005D00680E68E368C0685278285288385290F
:2004D600F0120821FCFF602F8E041EC374808CF063F08095F050208F82C006C005120256A0
:2004F600D005D006AA27AB28AC290ABA00010B8A278B288C2980C12001030205C7C3ED9561
:200516003640030205C7E536C39DF536AE368E041EEC70030205C5758220C006120256D002
:200536000680EBE53424FDFC8C348C01870209870309870419198A278B288C29AC29BC80A5
:200556000040047F438014BC600040047F50800BBC400040047F4980027F588F82C00712E6
:20057600025675823A120256758230120256758278120256D007BF4902800BBF5002800605
:200596008528821202928527821202928023D20575350A801C753508801775350A801275CE
:2005B6003510800DD20880098F8212025680028E3630085CE53424FCFE8E348E0187020981
:2005D60087030987040987061919198A278B288C298E2A75277575280875298085273985F7
:2005F600283A85293B74012539FAE4353AFCAE3B8A278C288E29853982853A83853BF01235
:200616000821FEFF70030203138F8212025680CCE535700302031375371A30062DE5341451
:20063600FC8C348C01E7FA3395E0FBFCFE8A278B288C298E2A200566AA277B007C007E003B
:200656008A278B288C298E2A8054300721E53424FCFE8E348E0187020987030987040987BF
:20067600061919198A278B288C298E2A8030E53424FEFE8E348E01870409870619EE339518
:20069600E0FBFA8C278E288B298A2A200510AA27AB287C007E008A278B288C298E2A3005C5
:2006B60022E52A30E71BC3E49527FAE49528FBE49529FCE4952AFE8A278B288C298E2A8038
:2006D60002C205D209A9377E00752B00853582C006C0011202A9D001D00620090BE52BC433
:2006F600FCE7FB4CF7198002A72B0EB209E52745284529452A70D289378E05E5367003759F
:200716003601200224200121ED04FEAC36C3EE9C5015758220C006C005C004120256D004DD
:20073600D005D0061C80E68C3630050E75822DC005120256D00515368023ED602030030EAD
:2007560075822BC005120256D0051536800F30040C758220C005120256D00515362001229A
:20077600AE368E041EC3ED9C502B3002047C3080027C208C82C006C005120256D005D0065A
:2007960080E0C3ED95365008E536C39DF536800775360080028E36A9378D068E051EED6081
:2007B60026B20920090A09E7C4540FFD8D2B80078705740F5DF52B852B82C006C001120263
:2007D60079D001D00680D4200103020313AE368E051EED7003020313758220C006120256FF
:1307F600D00680EB8F82120256020313852C82852D832292
:0B0875003C4E4F20464C4F41543E00CB
:18080900AA82AB831208216003A380F8C3E5829AF582E5839BF58322EC
:0D00510075813B12083DE582600302004E00
:1C08210020F71430F6148883A88220F507E6A88375830022E280F7E49322E022E6
:04083D00758200229E
:00000001FF
