:040000000200513277
:01000B0032C2
:0100130032BA
:01001B0032B2
:0100230032AA
:01002B0032A2
:01003300329A
:01003B003292
:01004300328A
:03004B00020AADF9
:1600AA00E4F534F535F536F537F540F541F542F543F54402004E4F
:03004E0002059612
:2000C00075B1677E007F011EBEFF011FEE4F70F7E5B130E7FB75B28822759850758920758D
:2000E0008DDCD28E438E10438780D29943A4012275FFDE75FFAD1200C01200D943E10443FC
:20010000E34022AF8210990280FB8F992210980280FB85998212010385998222C00F858187
:200120000FE50F24FBF886820886830886F0121698E5828583F045F070028062E50F24FB53
:20014000FF8F0BE50F24FBF8860808860908860A90000175F000120E9E90000175F0001282
:200160001698AE827F00C3EF9E501FEF2401F582E43400F583E0FDBD0A0DEF2401F582E428
:200180003400F583740DF00F80DC752801752900752A007527008E2B7582C6120432D00FC3
:2001A0002275220074C025224017752D22752E00752F40752C007530017582C61204A88027
:2001C000E375230C752823752900752A40752700752B017582C612043222752D25752E008D
:2001E000752F40752C017530027582C61204A874FFB52505758200805F7F008F068EF00598
:20020000F07C017D008006EC2CFCED33FDD5F0F7AA257B00EA5204EB5205EC4D6007743170
:200220002FF58280330E8E07BE080040D0E52630E0057582398021E52630E10575822A8039
:2002400017E52630E205758230800DE52630E30575822380037582FF22AF82E4FDFEEF706A
:200260001DC006C0057458C0E07418C0E07480C0E012011C158115811581D005D006C00648
:20028000C0057408C0E0E4C0E07408C0E0E4C0E07408C0E0E4C0E07408C0E0E4C0E074089D
:2002A000C0E0E4C0E0746EC0E07418C0E07480C0E012011CE58124F3F58190A12075F007F9
:2002C000E41203CDD005D0067F00C007C006C0051201DAAC82D005D006D0078C03BCFF02F3
:2002E0008003BB2A17902710E4F5F0C007C006C0051203CDD005D006D00780CEBB232AC023
:2003000006C0051201DAAC82D005D006BC2313902710E4F5F0C006C0051203CDD005D006B2
:2003200080DD8D828E830203CCEBFA3395E0FCC007C006C005C004C003C002C002C0047451
:200340007EC0E07418C0E07480C0E012011CE58124FBF581D002D003D004D005D0068D11D3
:200360008E1290000AC004C003C002120E11A882A983D002D003D004D007EA28F8EC39F9FB
:20038000E824D0FDE934FFFEC007C006C005C0031201DAAC82D003D005D006D007ECB50341
:2003A0001B902710E4F5F0C007C006C005C0031203CDD003D005D006D00780CC0FC3EF64D5
:2003C00080948550030202CA8D828E8322AC82AD83AEF0FF780079007A007B00C3E89CE910
:2003E0009DEA9EEB9F500F08B8000909B900050ABA00E90B80E62220C7FDD2C530C3FDC2F2
:20040000C5C2C3228582C210C30280FB228582C2D2C410C30280FB2230C3FD85C282C2C326
:200420002230C3FDAFC2C2C3D2C410C30280FB8F8222AF82C0071203F7D00774FE5FF58278
:200440001204048527821204047F00AD2B7E001DBDFF011E8F037C00C3EB9DEC64808EF0C6
:2004600063F08095F0501FEF2528FCE43529FDAE2A8C828D838EF0121773F582C0071204DA
:2004800004D0070F80C5AE2B7F001EBEFF011FEE2528FEEF3529FFAD2A8E828F838DF012CD
:2004A0001773F58212040D22AF82C0071203F7D0078F0674FE5EF582C007120404852C822B
:2004C00012040D1203F7D00774014FF5821204047F00AD307E001DBDFF011E8F037C00C31E
:2004E000EB9DEC64808EF063F08095F0502ED2C2EF252DFCE4352EFDAE2FC007C006C0050C
:20050000C004120418AB82D004D005D006D0078C828D838EF0EB120DC60F80B6C2C2AE3053
:200520007F001EBEFF011FEE252DFEEF352EFFAD2FC007C006C005120421AC82D005D00674
:20054000D0078E828F838DF0EC120DC622753123752831752900752A40752720752B01754C
:200560008230120432753100752831752900752A40752721752B017582301204327531001D
:20058000752831752900752A40752722752B01758230120432221200F075822012010312DF
:2005A0000A72120A94120A9E120A98120C127481C0E07418C0E07480C0E01210A2158115AD
:2005C00081158175340975350B7532F67533F475EAF675FAF47542CD75430A7545327546BF
:2005E000F575EC3275FCF5E4F536F537C3E5369432E537940040F574A4C0E07418C0E074F1
:2006000080C0E01210A2158115811581120ACC85823A85833BE4F536F53720B740120B66F3
:20062000E536540360028003120BB2E53620E003120B797511327512008536828537831213
:200640000F29E5828583F045F07003120C1CC374149540E4954140C2120C4A80BD74C2C0AA
:20066000E07418C0E07480C0E01210A2158115811581753601753700754400809D22C374CD
:200680000A9540E4954140067542AF75430DC3E540945AE541940040067542EC754307C355
:2006A00074329540E495414010E5409428E541940040067542CD75430AC3E5409428E541C4
:2006C00094005070C3740A9540E495415066854082854183121018AC82AD83AEF0FFC004B7
:2006E000C005C006C00790CCCD75F0C474C1120C92AC82AD83AEF0FFE58124FCF581E4C0D6
:20070000E07450C0E0746AC0E07445C0E08C828D838EF0EF120F76AC82AD83AEF0FFE5813B
:2007200024FCF5818C828D838EF0EF121024858242858343C374329540E49541506BC3E563
:2007400040945AE54194005060854082854183121018AC82AD83AEF0FFC004C005C006C02D
:200760000790666675F0937441120C92AC82AD83AEF0FFE58124FCF581C004C005C006C0B3
:200780000790640075F0667445120C87AC82AD83AEF0FFE58124FCF5818C828D838EF0EFB3
:2007A00012102485824285834374FFC39542F54574FF9543F5468545EC8546FC22754751E6
:2007C000752D47752E00752F40752C027530027582E01204A8AF477E00AC487D00EC4EF5B6
:2007E00082ED4FF58322752D49752E00752F40752C027530027582C01204A8AF497E00AC4E
:200800004A7D00EC4EF582ED4FF5832285824B85834CC3E54B9408E54C9407400302092912
:20082000854B82854C83121018AA82AB83ACF0FD7466C0E0C0E07486C0E07440C0E08A82D1
:200840008B838CF0ED1216B0AA82AB83ACF0FDE58124FCF581C002C003C004C0059090002C
:2008600075F0307445120C87AA82AB83ACF0FDE58124FCF581853482853583C005C004C0D5
:2008800003C002121018A882A983AEF0FFD002D003D004D005C002C003C004C00588828977
:2008A000838EF0EF120D96AF82E58124FCF581EF7068854B82854C83121018AC82AD83AEB3
:2008C000F0FF7466C0E0C0E07486C0E07440C0E08C828D838EF0EF1216B0AC82AD83AEF0C2
:2008E000FFE58124FCF581C004C005C006C00790900075F0307445120C87AC82AD83AEF0D8
:20090000FFE58124FCF5818C828D838EF0EF121024858234858335020A5EE53424F6F534CD
:20092000E53534FFF535020A5EE54B454C600A7410B54B0E740EB54C0975340975350B0224
:200940000A5E7410C3954BF582740E954CF583121018AC82AD83AEF0FF7433C0E0C0E07426
:20096000F3C0E0C4C0E08C828D838EF0EF1216B0AC82AD83AEF0FFE58124FCF581E4C0E0A2
:200980007490C0E07430C0E07445C0E08C828D838EF0EF120F76AC82AD83AEF0FFE581246F
:2009A000FCF581853482853583C007C006C005C004121018A882A983AAF0FBD004D005D099
:2009C00006D007C004C005C006C007888289838AF0EB120DE1AF82E58124FCF581EF7073AA
:2009E0007410C3954BF582740E954CF583121018AC82AD83AEF0FF7433C0E0C0E074F3C03B
:200A0000E0C4C0E08C828D838EF0EF1216B0AC82AD83AEF0FFE58124FCF581E4C0E07490B0
:200A2000C0E07430C0E07445C0E08C828D838EF0EF120F76AC82AD83AEF0FFE58124FCF5E1
:200A4000818C828D838EF0EF121024858234858335800B740A2534F534E43535F53574FF56
:200A6000C39534F53274FF9535F5338532EA8533FA22AFA474CD5FF5A475A50FAFBD74EF65
:200A80005FF5BD43A510759010AFA7747F5FF5A775B0802275E1272275CF93D2C62275D9AF
:200AA0008175DAC275D84043E608D2AF22C0E0C0D010DF02800E75E90075F9700536E4B584
:200AC0003602053753D8C0D0D0D0E032E4F536F537C3E5369401E537940040F51201A1747A
:200AE000DBC0E07418C0E07480C0E012011C158115811581120B561201A17582001202593F
:200B0000AE82AF83C007C0061201A1D006D007C007C006C006C007740FC0E07419C0E074A7
:200B200080C0E012011CE58124FBF581D006D007C007C006C006C007740FC0E07419C0E054
:200B40007480C0E01210A2E58124FBF581D006D0078E828F83221201DAAF82BF2A028005C3
:200B6000120B6680F12274012536FEE43537FFC3E5369EE5379F40F7221207E685823885EF
:200B8000833974102538FE740E3539FFEEC3953AF582EF953BF58375111075120E12178FBA
:200BA000AE82AF838E3E8F3F853E82853F8312080C22754D511207BD85824085834175284F
:200BC0004D752900752A40752700752B017582E0120432C040C041742EC0E07419C0E0740B
:200BE00080C0E01210A2E58124FBF58112067E228582ACAFAA74DF5FF5AA43AA10E5AA3045
:200C0000E5FBAC9C7D007E007F008C828D838EF0EF2275D10375AA8043AB01221201A17563
:200C20008204120BF0AC82AD83AEF0FFC004C005C006C0077442C0E07419C0E07480C0E0F9
:200C400012011CE58124F9F581227534297535097532D67533F675EAD675FAF6C3E5409494
:200C60002DE5419400501FE53654036002800F74FFB540E874FFB541E3120BB280DE75403D
:070C8000FF7541FF80D62241
:201858000A54797065206469676974733B20656E6420772F230020202020202563256325D0
:201878006325632563002563000D0A456D62656464656420436F6E74726F6C2043617220DD
:2018980043616C6962726174696F6E000D0A456D62656464656420436F6E74726F6C204343
:2018B800617220726561647921000D0A2054686520636F6E74726F6C206973207061757399
:2018D80065640043616C6962726174696F6E3A0A48656C6C6F20776F726C64210A30313281
:2018F8005F3334355F3637383A0A61626320646566206768696A000D0A54686520646573C2
:201918006972656420646972656374696F6E2069733A202564000D0A205468652072616E92
:1C19380067652069733A202575000D0A426174746572792069733A20256C64009A
:0B0C8700A8811818C6B2E7C6020F765D
:200C9200120D35BC0003021050EF60FA30D502B2D1E583B4FF03021066E582B4FF03021035
:200CB20066258340072482400B0210502483145003021066F582EA8DF0A4A8F0EA8EF0A4CE
:200CD20028F8E435F0F9EB8DF0A428E935F0F9E433CA8FF0A429F9EA35F0FAEBF88EF0A471
:200CF20029F9EA35F0FAE433FBEC8DF0A429F9EA35F0FAE43BFBE88FF0A42AFAEB35F0FB19
:200D1200E433CCFD8EF0A42AFAEB35F0FBE43CFCED8FF0A42BFBEC35F0FC20E703120D63A5
:030D320002102F7D
:200D3500AA82AB83A2F73392D1F5826002D2F7ACF0E58124F9F8E6FD08E6FE0886F008E621
:0E0D5500A2F73392D5F5836002D2F7AFF022F9
:06008000E478FFF6D8FD54
:200D63007804EC7011E58224F8500AF582E4C9CACBFCD8EF22EC7820058220E713D582018F
:130D830022C3E933F9EA33FAEB33FBEC33FCD8EA1582229D
:20005E007900E94400601B7A0090195F785175AF00E493F2A308B8000205AFD9F4DAF27562
:02007E00AFFFD2
:200D9600FFA8811818120FEDD2D133E6400730E70B7582012220E70675820022C2D1120FBE
:100DB600CFE97003F5822230D101B3E433F5822204
:1B0DC60020F71130F6138883A88220F509F6A8837583002280FEF280F5F0222C
:200DE100FFA8811818120FEDD2D133E6400730E70B7582002220E70675820122C2D1120F73
:100E0100CFE97003F5822220D101B3E433F58222C8
:1D0E1100E5828511F0A4C582C0F08512F0A4D0F025F0C5838511F0A42583F5832288
:200E2E00C00F85810FC082058105810581E50F24FBF8A90F0909E6F70809E6F70809E6F75E
:200E4E00A80F080886820886830886F0121773FAA3121773FBA3121773FF74012AFCE43B5E
:200E6E00FD8F06A80F080886820886830886F0EC120DC6A3ED120DC6A3EE120DC68A828B21
:200E8E00838FF0A80F08E6120DC6850F81D00F2285820C85830D85F00E755B0C755C0075D5
:200EAE005D4085085E85095F850A60850B61900E2E121174AE82AF83AB0CAC0DAD0E8B82D2
:200ECE008C838DF0E4120DC68E828F8322C00F85810FE50F24F8FF8F61E50F24FBFF8F5B8C
:200EEE00755C00755D40E50F24F8F8865E08865F088660900E2E121174AE82AF83E50F245D
:1B0F0E00FBF886030886040886058B828C838DF0E4120DC68E828F83D00F22A2
:200F2900E511451260467A01E51125E0F511E512334012F512E5829511E583951240030A4D
:200F490080E6C3E51213F512E51113F511C3E5829511F5F0E58395124005F58385F082C304
:0D0F6900E51213F512E51113F511DAE1227E
:200086007800E84400600A790175AF00E4F309D8FC7850E84400600C7901900001E4F0A318
:0400A600D8FCD9FAAF
:200F7600120D357900E583B58202800D500312167EE583C395821217D8E5D0C465D020E175
:200F960017EA2DFAEB3EFBEC3FFC500974011217D8EC4480FC02102FC3EA9DFAEB9EFBEC58
:190FB6009FFC500FC3E499F9E49AFAE49BFBE49CFCB2D1120D6302102F3B
:200FCF007901AA82E68F82B5821318E6B5F00E18E6B5830918E68A82B58202790022B48019
:200FEF000FE5F0700AE5837006E58270027F00EFB6801518B6001018B6000B18B600060881
:09100F00080876002208080822F6
:0C101800E4AC83AB82FAF9748E0217CEB0
:0B1024007F8E121821F58385F08222D8
:20102F00B98003EA13B34010EA2401FAE43BFBE43CFC50047C800582BC000EBB000BBA0005
:20104F0008E4F5F0F583F58222A2D1E582138CF092F78B838A8222E4F583F58275F080F4C5
:0F106F00A2D11322E4F583F58275F0C0747F22BD
:20107E00C00F85810F120103D00F2285825E85835F85F060E4F55BF55CF55D851061901049
:20109E007E021174C00F85810FE50F24FBFF8F61E4F55BF55CF55DE50F24FBF8865E0886F3
:0D10BE005F08866090107E121174D00F2222
:2010CB00AF82C051C052C0531210D88007C04FC0508F82221581158115810559E4B55902B7
:2010EB00055A22AF8274302FFF24C6500A74072FFF3000034307208F820210CBE582FFC4BF
:20110B00540FF582C0071210EED007740F5FF5820210EE858211855412855513855614857F
:20112B005715AA58751620EA2AFAE515235401FF8A064EFAE5122512F512E51333F513E5E7
:20114B001433F514E51533F515C3EA95114008EAC39511FA431201D516CD8512548513552F
:20116B008514568515578A582285824F858350855B51855C52855D53E4F559F55AAD5EAEFF
:20118B005FAF608D828E838FF0121773FC74012DF55EE43EF55F8F60ECFF7003021677BF99
:2011AB002502800302166FC201C202C203C204C205C206C207C2087562007563007CFFAAEB
:2011CB005EAB5FAE608A828B838EF0121773FFA3AA82AB838A5E8B5F8E60BF25078F821290
:2011EB0010CB80998F6574D025655026E56524C64020BCFF12E56375F00AA4FD2F24D0F5E7
:20120B006370C2D20280BEEC75F00AA42F24D0FC80B3BF2E07BCFFAD7C0080A98F05BD6118
:20122B0000400CED248540075307DFD2008002C200BF2002806DBF2B028063BF2D028059C7
:20124B00BF42028063BF43028068BF4403021419BF460302142FBF48030211D0BF49030235
:20126B001419BF4A030211D0BF4C028040BF4F03021420BF50030213AEBF5302805CBF545B
:20128B00030211D0BF5503021425BF580302142ABF5A030211D0021433D2010211D0D203DE
:2012AB000211D0D2040211D0D2060211D0D2070211D030060CE56114FE8E618E01870780EA
:2012CB0011E56124FEFE8E618E018705098706198D078F821210CB02143CE56124FDFE8EFC
:2012EB00618E01870309870509870619198B548D558E568B828D838EF0C004121698AD8219
:20130B00AE83D004BCFF028D0420012AC3ED95635024E563C39DF563AE638E031EEB6014E9
:20132B00758220C006C005C0041210CBD004D005D00680E68E638C06855482855583855654
:20134B00F0121773FCFF602F8E041EC374808CF063F08095F050208F82C006C0051210CB38
:20136B00D005D006AA54AB55AC560ABA00010B8A548B558C5680C120010302143CC3ED954B
:20138B0063400302143CE563C39DF563AE638E041EEC700302143A758220C0061210CBD040
:2013AB000680EBE56124FDFC8C618C01870209870309870419198A548B558C56AC56BC8014
:2013CB000040047F438014BC600040047F50800BBC400040047F4980027F588F82C0071263
:2013EB0010CB75823A1210CB7582301210CB7582781210CBD007BF4902800BBF5002800676
:20140B008555821211078554821211078023D20575620A801C756208801775620A80127561
:20142B006210800DD20880098F821210CB80028E6330085CE56124FCFE8E618E01870209C6
:20144B0087030987040987061919198A548B558C568E5775545475551975568085546685EE
:20146B00556785566874012566FAE43567FCAE688A548C558E568566828567838568F01268
:20148B001773FEFF70030211888F821210CB80CCE562700302118875641C30062DE561145B
:2014AB00FC8C618C01E7FA3395E0FBFCFE8A548B558C568E57200566AA547B007C007E00AA
:2014CB008A548B558C568E578054300721E56124FCFE8E618E01870209870309870409872E
:2014EB00061919198A548B558C568E578030E56124FEFE8E618E01870409870619EE339587
:20150B00E0FBFA8C548E558B568A57200510AA54AB557C007E008A548B558C568E5730057F
:20152B0022E55730E71BC3E49554FAE49555FBE49556FCE49557FE8A548B558C568E57801F
:20154B0002C205D209A9647E00755800856282C006C00112111ED001D00620090BE558C477
:20156B00FCE7FB4CF7198002A7580EB209E55445554556455770D289648E05E563700375E0
:20158B006301200224200121ED04FEAC63C3EE9C5015758220C006C005C0041210CBD0047D
:2015AB00D005D0061C80E68C6330050E75822DC0051210CBD00515638023ED602030030E4D
:2015CB0075822BC0051210CBD0051563800F30040C758220C0051210CBD0051563200122B7
:2015EB00AE638E041EC3ED9C502B3002047C3080027C208C82C006C0051210CBD005D00627
:20160B0080E0C3ED95635008E563C39DF563800775630080028E63A9648D068E051EED60EF
:20162B0026B20920090A09E7C4540FFD8D5880078705740F5DF558855882C006C00112104A
:20164B00EED001D00680D4200103021188AE638E051EED7003021188758220C0061210CB50
:13166B00D00680EB8F821210CB021188855982855A8322AE
:0B1954003C4E4F20464C4F41543E00DB
:1A167E00E582C583F582A2D133A2D592D11392D5ECCFFCEBCEFBEACDFA22F4
:18169800AA82AB831217736003A380F8C3E5829AF582E5839BF58322EE
:2016B000120D3530D502B2D1BF0009BC0003021073021066BC0003021050E583B4FF0BE58C
:2016D00082B4FF03021073021050E582B4FF03021066C395835007247F400B021050248020
:2016F000145003021066F582C3ED9AEE9BEF9C40111582C3EA33F9EB33FAEC33FBE433FC20
:201710008005E4CCCBCAF9C08275F019C3E99DEA9EEB9FEC9400D5F002802D400EE99DF91A
:20173000EA9EFAEB9FFBEC9400FCC3B3E833F8E58233F582E58333F583C3E933F9EA33FA7A
:20175000EB33FBEC33FC80C4B3E4F938FAE43582FBE43583FCD082500405827C80120D6366
:031770000210471D
:0D00510075816812181BE582600302004EE5
:1C17730020F71430F6148883A88220F507E6A88375830022E280F7E49322E02285
:20178F00C2D5E58330E70DD2D5E4C39582F582E49583F583E51230E70BE4C39511F511E477
:1617AF009512F512120F2930D50BE4C39582F582E49583F5832251
:1317C500FCABF0AA83A982749EC2D1F582120D6302102F43
:2017D8006040F82582500274FFF582E824F8501ECCCBCAF9E4CC24F85014CBCAF9E4CB2419
:2017F800F8500BCAF9E4CA24F8500379002224086010F8C3EC13FCEB13FBEA13FAE913F9CC
:03181800D8F122E2
:04181B0075820022B0
:20181F007F9E12184630D103021050C3EF9582500974FFF5F0F583F5822279001217D88928
:07183F00828A838BF0EC228A
:12184600AA82AB83A2F73392D1F5826002D2F7ACF022A7
:00000001FF
