:040000000200513277
:01000B0032C2
:0100130032BA
:01001B0032B2
:0100230032AA
:01002B0032A2
:01003300329A
:01003B003292
:01004300328A
:03004B00020AA9FD
:1C00AA00E4F535F536F537F538753F23F540F541F542F543F544754A2302004E8C
:03004E0002059C0C
:2000C60075B1677E007F011EBEFF011FEE4F70F7E5B130E7FB75B288227598507589207587
:2000E6008DDCD28E438E10438780D29943A4012275FFDE75FFAD1200C61200DF43E10443EA
:20010600E34022AF8210990280FB8F992210980280FB85998212010985998222C00F85817B
:200126000FE50F24FBF886820886830886F0121642E5828583F045F070028062E50F24FBA3
:20014600FF8F0BE50F24FBF8860808860908860A90000175F000120E4890000175F00012D2
:200166001642AE827F00C3EF9E501FEF2401F582E43400F583E0FDBD0A0DEF2401F582E478
:200186003400F583740DF00F80DC752901752A00752B007528008E2C7582C6120438D00FB2
:2001A6002275230074C025234017752E23752F00753040752D007531017582C61204AE8013
:2001C600E375240C752924752A00752B40752800752C017582C612043822752E26752F0077
:2001E600753040752D017531027582C61204AE74FFB52605758200805F7F008F068EF00588
:20020600F07C017D008006EC2CFCED33FDD5F0F7AA267B00EA5204EB5205EC4D6007743169
:200226002FF58280330E8E07BE080040D0E52730E0057582398021E52730E10575822A8031
:2002460017E52730E205758230800DE52730E30575822380037582FF22AF82E4FDFEEF7062
:200266001DC006C0057463C0E07418C0E07480C0E0120122158115811581D005D006C00631
:20028600C0057408C0E0E4C0E07408C0E0E4C0E07408C0E0E4C0E07408C0E0E4C0E0740897
:2002A600C0E0E4C0E07479C0E07418C0E07480C0E0120122E58124F3F58190A12075F007E2
:2002C600E41203D3D005D0067F00C007C006C0051201E0AC82D005D006D0078C03BCFF02E1
:2002E6008003BB2A17902710E4F5F0C007C006C0051203D3D005D006D00780CEBB232AC017
:2003060006C0051201E0AC82D005D006BC2313902710E4F5F0C006C0051203D3D005D006A0
:2003260080DD8D828E830203D2EBFA3395E0FCC007C006C005C004C003C002C002C0047445
:2003460089C0E07418C0E07480C0E0120122E58124FBF581D002D003D004D005D0068D11BC
:200366008E1290000AC004C003C002120DBBA882A983D002D003D004D007EA28F8EC39F94C
:20038600E824D0FDE934FFFEC007C006C005C0031201E0AC82D003D005D006D007ECB50335
:2003A6001B902710E4F5F0C007C006C005C0031203D3D003D005D006D00780CC0FC3EF64C9
:2003C60080948550030202D08D828E8322AC82AD83AEF0FF780079007A007B00C3E89CE904
:2003E6009DEA9EEB9F500F08B8000909B900050ABA00E90B80E62220C7FDD2C530C3FDC2EC
:20040600C5C2C3228582C210C30280FB228582C2D2C410C30280FB2230C3FD85C282C2C320
:200426002230C3FDAFC2C2C3D2C410C30280FB8F8222AF82C0071203FDD00774FE5FF5826C
:2004460012040A85288212040A7F00AD2C7E001DBDFF011E8F037C00C3EB9DEC64808EF0B2
:2004660063F08095F0501FEF2529FCE4352AFDAE2B8C828D838EF012171DF582C007120427
:200486000AD0070F80C5AE2C7F001EBEFF011FEE2529FEEF352AFFAD2B8E828F838DF012BD
:2004A600171DF58212041322AF82C0071203FDD0078F0674FE5EF582C00712040A852D8268
:2004C6001204131203FDD00774014FF58212040A7F00AD317E001DBDFF011E8F037C00C305
:2004E600EB9DEC64808EF063F08095F0502ED2C2EF252EFCE4352FFDAE30C007C006C00503
:20050600C00412041EAB82D004D005D006D0078C828D838EF0EB120D700F80B6C2C2AE319C
:200526007F001EBEFF011FEE252EFEEF352FFFAD30C007C006C005120427AC82D005D00665
:20054600D0078E828F838DF0EC120D7022753223752932752A00752B40752820752C017595
:200566008230120438753200752932752A00752B40752821752C0175823012043875320003
:20058600752932752A00752B40752822752C01758230120438221200F675822012010912C1
:2005A6000A6B120A8D120A97120A91120C55748CC0E07418C0E07480C0E012104C158115CB
:2005C60081158175357D75360A7541CD75420A7533827534F575EA8275FAF575453275462A
:2005E600F575EC3275FCF5E4F537F538C3E5379432E538940040F51207B9E4F537F538C36D
:20060600E5379404E538940040F574AFC0E07418C0E07480C0E012104C1581158115811275
:200626000B2885823B85833C75820112025FAE82AF838E4AE4F537F53875440120B750E553
:20064600375403600280087401B54303120C0EE53720E003120BD5751132751200853782F2
:20066600853883120ED3E5828583F045F07003120C5FAE4A7F00C3EE953FEF954040087441
:2006860001B54303120CC3120BC275430180AA74CDC0E07418C0E07480C0E012104C158110
:2006A6001581158175370175380002063F22E53F45407005753F23F540C3740C953FE4958B
:2006C600405014C37414953FE49540401374BBB5350E7408B536097541CD75420A0207A5BC
:2006E600C37414953FE49540400302079FC3E53F9437E5409400400302079FC374AF95411F
:20070600740D95425003020797853F82854083120FC2AC82AD83AEF0FFC004C005C006C00D
:200726000790000075F05C7442120D0CAC82AD83AEF0FFE58124FCF581C004C005C006C074
:200746000790A00075F0E6744412165AAC82AD83AEF0FFE58124FCF581E4C0E07450C0E0F8
:200766007439C0E07445C0E08C828D838EF0EF120F20AC82AD83AEF0FFE58124FCF5818C7E
:20078600828D838EF0EF120FCE858241858342800E7541AF75420D80067541AF75420D74F9
:2007A600FFC39541F54574FF9542F5468545EC8546FC22752E47752F00753040752D0275B1
:2007C60031027582E01204AEAF477E00AC487D00EC4EF582ED4FF58322752E4B752F0075D2
:2007E6003040752D027531027582C01204AEAF4B7E00AC4C7D00EC4EF582ED4FF5832285C3
:20080600824D85834EC3E54D9408E54E94074003020922854D82854E83120FC2AA82AB83F7
:20082600ACF0FD7466C0E0C0E07486C0E07440C0E08A828B838CF0ED12165AAA82AB83AC06
:20084600F0FDE58124FCF581C002C003C004C00590D00075F0277445120D0CAA82AB83ACC5
:20086600F0FDE58124FCF581853582853683C005C004C003C002120FC2A882A983AEF0FF2B
:20088600D002D003D004D005C002C003C004C005888289838EF0EF120D40AF82E58124FC5D
:2008A600F581EF7068854D82854E83120FC2AC82AD83AEF0FF7466C0E0C0E07486C0E07445
:2008C60040C0E08C828D838EF0EF12165AAC82AD83AEF0FFE58124FCF581C004C005C006DF
:2008E600C00790D00075F0277445120D0CAC82AD83AEF0FFE58124FCF5818C828D838EF0C8
:20090600EF120FCE858235858336020A57E53524F6F535E53634FFF536020A57E54D454E17
:20092600600A7410B54D0E740EB54E0975357D75360A020A577410C3954DF582740E954EE1
:20094600F583120FC2AC82AD83AEF0FF7433C0E0C0E074F3C0E0C4C0E08C828D838EF0EF5E
:2009660012165AAC82AD83AEF0FFE58124FCF581E4C0E074D0C0E07427C0E07445C0E08C70
:20098600828D838EF0EF120F20AC82AD83AEF0FFE58124FCF581853582853683C007C00613
:2009A600C005C004120FC2A882A983AAF0FBD004D005D006D007C004C005C006C007888264
:2009C60089838AF0EB120D8BAF82E58124FCF581EF70737410C3954DF582740E954EF5837A
:2009E600120FC2AC82AD83AEF0FF7433C0E0C0E074F3C0E0C4C0E08C828D838EF0EF12160E
:200A06005AAC82AD83AEF0FFE58124FCF581E4C0E074D0C0E07427C0E07445C0E08C828DE8
:200A2600838EF0EF120F20AC82AD83AEF0FFE58124FCF5818C828D838EF0EF120FCE858207
:200A460035858336800B740A2535F535E43536F53674FFC39535F53374FF9536F5348533CF
:200A6600EA8534FA22AFA474CD5FF5A4AFBD74EF5FF5BD43A50F53A510759010AFA7747FE8
:200A86005FF5A775B0802275E1272275CF93D2C62275D98175DAC275DCC275D84043E608AD
:200AA600D2AF22C022C0E0C0F0C082C083C007C006C005C004C003C002C001C000C0D075B5
:200AC600D00010DF02803B75E90075F9700537E4B537020538E5446029C037C038C041C0AB
:200AE60042C035C036C03FC040C039C03A74E6C0E07418C0E07480C0E012104CE58124F32C
:200B0600F58153D8C0D0D0D000D001D002D003D004D005D006D007D083D082D0F0D0E0D04D
:200B26002232E4F537F538C3E5379401E538940040F51201A774F7C0E07418C0E07480C01F
:200B4600E0120122158115811581120BB21201A775820012025FAE82AF83C007C0061201C3
:200B6600A7D006D007C007C006C006C007742BC0E07419C0E07480C0E0120122E58124FB47
:200B8600F581D006D007C007C006C006C007742BC0E07419C0E07480C0E012104CE581241A
:200BA600FBF581D006D0078E828F83221201E0AF82BF2A028005120BC280F12274012537F6
:200BC600FEE43538FFC3E5379EE5389F40F7221207DF85823985833A74102539FE740E351E
:200BE6003AFFEEC3953BF582EF953CF58375111075120E121739AE82AF838E3D8F3E853D3D
:200C060082853E83120805221207B985823F858340754751752947752A00752B4075280057
:200C2600752C017582E01204381206B4228582ACAFAA74DF5FF5AA43AA10E5AA30E5FBAC54
:200C46009C7D007E007F008C828D838EF0EF2275D10375AA8043AB01221201A7E54124339B
:200C6600F511E54234F5F5129000C8120DBB7511C3751205120D17AE828E49758204120CB4
:200C860033AC82AD83AEF0FFAA497B00C004C005C006C007C002C0037425C0E0E4C0E0C09A
:200CA6003FC040C039C03A744AC0E07419C0E07480C0E0120122E58124F1F581227535BB30
:200CC6007536087533447534F775EA4475FAF7C3E53F941EE5409400502B120BC2E53754AA
:200CE6000360028003120C0E751132751200853782853883120ED3E5828583F045F070CF57
:060D0600120C5F80CA22FE
:201863000A54797065206469676974733B20656E6420772F230020202020202563256325C5
:201883006325632563002563000D0A456D62656464656420436F6E74726F6C2043617220D2
:2018A30043616C6962726174696F6E000D0A456D62656464656420436F6E74726F6C204338
:2018C300617220726561647921000D0A2054686520636F6E74726F6C20697320706175738E
:2018E3006564000D0A25642C25642C25642C25642C25640043616C6962726174696F6E3A06
:201903000A48656C6C6F20776F726C64210A3031325F3334355F3637383A0A6162632064D3
:201923006566206768696A000D0A546865206465736972656420646972656374696F6E20DE
:2019430069733A20256400646972656374696F6E3A2025750A72616E67653A2025750A20DB
:17196300707725633A2025750A626174746572793A20256C640A00AC
:0B0D0C00A8811818C6B2E7C6020F202D
:200D17007A10E4FBFCE58225E0F582E58333F583EB33FBEC33FCEB9511F5F0EC95124006DE
:090D3700FCABF0438201DADD227D
:06008000E478FFF6D8FD54
:20005E007900E94400601B7A00901985785175AF00E493F2A308B8000205AFD9F4DAF2753C
:02007E00AFFFD2
:200D4000FFA8811818120F97D2D133E6400730E70B7582012220E70675820022C2D1120F6A
:100D600079E97003F5822230D101B3E433F58222B0
:1B0D700020F71130F6138883A88220F509F6A8837583002280FEF280F5F02282
:200D8B00FFA8811818120F97D2D133E6400730E70B7582002220E70675820122C2D1120F1F
:100DAB0079E97003F5822220D101B3E433F5822275
:1D0DBB00E5828511F0A4C582C0F08512F0A4D0F025F0C5838511F0A42583F58322DF
:200DD800C00F85810FC082058105810581E50F24FBF8A90F0909E6F70809E6F70809E6F7B5
:200DF800A80F080886820886830886F012171DFAA312171DFBA312171DFF74012AFCE43BB7
:200E1800FD8F06A80F080886820886830886F0EC120D70A3ED120D70A3EE120D708A828B79
:200E3800838FF0A80F08E6120D70850F81D00F2285820C85830D85F00E755B0C755C007581
:200E58005D4085085E85095F850A60850B61900DD812111EAE82AF83AB0CAC0DAD0E8B82D5
:200E78008C838DF0E4120D708E828F8322C00F85810FE50F24F8FF8F61E50F24FBFF8F5B38
:200E9800755C00755D40E50F24F8F8865E08865F088660900DD812111EAE82AF83E50F2460
:1B0EB800FBF886030886040886058B828C838DF0E4120D708E828F83D00F224F
:200ED300E511451260467A01E51125E0F511E512334012F512E5829511E583951240030AA4
:200EF30080E6C3E51213F512E51113F511C3E5829511F5F0E58395124005F58385F082C35B
:0D0F1300E51213F512E51113F511DAE122D4
:200086007800E84400600A790175AF00E4F309D8FC7850E84400600C7901900001E4F0A318
:0400A600D8FCD9FAAF
:200F20001217827900E583B58202800D5003121628E583C395821217B0E5D0C465D020E1F2
:200F400017EA2DFAEB3EFBEC3FFC500974011217B0EC4480FC020FD9C3EA9DFAEB9EFBEC2D
:190F60009FFC500FC3E499F9E49AFAE49BFBE49CFCB2D11217F3020FD94E
:200F79007901AA82E68F82B5821318E6B5F00E18E6B5830918E68A82B58202790022B4806F
:200F99000FE5F0700AE5837006E58270027F00EFB6801518B6001018B6000B18B6000608D7
:090FB9000808760022080808224D
:0C0FC200E4AC83AB82FAF9748E0217785D
:0B0FCE007F8E12182CF58385F0822224
:200FD900B98003EA13B34010EA2401FAE43BFBE43CFC50047C800582BC000EBB000BBA005C
:200FF90008E4F5F0F583F58222A2D1E582138CF092F78B838A8222E4F583F58275F080F41C
:0F101900A2D11322E4F583F58275F0C0747F2213
:20102800C00F85810F120109D00F2285825E85835F85F060E4F55BF55CF55D851061901099
:201048002802111EC00F85810FE50F24FBFF8F61E4F55BF55CF55DE50F24FBF8865E0886F5
:0D1068005F08866090102812111ED00F2224
:20107500AF82C051C052C0531210828007C04FC0508F82221581158115810559E4B5590263
:20109500055A22AF8274302FFF24C6500A74072FFF3000034307208F82021075E582FFC46B
:2010B500540FF582C007121098D007740F5FF5820210988582118554128555138556148582
:2010D5005715AA58751620EA2AFAE515235401FF8A064EFAE5122512F512E51333F513E53E
:2010F5001433F514E51533F515C3EA95114008EAC39511FA431201D516CD85125485135586
:201115008514568515578A582285824F858350855B51855C52855D53E4F559F55AAD5EAE55
:201135005FAF608D828E838FF012171DFC74012DF55EE43EF55F8F60ECFF7003021621BF9B
:2011550025028003021619C201C202C203C204C205C206C207C2087562007563007CFFAA97
:201175005EAB5FAE608A828B838EF012171DFFA3AA82AB838A5E8B5F8E60BF25078F82123C
:20119500107580998F6574D025655026E56524C64020BCFF12E56375F00AA4FD2F24D0F593
:2011B5006370C2D20280BEEC75F00AA42F24D0FC80B3BF2E07BCFFAD7C0080A98F05BD616F
:2011D50000400CED248540075307DFD2008002C200BF2002806DBF2B028063BF2D0280591E
:2011F500BF42028063BF43028068BF44030213C3BF46030213D9BF480302117ABF49030290
:2012150013C3BF4A0302117ABF4C028040BF4F030213CABF5003021358BF5302805CBF540B
:201235000302117ABF55030213CFBF58030213D4BF5A0302117A0213DDD20102117AD2033B
:2012550002117AD20402117AD20602117AD20702117A30060CE56114FE8E618E0187078098
:2012750011E56124FEFE8E618E018705098706198D078F821210750213E6E56124FDFE8EFF
:20129500618E01870309870509870619198B548D558E568B828D838EF0C004121642AD82C5
:2012B500AE83D004BCFF028D0420012AC3ED95635024E563C39DF563AE638E031EEB601440
:2012D500758220C006C005C004121075D004D005D00680E68E638C06855482855583855601
:2012F500F012171DFCFF602F8E041EC374808CF063F08095F050208F82C006C0051210753B
:20131500D005D006AA54AB55AC560ABA00010B8A548B558C5680C12001030213E6C3ED95F8
:201335006340030213E6E563C39DF563AE638E041EEC70030213E4758220C006121075D09A
:201355000680EBE56124FDFC8C618C01870209870309870419198A548B558C56AC56BC806A
:201375000040047F438014BC600040047F50800BBC400040047F4980027F588F82C00712B9
:20139500107575823A121075758230121075758278121075D007BF4902800BBF5002800624
:2013B5008555821210B18554821210B18023D20575620A801C756208801775620A80127566
:2013D5006210800DD20880098F8212107580028E6330085CE56124FCFE8E618E0187020973
:2013F50087030987040987061919198A548B558C568E5775547A755519755680855466851F
:20141500556785566874012566FAE43567FCAE688A548C558E568566828567838568F012BE
:20143500171DFEFF70030211328F8212107580CCE562700302113275641C30062DE5611409
:20145500FC8C618C01E7FA3395E0FBFCFE8A548B558C568E57200566AA547B007C007E0000
:201475008A548B558C568E578054300721E56124FCFE8E618E018702098703098704098784
:20149500061919198A548B558C568E578030E56124FEFE8E618E01870409870619EE3395DD
:2014B500E0FBFA8C548E558B568A57200510AA54AB557C007E008A548B558C568E573005D6
:2014D50022E55730E71BC3E49554FAE49555FBE49556FCE49557FE8A548B558C568E578076
:2014F50002C205D209A9647E00755800856282C006C0011210C8D001D00620090BE558C425
:20151500FCE7FB4CF7198002A7580EB209E55445554556455770D289648E05E56370037536
:201535006301200224200121ED04FEAC63C3EE9C5015758220C006C005C004121075D00429
:20155500D005D0061C80E68C6330050E75822DC005121075D00515638023ED602030030EF9
:2015750075822BC005121075D0051563800F30040C758220C005121075D0051563200122B9
:20159500AE638E041EC3ED9C502B3002047C3080027C208C82C006C005121075D005D006D3
:2015B50080E0C3ED95635008E563C39DF563800775630080028E63A9648D068E051EED6046
:2015D50026B20920090A09E7C4540FFD8D5880078705740F5DF558855882C006C0011210A1
:2015F50098D001D00680D4200103021132AE638E051EED7003021132758220C006121075FF
:13161500D00680EB8F82121075021132855982855A8322B0
:0B197A003C4E4F20464C4F41543E00B5
:1A162800E582C583F582A2D133A2D592D11392D5ECCFFCEBCEFBEACDFA224A
:18164200AA82AB8312171D6003A380F8C3E5829AF582E5839BF583229A
:20165A0012178230D502B2D1BF0009BC000302101D021010BC0003020FFAE583B4FF0BE58E
:20167A0082B4FF0302101D020FFAE582B4FF03021010C395835007247F400B020FFA2480D0
:20169A00145003021010F582C3ED9AEE9BEF9C40111582C3EA33F9EB33FAEC33FBE433FCCC
:2016BA008005E4CCCBCAF9C08275F019C3E99DEA9EEB9FEC9400D5F002802D400EE99DF971
:2016DA00EA9EFAEB9FFBEC9400FCC3B3E833F8E58233F582E58333F583C3E933F9EA33FAD1
:2016FA00EB33FBEC33FC80C4B3E4F938FAE43582FBE43583FCD082500405827C801217F323
:03171A00020FF1CA
:0D005100758168121826E582600302004EDA
:1C171D0020F71430F6148883A88220F507E6A88375830022E280F7E49322E022DB
:20173900C2D5E58330E70DD2D5E4C39582F582E49583F583E51230E70BE4C39511F511E4CD
:161759009512F512120ED330D50BE4C39582F582E49583F58322FE
:13176F00FCABF0AA83A982749EC2D1F5821217F3020FD956
:20178200AA82AB83A2F73392D1F5826002D2F7ACF0E58124F9F8E6FD08E6FE0886F008E6CA
:0E17A200A2F73392D5F5836002D2F7AFF022A2
:2017B0006040F82582500274FFF582E824F8501ECCCBCAF9E4CC24F85014CBCAF9E4CB2441
:2017D000F8500BCAF9E4CA24F8500379002224086010F8C3EC13FCEB13FBEA13FAE913F9F4
:0317F000D8F1220B
:2017F3007804EC7011E58224F8500AF582E4C9CACBFCD8EF22EC7820058220E713D58201F5
:1318130022C3E933F9EA33FAEB33FBEC33FCD8EA15822202
:0418260075820022A5
:20182A007F9E12185130D103020FFAC3EF9582500974FFF5F0F583F5822279001217B08991
:07184A00828A838BF0EC227F
:12185100AA82AB83A2F73392D1F5826002D2F7ACF0229C
:00000001FF
