:040000000200513277
:01000B0032C2
:0100130032BA
:01001B0032B2
:0100230032AA
:01002B0032A2
:01003300329A
:01003B003292
:01004300328A
:03004B000206A406
:2000AA0075327375330A75346775350C7536577537087538CD75390A753AAF753B0D753CF0
:0D00CA00EC753D0775420075430002004EC5
:03004E000205ADFB
:2000D70075B1677E007F011EBEFF011FEE4F70F7E5B130E7FB75B288227598507589207576
:2000F7008DDCD28E438E10438780D29943A4012275FFDE75FFAD1200D71200F043E10443B7
:20011700E34022AF8210990280FB8F992210980280FB85998212011A85998222C00F858159
:200137000FE50F24FBF886820886830886F01211A8E5828583F045F070028062E50F24FB31
:20015700FF8F0BE50F24FBF8860808860908860A90000175F000120AA790000175F0001266
:2001770011A8AE827F00C3EF9E501FEF2401F582E43400F583E0FDBD0A0DEF2401F582E406
:200197003400F583740DF00F80DC752801752900752A007527008E2B7582C6120449D00F95
:2001B7002275220074C025224017752D22752E00752F40752C007530017582C61204BF80F9
:2001D700E375230C752823752900752A40752700752B017582C612044922752D25752E005F
:2001F700752F40752C017530027582C61204BF74FFB52505758200805F7F008F068EF0056A
:20021700F07C017D008006EC2CFCED33FDD5F0F7AA257B00EA5204EB5205EC4D6007743159
:200237002FF58280330E8E07BE080040D0E52630E0057582398021E52630E10575822A8022
:2002570017E52630E205758230800DE52630E30575822380037582FF22AF82E4FDFEEF7053
:200277001DC006C0057418C0E07412C0E07480C0E0120133158115811581D005D006C00660
:20029700C0057408C0E0E4C0E07408C0E0E4C0E07408C0E0E4C0E07408C0E0E4C0E0740886
:2002B700C0E0E4C0E0742EC0E07412C0E07480C0E0120133E58124F3F58190A12075F00711
:2002D700E41203E4D005D0067F00C007C006C0051201F1AC82D005D006D0078C03BCFF02AE
:2002F7008003BB2A17902710E4F5F0C007C006C0051203E4D005D006D00780CEBB232AC0F5
:2003170006C0051201F1AC82D005D006BC2313902710E4F5F0C006C0051203E4D005D0066D
:2003370080DD8D828E830203E3EBFA3395E0FCC007C006C005C004C003C002C002C0047423
:200357003EC0E07412C0E07480C0E0120133E58124FBF581D002D003D004D005D0068D11EB
:200377008E1290000AC004C003C002120A1AA882A983D002D003D004D007EA28F8EC39F9DF
:20039700E824D0FDE934FFFEC007C006C005C0031201F1AC82D003D005D006D007ECB50313
:2003B7001B902710E4F5F0C007C006C005C0031203E4D003D005D006D00780CC0FC3EF64A7
:2003D70080948550030202E18D828E8322AC82AD83AEF0FF780079007A007B00C3E89CE9E2
:2003F7009DEA9EEB9F500F08B8000909B900050ABA00E90B80E62220C7FDD2C530C3FDC2DB
:20041700C5C2C3228582C210C30280FB228582C2D2C410C30280FB2230C3FD85C282C2C30F
:200437002230C3FDAFC2C2C3D2C410C30280FB8F8222AF82C00712040ED00774FE5FF58249
:2004570012041B85278212041B7F00AD2B7E001DBDFF011E8F037C00C3EB9DEC64808EF081
:2004770063F08095F0501FEF2528FCE43529FDAE2A8C828D838EF01211C0F582C00712047C
:200497001BD0070F80C5AE2B7F001EBEFF011FEE2528FEEF3529FFAD2A8E828F838DF0129F
:2004B70011C0F58212042422AF82C00712040ED0078F0674FE5EF582C00712041B852C8287
:2004D70012042412040ED00774014FF58212041B7F00AD307E001DBDFF011E8F037C00C3C1
:2004F700EB9DEC64808EF063F08095F0502ED2C2EF252DFCE4352EFDAE2FC007C006C005F5
:20051700C00412042FAB82D004D005D006D0078C828D838EF0EB1209F20F80B6C2C2AE30FD
:200537007F001EBEFF011FEE252DFEEF352EFFAD2FC007C006C005120438AC82D005D00646
:20055700D0078E828F838DF0EC1209F222753123752831752900752A40752720752B01750D
:200577008230120449753100752831752900752A40752721752B01758230120449753100D8
:20059700752831752900752A40752722752B0175823012044922755056755124E4F553F5CC
:2005B7005412010775822012011A1209E412092512077A120776120564E4F546F54785387E
:2005D7003E85393F8532408533417441C0E07412C0E07480C0E0120BCC15811581158175AA
:2005F700520020B63085383E85393F85324085334174FFC3953EFE74FF953FFF8EEA8FFA56
:200617008EEB8FFBE55270061206EA755201E4F546F54780CD1207ED1208D5120970E551EB
:20063700FE3395E0FFEE254EFEEF354FFFE550FC3395E0FDEC254CFCED354DFDC040C04191
:20065700C03EC03FC006C007C004C005C046C0477447C0E07412C0E07480C0E0120BCCE580
:200677008124F3F58175420075110F751200854682854783120B32E5828583F045F06003A0
:200697000205F61209377543000205F622C0E0C0D010DF02800E0546E4B54602054775E998
:2006B7000075F97053D8C0D0D0D0E03274012546FEE43547FF8E048F05C3E5469CE5479D22
:2006D70040F3221201F1AF82BF2A0280051206C380F1221201B8745CC0E07412C0E0748046
:2006F700C0E0120133158115811581758200120270AE828E481201B87477C0E07412C0E03E
:200717007480C0E0120133158115811581758200120270AE828E4A1201B87493C0E07412AB
:20073700C0E07480C0E0120133158115811581758200120270AE828E491201B874AFC0E056
:200757007412C0E07480C0E0120133158115811581758200120270AE828E4B1201B82275DA
:20077700E1172275CF93D2C622AE82AF838E048F05C007C006C005C004120124AB82D004E1
:20079700D005D006D007BB63048C068D07BB691FA9557A00E92EFEEA3FFFC3E5569EE557A8
:2007B70064808FF063F08095F05004AE56AF57BB6420A9557A00EEC399FEEF9AFFC3EE953C
:2007D70058EF64808559F063F08095F05004AE58AF59BB759C22E4FFF55EF55FFBFCF54E9D
:2007F700F54FF54CF54DC3EF6480948C40030208A2C007C004C0031206C3752D5A752E00AE
:20081700752F40752C277530017582301204BFD003D004D007E55A30E06D752D5A752E009A
:20083700752F40752CA8753004758230C007C004C0031204BFD003D004D007AA5BE55B338B
:2008570095E08A067A00EEC4CAC4540F6ACA540FCA6ACA30E30244F0FEEA255EF55EEE35A0
:200877005FF55FAD5DE55D3395E08D067D00EEC4CDC4540F6DCD540FCD6DCD30E30244F017
:20089700FEED2BFBEE3CFC0F0207FD75110C7512008B828C831211DCAB82AC8375110C755E
:2008B7001200855E82855F83C004C0031211DC85824C85834DD003D0048B4E8C4F22AE48A2
:2008D7007F00854C11854D128E828F83120A1AAE82AF83E532C39EF540E5339FF541C3E5C0
:2008F700409536E54195375006853640853741C3E5349540E53595415006853440853541AB
:2009170074FFC39540F5EB74FF9541F5FB2275D98175DAC275DBC275D84043E608D2AF2227
:200937001201B8AE497F00AC4A7D00AA487B00C040C041C03EC03FC006C007C004C005C0AB
:2009570002C00374CAC0E07412C0E07480C0E0120133E58124F3F58122AE497F00854E116E
:20097700854F128E828F83120A1AAE82AF83EE2538F53EEF3539F53F854C82854D83120AED
:200997000D858211858312AE4A7F008E828F83120A1AAE82AF83EE253EF53EEF353FF53FB5
:2009B700854C82854D83120A0DAE82AF83EE254EFEEF354FFFEE2553F553EF3554F5547439
:1B09D700FFC3953EF5EA74FF953FF5FA2243A503AFA774BF5FF5A775B0402243
:201218000A54797065206469676974733B20656E6420772F23002020202020256325632516
:201238006325632563002563000D0A474F21000D0A25752C0925642C0925642C0925752CA5
:2012580009257500506C6561736520656E7465722061206B732076616C75653A0A200050CB
:201278006C6561736520656E7465722061206B64782076616C75653A0A2000506C65617390
:201298006520656E7465722061206B64792076616C75653A0A2000506C6561736520656EBC
:2012B8007465722061206B692076616C75653A0A20006B733A202575206B64783A20257588
:1912D8000D6B64793A2025750D4D70773A2025750D5370773A2025750044
:06008000E478FFF6D8FD54
:20005E007900E94400601B7A009012FC785175AF00E493F2A308B8000205AFD9F4DAF275CC
:02007E00AFFFD2
:1B09F20020F71130F6138883A88220F509F6A8837583002280FEF280F5F02204
:0D0A0D00E58330E7076382FF6383FFA322C8
:1D0A1A00E5828511F0A4C582C0F08512F0A4D0F025F0C5838511F0A42583F5832283
:200A3700C00F85810FC082058105810581E50F24FBF8A90F0909E6F70809E6F70809E6F759
:200A5700A80F080886820886830886F01211C0FAA31211C0FBA31211C0FF74012AFCE43B84
:200A7700FD8F06A80F080886820886830886F0EC1209F2A3ED1209F2A3EE1209F28A828BA4
:200A9700838FF0A80F08E61209F2850F81D00F2285820C85830D85F00E756C0C756D007586
:200AB7006E4085086F850970850A71850B72900A37120C9EAE82AF83AB0CAC0DAD0E8B824E
:200AD7008C838DF0E41209F28E828F8322C00F85810FE50F24F8FF8F72E50F24FBFF8F6C3D
:200AF700756D00756E40E50F24F8F8866F088670088671900A37120C9EAE82AF83E50F24D9
:1B0B1700FBF886030886040886058B828C838DF0E41209F28E828F83D00F2275
:200B3200E511451260467A01E51125E0F511E512334012F512E5829511E583951240030A48
:200B520080E6C3E51213F512E51113F511C3E5829511F5F0E58395124005F58385F082C3FF
:0D0B7200E51213F512E51113F511DAE12279
:200086007800E84400600A790175AF00E4F309D8FC7850E84400600C7901900001E4F0A318
:0400A600D8FCD9FAAF
:200B7F007A10E4FBFCE58225E0F582E58333F583EB33FBEC33FCEB9511F5F0EC9512400678
:090B9F00FCABF0438201DADD2217
:200BA800C00F85810F12011AD00F2285826F85837085F071E4F56CF56DF56E851072900B9B
:200BC800A8020C9EC00F85810FE50F24FBFF8F72E4F56CF56DF56EE50F24FBF8866F08862A
:0D0BE80070088671900BA8120C9ED00F2291
:200BF500AF82C062C063C064120C028007C060C0618F8222158115811581056AE4B56A02F5
:200C1500056B22AF8274302FFF24C6500A74072FFF3000034307208F82020BF5E582FFC463
:200C3500540FF582C007120C18D007740F5FF582020C1885821185651285661385671485DB
:200C55006815AA69751620EA2AFAE515235401FF8A064EFAE5122512F512E51333F513E5A0
:200C75001433F514E51533F515C3EA95114008EAC39511FA431201D516CD851265851366E8
:200C95008514678515688A6922858260858361856C62856D63856E64E4F56AF56BAD6FAEEC
:200CB50070AF718D828E838FF01211C0FC74012DF56FE43EF5708F71ECFF70030211A1BFB3
:200CD50025028003021199C201C202C203C204C205C206C207C2087573007574007CFFAA7F
:200CF5006FAB70AE718A828B838EF01211C0FFA3AA82AB838A6F8B708E71BF25078F8212BE
:200D15000BF580998F7674D025765026E57624C64020BCFF12E57475F00AA4FD2F24D0F558
:200D35007470C2D20280BEEC75F00AA42F24D0FC80B3BF2E07BCFFAD7C0080A98F05BD61E2
:200D550000400CED248540075307DFD2008002C200BF2002806DBF2B028063BF2D028059A2
:200D7500BF42028063BF43028068BF4403020F43BF4603020F59BF4803020CFABF490302A1
:200D95000F43BF4A03020CFABF4C028040BF4F03020F4ABF5003020ED8BF5302805CBF54A2
:200DB50003020CFABF5503020F4FBF5803020F54BF5A03020CFA020F5DD201020CFAD203DB
:200DD500020CFAD204020CFAD206020CFAD207020CFA30060CE57214FE8E728E018707800F
:200DF50011E57224FEFE8E728E018705098706198D078F82120BF5020F66E57224FDFE8E5A
:200E1500728E01870309870509870619198B658D668E678B828D838EF0C0041211A8AD82A4
:200E3500AE83D004BCFF028D0420012AC3ED95745024E574C39DF574AE748E031EEB601480
:200E5500758220C006C005C004120BF5D004D005D00680E68E748C068565828566838567C6
:200E7500F01211C0FCFF602F8E041EC374808CF063F08095F050208F82C006C005120BF5A7
:200E9500D005D006AA65AB66AC670ABA00010B8A658B668C6780C1200103020F66C3ED959B
:200EB500744003020F66E574C39DF574AE748E041EEC7003020F64758220C006120BF5D068
:200ED5000680EBE57224FDFC8C728C01870209870309870419198A658B668C67AC67BC8089
:200EF5000040047F438014BC600040047F50800BBC400040047F4980027F588F82C007123E
:200F15000BF575823A120BF5758230120BF5758278120BF5D007BF4902800BBF50028006BC
:200F3500856682120C31856582120C318023D20575730A801C757308801775730A8012759D
:200F55007310800DD20880098F82120BF580028E7430085CE57224FCFE8E728E0187020938
:200F750087030987040987061919198A658B668C678E687565F1756612756780856577859A
:200F9500667885677974012577FAE43578FCAE798A658C668E678577828578838579F01266
:200FB50011C0FEFF7003020CB28F82120BF580CCE5737003020CB275751C30062DE572144D
:200FD500FC8C728C01E7FA3395E0FBFCFE8A658B668C678E68200566AA657B007C007E001F
:200FF5008A658B668C678E688054300721E57224FCFE8E728E0187020987030987040987A3
:20101500061919198A658B668C678E688030E57224FEFE8E728E01870409870619EE3395FB
:20103500E0FBFA8C658E668B678A68200510AA65AB667C007E008A658B668C678E683005B0
:2010550022E56830E71BC3E49565FAE49566FBE49567FCE49568FE8A658B668C678E688061
:2010750002C205D209A9757E00756900857382C006C001120C48D001D00620090BE569C4E9
:20109500FCE7FB4CF7198002A7690EB209E56545664567456870D289758E05E57470037544
:2010B5007401200224200121ED04FEAC74C3EE9C5015758220C006C005C004120BF5D00411
:2010D500D005D0061C80E68C7430050E75822DC005120BF5D00515748023ED602030030EE1
:2010F50075822BC005120BF5D0051574800F30040C758220C005120BF5D005157420012226
:20111500AE748E041EC3ED9C502B3002047C3080027C208C82C006C005120BF5D005D006CB
:2011350080E0C3ED95745008E574C39DF574800775740080028E74A9758D068E051EED6064
:2011550026B20920090A09E7C4540FFD8D6980078705740F5DF569856982C006C001120CF6
:2011750018D001D00680D4200103020CB2AE748E051EED7003020CB2758220C006120BF581
:13119500D00680EB8F82120BF5020CB2856A82856B83221D
:0B12F1003C4E4F20464C4F41543E0045
:1811A800AA82AB831211C06003A380F8C3E5829AF582E5839BF583229C
:0D005100758179121214E582600302004EE1
:1C11C00020F71430F6148883A88220F507E6A88375830022E280F7E49322E0223E
:2011DC00C2D5E58330E70DD2D5E4C39582F582E49583F583E51230E70DB2D5E4C39511F59C
:1811FC0011E49512F512120B7F30D50BE4C39582F582E49583F58322C1
:0412140075820022BD
:00000001FF
