:040000000200513277
:01000B0032C2
:0100130032BA
:01001B0032B2
:0100230032AA
:01002B0032A2
:01003300329A
:01003B003292
:01004300328A
:03004B000205F6B5
:2000AA0075327D75330A7534BB75350875367175370C7538CD75390A753AAF753B0D753C78
:0D00CA00EC753D07753E00753F0002004ECD
:03004E000205ADFB
:2000D70075B1677E007F011EBEFF011FEE4F70F7E5B130E7FB75B288227598507589207576
:2000F7008DDCD28E438E10438780D29943A4012275FFDE75FFAD1200D71200F043E10443B7
:20011700E34022AF8210990280FB8F992210980280FB85998212011A85998222C00F858159
:200137000FE50F24FBF886820886830886F0120E18E5828583F045F070028062E50F24FBC4
:20015700FF8F0BE50F24FBF8860808860908860A90000175F0001207DA90000175F0001236
:200177000E18AE827F00C3EF9E501FEF2401F582E43400F583E0FDBD0A0DEF2401F582E499
:200197003400F583740DF00F80DC752801752900752A007527008E2B7582C6120449D00F95
:2001B7002275220074C025224017752D22752E00752F40752C007530017582C61204BF80F9
:2001D700E375230C752823752900752A40752700752B017582C612044922752D25752E005F
:2001F700752F40752C017530027582C61204BF74FFB52505758200805F7F008F068EF0056A
:20021700F07C017D008006EC2CFCED33FDD5F0F7AA257B00EA5204EB5205EC4D6007743159
:200237002FF58280330E8E07BE080040D0E52630E0057582398021E52630E10575822A8022
:2002570017E52630E205758230800DE52630E30575822380037582FF22AF82E4FDFEEF7053
:200277001DC006C0057450C0E0740EC0E07480C0E0120133158115811581D005D006C0062C
:20029700C0057408C0E0E4C0E07408C0E0E4C0E07408C0E0E4C0E07408C0E0E4C0E0740886
:2002B700C0E0E4C0E07466C0E0740EC0E07480C0E0120133E58124F3F58190A12075F007DD
:2002D700E41203E4D005D0067F00C007C006C0051201F1AC82D005D006D0078C03BCFF02AE
:2002F7008003BB2A17902710E4F5F0C007C006C0051203E4D005D006D00780CEBB232AC0F5
:2003170006C0051201F1AC82D005D006BC2313902710E4F5F0C006C0051203E4D005D0066D
:2003370080DD8D828E830203E3EBFA3395E0FCC007C006C005C004C003C002C002C0047423
:2003570076C0E0740EC0E07480C0E0120133E58124FBF581D002D003D004D005D0068D10B8
:200377008E1190000AC004C003C00212074DA882A983D002D003D004D007EA28F8EC39F9B0
:20039700E824D0FDE934FFFEC007C006C005C0031201F1AC82D003D005D006D007ECB50313
:2003B7001B902710E4F5F0C007C006C005C0031203E4D003D005D006D00780CC0FC3EF64A7
:2003D70080948550030202E18D828E8322AC82AD83AEF0FF780079007A007B00C3E89CE9E2
:2003F7009DEA9EEB9F500F08B8000909B900050ABA00E90B80E62220C7FDD2C530C3FDC2DB
:20041700C5C2C3228582C210C30280FB228582C2D2C410C30280FB2230C3FD85C282C2C30F
:200437002230C3FDAFC2C2C3D2C410C30280FB8F8222AF82C00712040ED00774FE5FF58249
:2004570012041B85278212041B7F00AD2B7E001DBDFF011E8F037C00C3EB9DEC64808EF081
:2004770063F08095F0501FEF2528FCE43529FDAE2A8C828D838EF0120E30F582C00712040F
:200497001BD0070F80C5AE2B7F001EBEFF011FEE2528FEEF3529FFAD2A8E828F838DF0129F
:2004B7000E30F58212042422AF82C00712040ED0078F0674FE5EF582C00712041B852C821A
:2004D70012042412040ED00774014FF58212041B7F00AD307E001DBDFF011E8F037C00C3C1
:2004F700EB9DEC64808EF063F08095F0502ED2C2EF252DFCE4352EFDAE2FC007C006C005F5
:20051700C00412042FAB82D004D005D006D0078C828D838EF0EB1207320F80B6C2C2AE30BF
:200537007F001EBEFF011FEE252DFEEF352EFFAD2FC007C006C005120438AC82D005D00646
:20055700D0078E828F838DF0EC12073222753123752831752900752A40752720752B0175CF
:200577008230120449753100752831752900752A40752721752B01758230120449753100D8
:20059700752831752900752A40752722752B017582301204492212010775822012011A1282
:2005B700073112072D1206B81207301205647542007543007F0020B70AEF70FA12064A7F09
:2005D7000180F312072B12072C12072F753E00E53F60E112072E753F0075430080D622C0BC
:2005F700E0C0D010DF0280160542054374F125435006753F0175430075E90075F97053D867
:20061700C0D0D0D0E032AE427F000EBE00010FAC427D00C3EC9EED64808FF063F08095F0D6
:2006370040ED221201F1AF82BF2A02800512061D80F1221201B87479C0E0740EC0E0748079
:20065700C0E0120133158115811581758200120270AE828E441201B87494C0E0740EC0E0C9
:200677007480C0E0120133158115811581758200120270AE828E461201B874B0C0E0740E37
:20069700C0E07480C0E0120133158115811581758200120270AE828E451201B82275E1172F
:2006B7002275CF93D2C622AE82AF838E048F05C007C006C005C004120124AB82D004D005C5
:2006D700D006D007BB63048C068D07BB691FA94B7A00E92EFEEA3FFFC3E54C9EE54D648078
:2006F7008FF063F08095F05004AE4CAF4DBB6420A94B7A00EEC399FEEF9AFFC3EE954EEFC2
:1B0717006480854FF063F08095F05004AE4EAF4FBB759C22222222222222229D
:200E50000A54797065206469676974733B20656E6420772F230020202020202563256325E2
:200E7000632563256300256300506C6561736520656E7465722061206B732076616C756513
:200E90003A0A2000506C6561736520656E7465722061206B64782076616C75653A0A2000BD
:1C0EB000506C6561736520656E7465722061206B64792076616C75653A0A200004
:06008000E478FFF6D8FD54
:20005E007900E94400601B7A00900ED7785175AF00E493F2A308B8000205AFD9F4DAF275F5
:02007E00AFFFD2
:1B07320020F71130F6138883A88220F509F6A8837583002280FEF280F5F022C6
:1D074D00E5828510F0A4C582C0F08511F0A4D0F025F0C5838510F0A42583F5832256
:20076A00C00F85810FC082058105810581E50F24FBF8A90F0909E6F70809E6F70809E6F729
:20078A00A80F080886820886830886F0120E30FAA3120E30FBA3120E30FF74012AFCE43B0D
:2007AA00FD8F06A80F080886820886830886F0EC120732A3ED120732A3EE1207328A828BBA
:2007CA00838FF0A80F08E6120732850F81D00F2285820C85830D85F00E755C0C755D007538
:2007EA005E4085085F850960850A61850B6290076A12090EAE82AF83AB0CAC0DAD0E8B82D1
:20080A008C838DF0E41207328E828F8322C00F85810FE50F24F8FF8F62E50F24FBFF8F5CEE
:20082A00755D00755E40E50F24F8F8865F08866008866190076A12090EAE82AF83E50F245B
:1B084A00FBF886030886040886058B828C838DF0E41207328E828F83D00F2207
:200086007800E84400600A790175AF00E4F309D8FC7850E84400600C7901900001E4F0A318
:0400A600D8FCD9FAAF
:20086500AF82C052C053C0541208728007C050C0518F8222158115811581055AE4B55A028C
:20088500055B22AF8274302FFF24C6500A74072FFF3000034307208F82020865E582FFC49A
:2008A500540FF582C007120888D007740F5FF58202088885821085551185561285571385CB
:2008C5005814AA59751520EA2AFAE514235401FF8A064EFAE5112511F511E51233F512E55C
:2008E5001333F513E51433F514C3EA95104008EAC39510FA431101D515CD851155851256A6
:200905008513578514588A5922858250858351855C52855D53855E54E4F55AF55BAD5FAE61
:2009250060AF618D828E838FF0120E30FC74012DF55FE43EF5608F61ECFF7003020E11BFBC
:2009450025028003020E09C201C202C203C204C205C206C207C2087563007564007CFFAAC5
:200965005FAB60AE618A828B838EF0120E30FFA3AA82AB838A5F8B608E61BF25078F821244
:20098500086580998F6674D025665026E56624C64020BCFF12E56475F00AA4FD2F24D0F5BF
:2009A5006470C2D20280BEEC75F00AA42F24D0FC80B3BF2E07BCFFAD7C0080A98F05BD6186
:2009C50000400CED248540075307DFD2008002C200BF2002806DBF2B028063BF2D02805936
:2009E500BF42028063BF43028068BF4403020BB3BF4603020BC9BF480302096ABF490302F0
:200A05000BB3BF4A0302096ABF4C028040BF4F03020BBABF5003020B48BF5302805CBF5483
:200A25000302096ABF5503020BBFBF5803020BC4BF5A0302096A020BCDD20102096AD203E3
:200A450002096AD20402096AD20602096AD20702096A30060CE56214FE8E628E018707800E
:200A650011E56224FEFE8E628E018705098706198D078F82120865020BD6E56224FDFE8E44
:200A8500628E01870309870509870619198B558D568E578B828D838EF0C004120E18AD820B
:200AA500AE83D004BCFF028D0420012AC3ED95645024E564C39DF564AE648E031EEB601454
:200AC500758220C006C005C004120865D004D005D00680E68E648C0685558285568385572D
:200AE500F0120E30FCFF602F8E041EC374808CF063F08095F050208F82C006C00512086561
:200B0500D005D006AA55AB56AC570ABA00010B8A558B568C5780C1200103020BD6C3ED9522
:200B2500644003020BD6E564C39DF564AE648E041EEC7003020BD4758220C006120865D0F6
:200B45000680EBE56224FDFC8C628C01870209870309870419198A558B568C57AC57BC807C
:200B65000040047F438014BC600040047F50800BBC400040047F4980027F588F82C00712D1
:200B8500086575823A120865758230120865758278120865D007BF4902800BBF500280069C
:200BA5008556821208A18555821208A18023D20575630A801C756308801775630A801275A9
:200BC5006310800DD20880098F8212086580028E6430085CE56224FCFE8E628E018702099F
:200BE50087030987040987061919198A558B568C578E587555CC75560E75578085556785E7
:200C0500566885576974012567FAE43568FCAE698A558C568E578567828568838569F012C9
:200C25000E30FEFF70030209228F8212086580CCE563700302092275651B30062DE562145D
:200C4500FC8C628C01E7FA3395E0FBFCFE8A558B568C578E58200566AA557B007C007E0012
:200C65008A558B568C578E588054300721E56224FCFE8E628E018702098703098704098796
:200C8500061919198A558B568C578E588030E56224FEFE8E628E01870409870619EE3395EF
:200CA500E0FBFA8C558E568B578A58200510AA55AB567C007E008A558B568C578E583005E4
:200CC50022E55830E71BC3E49555FAE49556FBE49557FCE49558FE8A558B568C578E588085
:200CE50002C205D209A9657E00755900856382C006C0011208B8D001D00620090BE559C451
:200D0500FCE7FB4CF7198002A7590EB209E55545564557455870D289658E05E56470037547
:200D25006401200224200121ED04FEAC64C3EE9C5015758220C006C005C004120865D00457
:200D4500D005D0061C80E68C6430050E75822DC005120865D00515648023ED602030030E27
:200D650075822BC005120865D0051564800F30040C758220C005120865D0051564200122FF
:200D8500AE648E041EC3ED9C502B3002047C3080027C208C82C006C005120865D005D00602
:200DA50080E0C3ED95645008E564C39DF564800775640080028E64A9658D068E051EED6058
:200DC50026B20920090A09E7C4540FFD8D5980078705740F5DF559855982C006C0011208BE
:200DE50088D001D00680D4200103020922AE648E051EED7003020922758220C0061208656E
:130E0500D00680EB8F82120865020922855A82855B8322F6
:0B0ECC003C4E4F20464C4F41543E006E
:180E1800AA82AB83120E306003A380F8C3E5829AF582E5839BF58322C2
:0D005100758169120E4CE582600302004EBD
:1C0E300020F71430F6148883A88220F507E6A88375830022E280F7E49322E022D1
:040E4C007582002289
:00000001FF
