:040000000200513277
:01000B0032C2
:0100130032BA
:01001B0032B2
:0100230032AA
:01002B0032A2
:01003300329A
:01003B003292
:01004300328A
:03004B000206901A
:1200AA00E4F534F535F536F537753B84753C0302004E7E
:03004E0002059216
:2000BC0075B1677E007F011EBEFF011FEE4F70F7E5B130E7FB75B288227598507589207591
:2000DC008DDCD28E438E10438780D29943A4012275FFDE75FFAD1200BC1200D543E1044308
:2000FC00E34022AF8210990280FB8F992210980280FB8599821200FF85998222C00F858191
:20011C000FE50F24FBF886820886830886F012123BE5828583F045F070028062E50F24FBB8
:20013C00FF8F0BE50F24FBF8860808860908860A90000175F000120A4190000175F00012E7
:20015C00123BAE827F00C3EF9E501FEF2401F582E43400F583E0FDBD0A0DEF2401F582E48D
:20017C003400F583740DF00F80DC752801752900752A007527008E2B7582C612042ED00FCB
:20019C002275220074C025224017752D22752E00752F40752C007530017582C61204A4802F
:2001BC00E375230C752823752900752A40752700752B017582C612042E22752D25752E0095
:2001DC00752F40752C017530027582C61204A474FFB52505758200805F7F008F068EF005A0
:2001FC00F07C017D008006EC2CFCED33FDD5F0F7AA257B00EA5204EB5205EC4D6007743175
:20021C002FF58280330E8E07BE080040D0E52630E0057582398021E52630E10575822A803D
:20023C0017E52630E205758230800DE52630E30575822380037582FF22AF82E4FDFEEF706E
:20025C001DC006C005745CC0E07414C0E07480C0E0120118158115811581D005D006C00650
:20027C00C0057408C0E0E4C0E07408C0E0E4C0E07408C0E0E4C0E07408C0E0E4C0E07408A1
:20029C00C0E0E4C0E07472C0E07414C0E07480C0E0120118E58124F3F58190A12075F00701
:2002BC00E41203C9D005D0067F00C007C006C0051201D6AC82D005D006D0078C03BCFF02FF
:2002DC008003BB2A17902710E4F5F0C007C006C0051203C9D005D006D00780CEBB232AC02B
:2002FC0006C0051201D6AC82D005D006BC2313902710E4F5F0C006C0051203C9D005D006BF
:20031C0080DD8D828E830203C8EBFA3395E0FCC007C006C005C004C003C002C002C0047459
:20033C0082C0E07414C0E07480C0E0120118E58124FBF581D002D003D004D005D0068D11DB
:20035C008E1290000AC004C003C0021209B4A882A983D002D003D004D007EA28F8EC39F961
:20037C00E824D0FDE934FFFEC007C006C005C0031201D6AC82D003D005D006D007ECB50349
:20039C001B902710E4F5F0C007C006C005C0031203C9D003D005D006D00780CC0FC3EF64DD
:2003BC0080948550030202C68D828E8322AC82AD83AEF0FF780079007A007B00C3E89CE918
:2003DC009DEA9EEB9F500F08B8000909B900050ABA00E90B80E62220C7FDD2C530C3FDC2F6
:2003FC00C5C2C3228582C210C30280FB228582C2D2C410C30280FB2230C3FD85C282C2C32B
:20041C002230C3FDAFC2C2C3D2C410C30280FB8F8222AF82C0071203F3D00774FE5FF58280
:20043C001204008527821204007F00AD2B7E001DBDFF011E8F037C00C3EB9DEC64808EF0D2
:20045C0063F08095F0501FEF2528FCE43529FDAE2A8C828D838EF0121316F582C00712043F
:20047C0000D0070F80C5AE2B7F001EBEFF011FEE2528FEEF3529FFAD2A8E828F838DF012D5
:20049C001316F58212040922AF82C0071203F3D0078F0674FE5EF582C007120400852C829C
:2004BC001204091203F3D00774014FF5821204007F00AD307E001DBDFF011E8F037C00C32E
:2004DC00EB9DEC64808EF063F08095F0502ED2C2EF252DFCE4352EFDAE2FC007C006C00510
:2004FC00C004120414AB82D004D005D006D0078C828D838EF0EB1209690F80B6C2C2AE30BD
:20051C007F001EBEFF011FEE252DFEEF352EFFAD2FC007C006C00512041DAC82D005D0067C
:20053C00D0078E828F838DF0EC12096922753123752831752900752A40752720752B0175B1
:20055C00823012042E753100752831752900752A40752721752B0175823012042E75310029
:20057C00752831752900752A40752722752B0175823012042E221200EC7582201200FF12F0
:20059C00064612067712068112067B7485C0E07414C0E07480C0E0120C45158115811581BE
:2005BC0075347D75350A7532827533F575EA8275FAF5E4F536F537C3E5369432E5379400AB
:2005DC0040F5E4F536F537C3E5369402E537940040F512065185823985833A74102539FE6B
:2005FC00740E353AFFEEC3953BF582EF953CF58375111075120E121332AE82AF838E3F8F7F
:20061C0040C03FC040C039C03A74ACC0E07414C0E07480C0E0120C45E58124F9F581853FF0
:20063C00828540831206AF80992275A50FAFA474CD5FF5A422752D41752E00752F40752CF0
:20065C00027530027582C01204A4AF417E00AC427D00EC4EF582ED4FF5832275E1272275F0
:20067C00CF93D2C62275D98175DAC275D84043E608D2AF22C0E0C0D010DF02800E75E900F4
:20069C0075F9700536E4B53602053753D8C0D0D0D0E032858243858344C3E5439408E54465
:2006BC00940740030207CC854382854483120BBBAA82AB83ACF0FD7466C0E0C0E07486C036
:2006DC00E07440C0E08A828B838CF0ED121253AA82AB83ACF0FDE58124FCF581C002C0035C
:2006FC00C004C00590D00075F027744512092EAA82AB83ACF0FDE58124FCF58185348285B8
:20071C003583C005C004C003C002120BBBA882A983AEF0FFD002D003D004D005C002C00359
:20073C00C004C005888289838EF0EF120939AF82E58124FCF581EF706885438285448312A1
:20075C000BBBAC82AD83AEF0FF7466C0E0C0E07486C0E07440C0E08C828D838EF0EF121205
:20077C0053AC82AD83AEF0FFE58124FCF581C004C005C006C00790D00075F027744512093D
:20079C002EAC82AD83AEF0FFE58124FCF5818C828D838EF0EF120BC7858234858335020926
:2007BC0001E53424F6F534E53534FFF535020901E5434544600A7410B5430E740EB5440914
:2007DC0075347D75350A0209017410C39543F582740E9544F583120BBBAC82AD83AEF0FFDB
:2007FC007433C0E0C0E074F3C0E0C4C0E08C828D838EF0EF121253AC82AD83AEF0FFE58128
:20081C0024FCF581E4C0E074D0C0E07427C0E07445C0E08C828D838EF0EF120B19AC82AD8E
:20083C0083AEF0FFE58124FCF581853482853583C007C006C005C004120BBBA882A983AA1A
:20085C00F0FBD004D005D006D007C004C005C006C007888289838AF0EB120984AF82E58174
:20087C0024FCF581EF70737410C39543F582740E9544F583120BBBAC82AD83AEF0FF743311
:20089C00C0E0C0E074F3C0E0C4C0E08C828D838EF0EF121253AC82AD83AEF0FFE58124FC0E
:2008BC00F581E4C0E074D0C0E07427C0E07445C0E08C828D838EF0EF120B19AC82AD83AEDD
:2008DC00F0FFE58124FCF5818C828D838EF0EF120BC7858234858335800B740A2534F5349F
:2008FC00E43535F535C034C03574B5C0E07414C0E07480C0E0120C45E58124FBF58174FF25
:12091C00C39534F53274FF9535F5338532EA8533FA223C
:20145C000A54797065206469676974733B20656E6420772F230020202020202563256325D0
:20147C00632563256300256300456D62656464656420436F6E74726F6C20537465657269BE
:20149C006E672043616C6962726174696F6E0A000D0A25647C7C2564000D0A5354525F50E9
:0614BC00573A20257500DF
:0B092E00A8811818C6B2E7C6020B191A
:06008000E478FFF6D8FD54
:20005E007900E94400601B7A009014CD785175AF00E493F2A308B8000205AFD9F4DAF275F9
:02007E00AFFFD2
:20093900FFA8811818120B90D2D133E6400730E70B7582012220E70675820022C2D1120B84
:1009590072E97003F5822230D101B3E433F58222C2
:1B09690020F71130F6138883A88220F509F6A8837583002280FEF280F5F0228D
:20098400FFA8811818120B90D2D133E6400730E70B7582002220E70675820122C2D1120B39
:1009A40072E97003F5822220D101B3E433F5822287
:1D09B400E5828511F0A4C582C0F08512F0A4D0F025F0C5838511F0A42583F58322EA
:2009D100C00F85810FC082058105810581E50F24FBF8A90F0909E6F70809E6F70809E6F7C0
:2009F100A80F080886820886830886F0121316FAA3121316FBA3121316FF74012AFCE43BE3
:200A1100FD8F06A80F080886820886830886F0EC120969A3ED120969A3EE1209698A828BA5
:200A3100838FF0A80F08E6120969850F81D00F2285820C85830D85F00E75510C75520075AB
:200A51005340850854850955850A56850B579009D1120D17AE82AF83AB0CAC0DAD0E8B8228
:200A71008C838DF0E41209698E828F8322C00F85810FE50F24F8FF8F57E50F24FBFF8F5162
:200A9100755200755340E50F24F8F886540886550886569009D1120D17AE82AF83E50F24B3
:1B0AB100FBF886030886040886058B828C838DF0E41209698E828F83D00F2265
:200ACC00E511451260467A01E51125E0F511E512334012F512E5829511E583951240030AAF
:200AEC0080E6C3E51213F512E51113F511C3E5829511F5F0E58395124005F58385F082C366
:0D0B0C00E51213F512E51113F511DAE122DF
:200086007800E84400600A790175AF00E4F309D8FC7850E84400600C7901900001E4F0A318
:0400A600D8FCD9FAAF
:200B190012137B7900E583B58202800D5003121221E583C395821213A9E5D0C465D020E11E
:200B390017EA2DFAEB3EFBEC3FFC500974011213A9EC4480FC020BD2C3EA9DFAEB9EFBEC4E
:190B59009FFC500FC3E499F9E49AFAE49BFBE49CFCB2D11213EC020BD26F
:200B72007901AA82E68F82B5821318E6B5F00E18E6B5830918E68A82B58202790022B4807A
:200B92000FE5F0700AE5837006E58270027F00EFB6801518B6001018B6000B18B6000608E2
:090BB20008087600220808082258
:0C0BBB00E4AC83AB82FAF9748E02137173
:0B0BC7007F8E121425F58385F082223A
:200BD200B98003EA13B34010EA2401FAE43BFBE43CFC50047C800582BC000EBB000BBA0067
:200BF20008E4F5F0F583F58222A2D1E582138CF092F78B838A8222E4F583F58275F080F427
:0F0C1200A2D11322E4F583F58275F0C0747F221E
:200C2100C00F85810F1200FFD00F2285825485835585F056E4F551F552F553851057900CF9
:200C410021020D17C00F85810FE50F24FBFF8F57E4F551F552F553E50F24FBF88654088644
:0D0C610055088656900C21120D17D00F2259
:200C6E00AF82C047C048C049120C7B8007C045C0468F8222158115811581054FE4B54F02BF
:200C8E00055022AF8274302FFF24C6500A74072FFF3000034307208F82020C6EE582FFC48B
:200CAE00540FF582C007120C91D007740F5FF582020C91858211854A12854B13854C1485C1
:200CCE004D15AA4E751620EA2AFAE515235401FF8A064EFAE5122512F512E51333F513E55D
:200CEE001433F514E51533F515C3EA95114008EAC39511FA431201D516CD85124A85134BA5
:200D0E0085144C85154D8A4E22858245858346855147855248855349E4F54FF550AD54AEEC
:200D2E0055AF568D828E838FF0121316FC74012DF554E43EF5558F56ECFF700302121ABFEE
:200D4E0025028003021212C201C202C203C204C205C206C207C2087558007559007CFFAAC1
:200D6E0054AB55AE568A828B838EF0121316FFA3AA82AB838A548B558E56BF25078F82128E
:200D8E000C6E80998F5B74D0255B5026E55B24C64020BCFF12E55975F00AA4FD2F24D0F5D1
:200DAE005970C2D20280BEEC75F00AA42F24D0FC80B3BF2E07BCFFAD7C0080A98F05BD6184
:200DCE0000400CED248540075307DFD2008002C200BF2002806DBF2B028063BF2D02805929
:200DEE00BF42028063BF43028068BF4403020FBCBF4603020FD2BF4803020D73BF490302BC
:200E0E000FBCBF4A03020D73BF4C028040BF4F03020FC3BF5003020F51BF5302805CBF5442
:200E2E0003020D73BF5503020FC8BF5803020FCDBF5A03020D73020FD6D201020D73D20388
:200E4E00020D73D204020D73D206020D73D207020D7330060CE55714FE8E578E01870780E3
:200E6E0011E55724FEFE8E578E018705098706198D078F82120C6E020FDFE55724FDFE8E3E
:200E8E00578E01870309870509870619198B4A8D4B8E4C8B828D838EF0C00412123BAD8203
:200EAE00AE83D004BCFF028D0420012AC3ED95595024E559C39DF559AE598E031EEB601473
:200ECE00758220C006C005C004120C6ED004D005D00680E68E598C06854A82854B83854C3F
:200EEE00F0121316FCFF602F8E041EC374808CF063F08095F050208F82C006C005120C6E5C
:200F0E00D005D006AA4AAB4BAC4C0ABA00010B8A4A8B4B8C4C80C1200103020FDFC3ED954A
:200F2E00594003020FDFE559C39DF559AE598E041EEC7003020FDD758220C006120C6ED0EE
:200F4E000680EBE55724FDFC8C578C01870209870309870419198A4A8B4B8C4CAC4CBC80B1
:200F6E000040047F438014BC600040047F50800BBC400040047F4980027F588F82C00712C4
:200F8E000C6E75823A120C6E758230120C6E758278120C6ED007BF4902800BBF500280065B
:200FAE00854B82120CAA854A82120CAA8023D20575580A801C755808801775580A801275B9
:200FCE005810800DD20880098F82120C6E80028E5930085CE55724FCFE8E578E01870209B1
:200FEE0087030987040987061919198A4A8B4B8C4C8E4D754AC2754B14754C80854A5C8541
:20100E004B5D854C5E7401255CFAE4355DFCAE5E8A4A8C4B8E4C855C82855D83855EF0124B
:20102E001316FEFF7003020D2B8F82120C6E80CCE5587003020D2B755A1C30062DE557145E
:20104E00FC8C578C01E7FA3395E0FBFCFE8A4A8B4B8C4C8E4D200566AA4A7B007C007E0047
:20106E008A4A8B4B8C4C8E4D8054300721E55724FCFE8E578E0187020987030987040987CB
:20108E00061919198A4A8B4B8C4C8E4D8030E55724FEFE8E578E01870409870619EE339524
:2010AE00E0FBFA8C4A8E4B8B4C8A4D200510AA4AAB4B7C007E008A4A8B4B8C4C8E4D300545
:2010CE0022E54D30E71BC3E4954AFAE4954BFBE4954CFCE4954DFE8A4A8B4B8C4C8E4D80DB
:2010EE0002C205D209A95A7E00754E00855882C006C001120CC1D001D00620090BE54EC463
:20110E00FCE7FB4CF7198002A74E0EB209E54A454B454C454D70D2895A8E05E55970037587
:20112E005901200224200121ED04FEAC59C3EE9C5015758220C006C005C004120C6ED00453
:20114E00D005D0061C80E68C5930050E75822DC005120C6ED00515598023ED602030030E23
:20116E0075822BC005120C6ED0051559800F30040C758220C005120C6ED0051559200122EE
:20118E00AE598E041EC3ED9C502B3002047C3080027C208C82C006C005120C6ED005D006F3
:2011AE0080E0C3ED95595008E559C39DF559800775590080028E59A95A8D068E051EED608D
:2011CE0026B20920090A09E7C4540FFD8D4E80078705740F5DF54E854E82C006C001120CCE
:2011EE0091D001D00680D4200103020D2BAE598E051EED7003020D2B758220C006120C6E3C
:13120E00D00680EB8F82120C6E020D2B854F8285508322E5
:0B14C2003C4E4F20464C4F41543E0072
:1A122100E582C583F582A2D133A2D592D11392D5ECCFFCEBCEFBEACDFA2255
:18123B00AA82AB831213166003A380F8C3E5829AF582E5839BF58322B0
:2012530012137B30D502B2D1BF0009BC0003020C16020C09BC0003020BF3E583B4FF0BE5C5
:2012730082B4FF03020C16020BF3E582B4FF03020C09C395835007247F400B020BF3248007
:20129300145003020C09F582C3ED9AEE9BEF9C40111582C3EA33F9EB33FAEC33FBE433FCE2
:2012B3008005E4CCCBCAF9C08275F019C3E99DEA9EEB9FEC9400D5F002802D400EE99DF97C
:2012D300EA9EFAEB9FFBEC9400FCC3B3E833F8E58233F582E58333F583C3E933F9EA33FADC
:2012F300EB33FBEC33FC80C4B3E4F938FAE43582FBE43583FCD082500405827C801213EC39
:03131300020BEAE0
:0D00510075815E12141FE582600302004EEF
:1C13160020F71430F6148883A88220F507E6A88375830022E280F7E49322E022E6
:20133200C2D5E58330E70DD2D5E4C39582F582E49583F583E51230E70BE4C39511F511E4D8
:161352009512F512120ACC30D50BE4C39582F582E49583F5832214
:13136800FCABF0AA83A982749EC2D1F5821213EC020BD277
:20137B00AA82AB83A2F73392D1F5826002D2F7ACF0E58124F9F8E6FD08E6FE0886F008E6D5
:0E139B00A2F73392D5F5836002D2F7AFF022AD
:2013A9006040F82582500274FFF582E824F8501ECCCBCAF9E4CC24F85014CBCAF9E4CB244C
:2013C900F8500BCAF9E4CA24F8500379002224086010F8C3EC13FCEB13FBEA13FAE913F9FF
:0313E900D8F12216
:2013EC007804EC7011E58224F8500AF582E4C9CACBFCD8EF22EC7820058220E713D5820100
:13140C0022C3E933F9EA33FAEB33FBEC33FCD8EA1582220D
:04141F0075820022B0
:201423007F9E12144A30D103020BF3C3EF9582500974FFF5F0F583F5822279001213A989BD
:07144300828A838BF0EC228A
:12144A00AA82AB83A2F73392D1F5826002D2F7ACF022A7
:00000001FF
