:040000000200513277
:01000B0032C2
:0100130032BA
:01001B0032B2
:0100230032AA
:01002B0032A2
:01003300329A
:01003B003292
:01004300328A
:03004B0002067D2D
:1200AA00E4F534F535F536F537753B84753C0302004E7E
:03004E0002059216
:2000BC0075B1677E007F011EBEFF011FEE4F70F7E5B130E7FB75B288227598507589207591
:2000DC008DDCD28E438E10438780D29943A4012275FFDE75FFAD1200BC1200D543E1044308
:2000FC00E34022AF8210990280FB8F992210980280FB8599821200FF85998222C00F858191
:20011C000FE50F24FBF886820886830886F0120E92E5828583F045F070028062E50F24FB65
:20013C00FF8F0BE50F24FBF8860808860908860A90000175F0001207BA90000175F0001271
:20015C000E92AE827F00C3EF9E501FEF2401F582E43400F583E0FDBD0A0DEF2401F582E43A
:20017C003400F583740DF00F80DC752801752900752A007527008E2B7582C612042ED00FCB
:20019C002275220074C025224017752D22752E00752F40752C007530017582C61204A4802F
:2001BC00E375230C752823752900752A40752700752B017582C612042E22752D25752E0095
:2001DC00752F40752C017530027582C61204A474FFB52505758200805F7F008F068EF005A0
:2001FC00F07C017D008006EC2CFCED33FDD5F0F7AA257B00EA5204EB5205EC4D6007743175
:20021C002FF58280330E8E07BE080040D0E52630E0057582398021E52630E10575822A803D
:20023C0017E52630E205758230800DE52630E30575822380037582FF22AF82E4FDFEEF706E
:20025C001DC006C00574CAC0E0740EC0E07480C0E0120118158115811581D005D006C006E8
:20027C00C0057408C0E0E4C0E07408C0E0E4C0E07408C0E0E4C0E07408C0E0E4C0E07408A1
:20029C00C0E0E4C0E074E0C0E0740EC0E07480C0E0120118E58124F3F58190A12075F00799
:2002BC00E41203C9D005D0067F00C007C006C0051201D6AC82D005D006D0078C03BCFF02FF
:2002DC008003BB2A17902710E4F5F0C007C006C0051203C9D005D006D00780CEBB232AC02B
:2002FC0006C0051201D6AC82D005D006BC2313902710E4F5F0C006C0051203C9D005D006BF
:20031C0080DD8D828E830203C8EBFA3395E0FCC007C006C005C004C003C002C002C0047459
:20033C00F0C0E0740EC0E07480C0E0120118E58124FBF581D002D003D004D005D0068D1173
:20035C008E1290000AC004C003C00212072DA882A983D002D003D004D007EA28F8EC39F9EA
:20037C00E824D0FDE934FFFEC007C006C005C0031201D6AC82D003D005D006D007ECB50349
:20039C001B902710E4F5F0C007C006C005C0031203C9D003D005D006D00780CC0FC3EF64DD
:2003BC0080948550030202C68D828E8322AC82AD83AEF0FF780079007A007B00C3E89CE918
:2003DC009DEA9EEB9F500F08B8000909B900050ABA00E90B80E62220C7FDD2C530C3FDC2F6
:2003FC00C5C2C3228582C210C30280FB228582C2D2C410C30280FB2230C3FD85C282C2C32B
:20041C002230C3FDAFC2C2C3D2C410C30280FB8F8222AF82C0071203F3D00774FE5FF58280
:20043C001204008527821204007F00AD2B7E001DBDFF011E8F037C00C3EB9DEC64808EF0D2
:20045C0063F08095F0501FEF2528FCE43529FDAE2A8C828D838EF0120EAAF582C0071204B0
:20047C0000D0070F80C5AE2B7F001EBEFF011FEE2528FEEF3529FFAD2A8E828F838DF012D5
:20049C000EAAF58212040922AF82C0071203F3D0078F0674FE5EF582C007120400852C820D
:2004BC001204091203F3D00774014FF5821204007F00AD307E001DBDFF011E8F037C00C32E
:2004DC00EB9DEC64808EF063F08095F0502ED2C2EF252DFCE4352EFDAE2FC007C006C00510
:2004FC00C004120414AB82D004D005D006D0078C828D838EF0EB1207120F80B6C2C2AE3016
:20051C007F001EBEFF011FEE252DFEEF352EFFAD2FC007C006C00512041DAC82D005D0067C
:20053C00D0078E828F838DF0EC12071222753123752831752900752A40752720752B01750A
:20055C00823012042E753100752831752900752A40752721752B0175823012042E75310029
:20057C00752831752900752A40752722752B0175823012042E221200EC7582201200FF12F0
:20059C00063312066412066E12066874F3C0E0740EC0E07480C0E01208B615811581158135
:2005BC007534CD75350A7532327533F575EA3275FAF5E4F536F537C3E5369432E5379400FB
:2005DC0040F5E4F536F537C3E5369402E537940040F512063E85823985833AE539C3953BAD
:2005FC00F582E53A953CF58375111075120E12084585823F858340C03FC040C039C03A7482
:20061C001AC0E0740FC0E07480C0E01208B6E58124F9F58180AC2275A50FAFA474CD5FF525
:20063C00A422752D41752E00752F40752C027530027582C01204A4AF417E00AC427D00ECEE
:20065C004EF582ED4FF5832275E1272275CF93D2C62275D98175DAC275D84043E608D2AF94
:20067C0022C0E0C0D010DF02800E75E90075F9700536E4B53602053753D8C0D0D0D0E0329C
:20069C007472B53821C374D995347408953540087534D97535088031E53424F6F534E53588
:2006BC0034FFF5358023746CB5381EC374CB9534740C953550087534CB75350C800B740A93
:2006DC002534F534E43535F535C034C0357422C0E0740FC0E07480C0E01208B6E58124FBD9
:1606FC00F58174FFC39534F53274FF9535F5338532EA8533FA2272
:200ECA000A54797065206469676974733B20656E6420772F23002020202020256325632568
:200EEA00632563256300256300456D62656464656420436F6E74726F6C2053746565726956
:200F0A006E672043616C6962726174696F6E0A000D0A2564092564000D0A5354525F505718
:050F2A003A20257500CE
:06008000E478FFF6D8FD54
:20005E007900E94400601B7A00900F3A785175AF00E493F2A308B8000205AFD9F4DAF27591
:02007E00AFFFD2
:1B07120020F71130F6138883A88220F509F6A8837583002280FEF280F5F022E6
:1D072D00E5828511F0A4C582C0F08512F0A4D0F025F0C5838511F0A42583F5832273
:20074A00C00F85810FC082058105810581E50F24FBF8A90F0909E6F70809E6F70809E6F749
:20076A00A80F080886820886830886F0120EAAFAA3120EAAFBA3120EAAFF74012AFCE43BBF
:20078A00FD8F06A80F080886820886830886F0EC120712A3ED120712A3EE1207128A828B3A
:2007AA00838FF0A80F08E6120712850F81D00F2285820C85830D85F00E754F0C7550007592
:2007CA005140850852850953850A54850B5590074A120988AE82AF83AB0CAC0DAD0E8B82D8
:2007EA008C838DF0E41207128E828F8322C00F85810FE50F24F8FF8F55E50F24FBFF8F4F49
:20080A00755000755140E50F24F8F8865208865308865490074A120988AE82AF83E50F2462
:1B082A00FBF886030886040886058B828C838DF0E41207128E828F83D00F2247
:20084500E511451260467A01E51125E0F511E512334012F512E5829511E583951240030A38
:2008650080E6C3E51213F512E51113F511C3E5829511F5F0E58395124005F58385F082C3EF
:0D088500E51213F512E51113F511DAE12269
:200086007800E84400600A790175AF00E4F309D8FC7850E84400600C7901900001E4F0A318
:0400A600D8FCD9FAAF
:20089200C00F85810F1200FFD00F2285825285835385F054E4F54FF550F55185105590089E
:2008B20092020988C00F85810FE50F24FBFF8F55E4F54FF550F551E50F24FBF88652088603
:0D08D20053088654900892120988D00F2216
:2008DF00AF82C045C046C0471208EC8007C043C0448F8222158115811581054DE4B54D02F3
:2008FF00054E22AF8274302FFF24C6500A74072FFF3000034307208F820208DFE582FFC4B3
:20091F00540FF582C007120902D007740F5FF582020902858211854812854913854A14857D
:20093F004B15AA4C751620EA2AFAE515235401FF8A064EFAE5122512F512E51333F513E5F3
:20095F001433F514E51533F515C3EA95114008EAC39511FA431201D516CD8512488513493B
:20097F0085144A85154B8A4C22858243858344854F45855046855147E4F54DF54EAD52AE9B
:20099F0053AF548D828E838FF0120EAAFC74012DF552E43EF5538F54ECFF7003020E8BBF8F
:2009BF0025028003020E83C201C202C203C204C205C206C207C2087556007557007CFFAAEB
:2009DF0052AB53AE548A828B838EF0120EAAFFA3AA82AB838A528B538E54BF25078F82129E
:2009FF0008DF80998F5974D025595026E55924C64020BCFF12E55775F00AA4FD2F24D0F5FF
:200A1F005770C2D20280BEEC75F00AA42F24D0FC80B3BF2E07BCFFAD7C0080A98F05BD6118
:200A3F0000400CED248540075307DFD2008002C200BF2002806DBF2B028063BF2D028059BB
:200A5F00BF42028063BF43028068BF4403020C2DBF4603020C43BF48030209E4BF49030205
:200A7F000C2DBF4A030209E4BF4C028040BF4F03020C34BF5003020BC2BF5302805CBF541F
:200A9F00030209E4BF5503020C39BF5803020C3EBF5A030209E4020C47D2010209E4D2038A
:200ABF000209E4D2040209E4D2060209E4D2070209E430060CE55514FE8E558E01870780C6
:200ADF0011E55524FEFE8E558E018705098706198D078F821208DF020C50E55524FDFE8EFC
:200AFF00558E01870309870509870619198B488D498E4A8B828D838EF0C004120E92AD824B
:200B1F00AE83D004BCFF028D0420012AC3ED95575024E557C39DF557AE578E031EEB60140D
:200B3F00758220C006C005C0041208DFD004D005D00680E68E578C06854882854983854A6C
:200B5F00F0120EAAFCFF602F8E041EC374808CF063F08095F050208F82C006C0051208DFF2
:200B7F00D005D006AA48AB49AC4A0ABA00010B8A488B498C4A80C1200103020C50C3ED957B
:200B9F00574003020C50E557C39DF557AE578E041EEC7003020C4E758220C0061208DFD040
:200BBF000680EBE55524FDFC8C558C01870209870309870419198A488B498C4AAC4ABC8050
:200BDF000040047F438014BC600040047F50800BBC400040047F4980027F588F82C0071257
:200BFF0008DF75823A1208DF7582301208DF7582781208DFD007BF4902800BBF500280063A
:200C1F0085498212091B85488212091B8023D20575560A801C755608801775560A80127579
:200C3F005610800DD20880098F821208DF80028E5730085CE55524FCFE8E558E01870209DE
:200C5F0087030987040987061919198A488B498C4A8E4B75482F75490F754A8085485A857D
:200C7F00495B854A5C7401255AFAE4355BFCAE5C8A488C498E4A855A82855B83855CF012F8
:200C9F000EAAFEFF700302099C8F821208DF80CCE556700302099C75581C30062DE5551421
:200CBF00FC8C558C01E7FA3395E0FBFCFE8A488B498C4A8E4B200566AA487B007C007E00E6
:200CDF008A488B498C4A8E4B8054300721E55524FCFE8E558E01870209870309870409876A
:200CFF00061919198A488B498C4A8E4B8030E55524FEFE8E558E01870409870619EE3395C3
:200D1F00E0FBFA8C488E498B4A8A4B200510AA48AB497C007E008A488B498C4A8E4B3005EB
:200D3F0022E54B30E71BC3E49548FAE49549FBE4954AFCE4954BFE8A488B498C4A8E4B807F
:200D5F0002C205D209A9587E00754C00855682C006C001120932D001D00620090BE54CC48F
:200D7F00FCE7FB4CF7198002A74C0EB209E5484549454A454B70D289588E05E55770037528
:200D9F005701200224200121ED04FEAC57C3EE9C5015758220C006C005C0041208DFD0047D
:200DBF00D005D0061C80E68C5730050E75822DC0051208DFD00515578023ED602030030E4D
:200DDF0075822BC0051208DFD0051557800F30040C758220C0051208DFD0051557200122AB
:200DFF00AE578E041EC3ED9C502B3002047C3080027C208C82C006C0051208DFD005D0061B
:200E1F0080E0C3ED95575008E557C39DF557800775570080028E57A9588D068E051EED602B
:200E3F0026B20920090A09E7C4540FFD8D4C80078705740F5DF54C854C82C006C001120969
:200E5F0002D001D00680D420010302099CAE578E051EED700302099C758220C0061208DF18
:130E7F00D00680EB8F821208DF02099C854D82854E8322A2
:0B0F2F003C4E4F20464C4F41543E000A
:180E9200AA82AB83120EAA6003A380F8C3E5829AF582E5839BF58322CE
:0D00510075815C120EC6E582600302004E50
:1C0EAA0020F71430F6148883A88220F507E6A88375830022E280F7E49322E02257
:040EC600758200220F
:00000001FF
