:040000000200513277
:01000B0032C2
:0100130032BA
:01001B0032B2
:0100230032AA
:01002B0032A2
:01003300329A
:01003B003292
:01004300328A
:03004B0002135845
:2000AA00E4F532F5337534D07535077536BE75370A7538AC75390D753AD0753B07753CBE01
:1E00CA00753D0A753EAC753F0D75404075410B7542CA75430D75445475451002004E19
:03004E000205BEEA
:2000E80075B1677E007F011EBEFF011FEE4F70F7E5B130E7FB75B288227598507589207565
:200108008DDCD28E438E10438780D29943A4012275FFDE75FFAD1200E812010143E1044382
:20012800E34022AF8210990280FB8F992210980280FB85998212012B85998222C00F858137
:200148000FE50F24FBF886820886830886F0121AF7E5828583F045F070028062E50F24FBC8
:20016800FF8F0BE50F24FBF8860808860908860A90000175F00012141F90000175F00012D3
:200188001AF7AE827F00C3EF9E501FEF2401F582E43400F583E0FDBD0A0DEF2401F582E49D
:2001A8003400F583740DF00F80DC752801752900752A007527008E2B7582C612045AD00F73
:2001C8002275220074C025224017752D22752E00752F40752C007530017582C61204D080D7
:2001E800E375230C752823752900752A40752700752B017582C612045A22752D25752E003D
:20020800752F40752C017530027582C61204D074FFB52505758200805F7F008F068EF00547
:20022800F07C017D008006EC2CFCED33FDD5F0F7AA257B00EA5204EB5205EC4D6007743148
:200248002FF58280330E8E07BE080040D0E52630E0057582398021E52630E10575822A8011
:2002680017E52630E205758230800DE52630E30575822380037582FF22AF82E4FDFEEF7042
:200288001DC006C0057465C0E0741BC0E07480C0E0120144158115811581D005D006C006E8
:2002A800C0057408C0E0E4C0E07408C0E0E4C0E07408C0E0E4C0E07408C0E0E4C0E0740875
:2002C800C0E0E4C0E0747BC0E0741BC0E07480C0E0120144E58124F3F58190A12075F00799
:2002E800E41203F5D005D0067F00C007C006C005120202AC82D005D006D0078C03BCFF027A
:200308008003BB2A17902710E4F5F0C007C006C0051203F5D005D006D00780CEBB232AC0D2
:2003280006C005120202AC82D005D006BC2313902710E4F5F0C006C0051203F5D005D00639
:2003480080DD8D828E830203F4EBFA3395E0FCC007C006C005C004C003C002C002C0047401
:200368008BC0E0741BC0E07480C0E0120144E58124FBF581D002D003D004D005D0068D1173
:200388008E1290000AC004C003C002121392A882A983D002D003D004D007EA28F8EC39F94D
:2003A800E824D0FDE934FFFEC007C006C005C003120202AC82D003D005D006D007ECB503F0
:2003C8001B902710E4F5F0C007C006C005C0031203F5D003D005D006D00780CC0FC3EF6485
:2003E80080948550030202F28D828E8322AC82AD83AEF0FF780079007A007B00C3E89CE9C0
:200408009DEA9EEB9F500F08B8000909B900050ABA00E90B80E62220C7FDD2C530C3FDC2C9
:20042800C5C2C3228582C210C30280FB228582C2D2C410C30280FB2230C3FD85C282C2C3FE
:200448002230C3FDAFC2C2C3D2C410C30280FB8F8222AF82C00712041FD00774FE5FF58227
:2004680012042C85278212042C7F00AD2B7E001DBDFF011E8F037C00C3EB9DEC64808EF04E
:2004880063F08095F0501FEF2528FCE43529FDAE2A8C828D838EF0121B0FF582C007120412
:2004A8002CD0070F80C5AE2B7F001EBEFF011FEE2528FEEF3529FFAD2A8E828F838DF0127D
:2004C8001B0FF58212043522AF82C00712041FD0078F0674FE5EF582C00712042C852C82EA
:2004E80012043512041FD00774014FF58212042C7F00AD307E001DBDFF011E8F037C00C37D
:20050800EB9DEC64808EF063F08095F0502ED2C2EF252DFCE4352EFDAE2FC007C006C005E3
:20052800C004120440AB82D004D005D006D0078C828D838EF0EB1213770F80B6C2C2AE304C
:200548007F001EBEFF011FEE252DFEEF352EFFAD2FC007C006C005120449AC82D005D00624
:20056800D0078E828F838DF0EC12137722753123752831752900752A40752720752B01756D
:20058800823012045A753100752831752900752A40752721752B0175823012045A753100A5
:2005A800752831752900752A40752722752B0175823012045A2212011875822012012B123E
:2005C800131412134412132C12134812134EE4F532F533853C46853D4785424A85434B8566
:2005E800364E85374F85365085375114C39546F54874FF9547F54974FFC3954EF55274FFFD
:20060800954FF55374FFC39550F55474FF9551F55574FFC3954AF54C74FF954BF54D8548E7
:20062800EA8549FA854CEB854DFB8552EC8553FC8554ED8555FD1206D3120811748EC0E08B
:20064800741BC0E07480C0E012151B1581158115811212ED74012532FEE43533FF4E7003E4
:200668001207A312071F80D4221208C3853C46853D4774FFC39546F54874FF9547F54985BB
:2006880048EA8549FA120B7085424A85434B74FFC3954AF54C74FF954BF54D854CEB854D2E
:2006A800FB120E2B85364E85374F85365085375174FFC3954EF55274FF954FF55374FFC38B
:2006C8009550F55474FF9551F555221201C97494C0E0741BC0E07480C0E0120144158115D6
:2006E80081158175820012028185825A85835B1201C974AFC0E0741BC0E07480C0E0120116
:200708004415811581158175820012028185825C85835D1201C9229000557464F0E4A3F055
:20072800042532FEE43533FF4E701012077DE5828583F0900055F0E5F0A3F0900055E0FE4A
:20074800A3E0FFC3EE9432EF94005028900051E0FEA3E0FF74082EF58274073FF583751183
:200768001075120E121B2BE5828583F0900051F0E5F0A3F022752D58752E00752F40752C98
:20078800027530027582E01204D0AF587E00AC597D00EC4EF582ED4FF5832212089DE5823F
:2007A8008583F0900053F0E5F0A3F01201C9900053E0C0E0A3E0C0E074CAC0E0741BC0E08F
:2007C8007480C0E0120144E58124FBF581900053E0FEA3E0FF74102EFE740E3FFF90005197
:2007E800E0FCA3E0FDEEC39CF582EF9DF58375111075120E121B2BAE82AF838E568F578599
:20080800568285578312115A22E4F532F533C3E5329401E5336480948040F31201C974CDF8
:20082800C0E0741BC0E07480C0E01201441581158115811212DD1201C9758200120281AE1D
:2008480082AF83C007C0061201C9D006D007C007C006C006C0077401C0E0741CC0E0748073
:20086800C0E0120144E58124FBF581D006D007C007C006C006C0077401C0E0741CC0E074FE
:2008880080C0E012151BE58124FBF581D006D0078E828F8322752D62752E00752F40752CD6
:2008A800027530027582C01204D0AF627E00AC637D00EC4EF582ED4FF58322900057E4F08D
:2008C800A3F0900059F0A3F0F532F5331201C97420C0E0741CC0E07480C0E0120144158101
:2008E80015811581C3E5329432E5336480948040F31201C9E4F532F533C3E5329401E5334B
:200908006480948040F31201C97433C0E0741CC0E07480C0E0120144158115811581121280
:20092800DD1201C9746FC0E0741CC0E07480C0E01201441581158115811212DD7F00C0074F
:20094800C046C0477494C0E0741CC0E07480C0E012151BE58124FBF581D00774FFC39546F1
:20096800F54874FF9547F5498548EA8549FA900059E0FDA3E0FE4D6003020A2C900057E030
:20098800FDA3E0FE4D7027C0071201C9749AC0E0741CC0E07480C0E0120144158115811540
:2009A80081D007EF7006853A46853B477F01758201C007120281AD82AE83D007900057ED87
:2009C800F0EEA3F0BD0112BE000FE54624ECF546E54734FFF547020946900057E0FDA3E058
:2009E800FEBD0211BE000E74142546F546E43547F547020946900057E0FDA3E0FEBD030530
:200A0800BE00028003020946900059E02401F0A3E03400F0900057E4F0A3F085463A854796
:200A28003B020946900059E0FDA3E0FEBD0105BE00028003020AE2900057E0FDA3E0FE4D55
:200A48007022C0071201C974B2C0E0741CC0E07480C0E0120144158115811581D007853C1E
:200A680046853D47758201C007120281AD82AE83D007900057EDF0EEA3F0BD0112BE000FB2
:200A8800E54624ECF546E54734FFF547020946900057E0FDA3E0FEBD0211BE000E7414255E
:200AA80046F546E43547F547020946900057E0FDA3E0FEBD0305BE00028003020946900092
:200AC80059E02401F0A3E03400F0900057E4F0A3F085463C85473D020946900057E0FDA303
:200AE800E0FE4D7022C0071201C974C9C0E0741CC0E07480C0E0120144158115811581D004
:200B080007853E46853F47758201C007120281AD82AE83D007900057EDF0EEA3F0BD011212
:200B2800BE000FE54624ECF546E54734FFF547020946900057E0FDA3E0FEBD0211BE000E9D
:200B480074142546F546E43547F547020946900057E0FDA3E0FEBD0305BE0002800302091A
:200B68004685463E85473F2290005BE4F0A3F090005DF0A3F0F532F5331201C974E0C0E010
:200B8800741CC0E07480C0E0120144158115811581C3E5329432E5336480948040F312017A
:200BA800C9E4F532F533C3E5329401E5336480948040F31201C97433C0E0741CC0E0748038
:200BC800C0E01201441581158115811212DD1201C9746FC0E0741CC0E07480C0E0120144D9
:200BE8001581158115811212DD7F00C007C04AC04B7494C0E0741CC0E07480C0E012151B21
:200C0800E58124FBF581D00774FFC3954AF54C74FF954BF54D854CEB854DFB90005DE0FDBC
:200C2800A3E0FE4D6003020CDB90005BE0FDA3E0FE4D7027C0071201C974F2C0E0741CC06C
:200C4800E07480C0E0120144158115811581D007EF700685404A85414B7F01758201C00764
:200C6800120281AD82AE83D00790005BEDF0EEA3F0BD0112BE000FE54A24E2F54AE54B34E2
:200C8800FFF54B020BF390005BE0FDA3E0FEBD0211BE000E741E254AF54AE4354BF54B0242
:200CA8000BF390005BE0FDA3E0FEBD0305BE00028003020BF390005DE02401F0A3E0340044
:200CC800F090005BE4F0A3F07F00854A40854B41020BF390005DE0FDA3E0FEBD0105BE005F
:200CE800028003020D9890005BE0FDA3E0FE4D7027C0071201C974B2C0E0741CC0E0748006
:200D0800C0E0120144158115811581D007EF700685424A85434B7F01758201C007120281DE
:200D2800AD82AE83D00790005BEDF0EEA3F0BD0112BE000FE54A24E2F54AE54B34FFF54B77
:200D4800020BF390005BE0FDA3E0FEBD0211BE000E741E254AF54AE4354BF54B020BF39032
:200D6800005BE0FDA3E0FEBD0305BE00028003020BF390005DE02401F0A3E03400F0900091
:200D88005BE4F0A3F07F00854A42854B43020BF390005BE0FDA3E0FE4D7027C0071201C916
:200DA8007412C0E0741DC0E07480C0E0120144158115811581D007EF700685444A85454BC3
:200DC8007F01758201C007120281AD82AE83D00790005BEDF0EEA3F0BD0112BE000FE54AEB
:200DE80024E2F54AE54B34FFF54B020BF390005BE0FDA3E0FEBD0211BE000E741E254AF528
:200E08004AE4354BF54B020BF390005BE0FDA3E0FEBD0305BE00028003020BF3854A4485F3
:200E28004B452290005FE4F0A3F0F532F5331201C97434C0E0741DC0E07480C0E012014413
:200E4800158115811581C3E5329432E5336480948040F31201C9E4F532F533C3E532940167
:200E6800E5336480948040F31201C97433C0E0741CC0E07480C0E012014415811581158127
:200E88001212DD1201C9746FC0E0741CC0E07480C0E01201441581158115811212DD7F008D
:200EA800900061E4F0A3F0C007C04EC04F7494C0E0741CC0E07480C0E012151BE58124FBBB
:200EC800F581D00774FFC3954EF55274FF954FF55374FFC39550F55474FF9551F5558552E0
:200EE800EC8553FC8554ED8555FD900061E0FDA3E0FE4D6003020FC790005FE0FDA3E0FE69
:200F08004D702DC0071201C97447C0E0741DC0E07480C0E0120144158115811581D007EF3D
:200F2800700C85344E85354F8534508535517F01758201C007120281AD82AE83D00790006E
:200F48005FEDF0EEA3F0BD011DBE001AE54E24E2F54EE54F34FFF54F741E2550F550E4358D
:200F680051F551020EAF90005FE0FDA3E0FEBD021DBE001A741E254EF54EE4354FF54FE539
:200F88005024E2F550E55134FFF551020EAF90005FE0FDA3E0FEBD0305BE00028003020EDB
:200FA800AF900061E02401F0A3E03400F090005FE4F0A3F07F00854E34854F35020EAF90B9
:200FC8000061E0FDA3E0FEBD0105BE000280030210A190005FE0FDA3E0FE4D702DC0071281
:200FE80001C97447C0E0741DC0E07480C0E0120144158115811581D007EF700C85364E8516
:20100800374F8536508537517F01758201C007120281AD82AE83D00790005FEDF0EEA3F0D2
:20102800BD011DBE001AE54E24E2F54EE54F34FFF54F741E2550F550E43551F551020EAF13
:2010480090005FE0FDA3E0FEBD021DBE001A741E254EF54EE4354FF54FE55024E2F550E52E
:201068005134FFF551020EAF90005FE0FDA3E0FEBD0305BE00028003020EAF900061E024D6
:2010880001F0A3E03400F090005FE4F0A3F07F00854E36854F37020EAF900061E0FDA3E0B7
:2010A800FEBD0205BE0002800302115990005FE0FDA3E0FE4D702BC0071201C974C9C0E002
:2010C800741CC0E07480C0E0120144158115811581D007EF700C85384E85394F853850853F
:2010E8003951758201C007120281AD82AE83D00790005FEDF0EEA3F0BD0112BE000FE54EB6
:2011080024E2F54EE54F34FFF54F020EAF90005FE0FDA3E0FEBD0211BE000E741E254EF531
:201128004EE4354FF54F020EAF90005FE0FDA3E0FEBD0305BE00028003020EAF854E38854A
:201148004F3985365085375185364E85374F020EAF22AE82AF83900051E0FCA3E0FDECC3A4
:201168009EFEED9FFF900065EEF0EFA3F08E118F12855A82855B83C007C006121392AC8275
:20118800AD83D006D007EC253CFCED353DFD900067E0FAA3E0FBEAC39EF511EB9FF512850F
:2011A8005C82855D83C007C006C005C004121392AA82AB83D004D005D006D007EA2CF54616
:2011C800EB3DF5478E118F12855A82855B83C007C006C003C002121392AC82AD83D002D0D6
:2011E80003D006D007EC2536FCED3537FDEA2CF54EEB3DF54F8E118F12855A82855B83C015
:2012080007C006C003C002121392AC82AD83D002D003D006D007E536C39CFCE5379DFDEAF7
:201228002CF550EB3DF551900067EEF0EFA3F0C3E546953EE547953F4008853E46853F4753
:201248008011C3E53A9546E53B95474006853A46853B47C3E54E9538E54F95394008853820
:201268004E85394F8011C3E534954EE535954F400685344E85354FC3E5509538E55195399E
:2012880040088538508539518011C3E5349550E5359551400685345085355174FFC3954625
:2012A800F54874FF9547F54974FFC3954EF55274FF954FF55374FFC39550F55474FF9551A0
:2012C800F5558548EA8549FA8552EC8553FC8554ED8555FD22120202AF82BF2A028005121E
:2012E80012ED80F12290006374012532F0E43533A3F0900063E0FEA3E0FFC3E5329EE533E3
:2013080064808FF063F08095F040EF22AFA474CD5FF5A4AFBD74DF5FF5BD43A50F53A5204E
:201328007590202275D98175DAC275DBC275DCC275DDC275D84043E608D2AF2275E1272245
:2013480075CF93D2C62275D10375AA8043AB0122C0E0C0D010DF02800E75E90075F970050B
:0F13680032E4B53202053353D8C0D0D0D0E032D2
:201B65000A54797065206469676974733B20656E6420772F230020202020202563256325C0
:201B85006325632563002563000A7465737400506C6561736520656E7465722061206B7067
:201BA5002076616C75653A0A2000506C6561736520656E7465722061206B642076616C759F
:201BC500653A0A200025640043616C6962726174696F6E3A0A48656C6C6F20776F726C64C6
:201BE500210A3031325F3334355F3637383A0A61626320646566206768696A000D0A5468D5
:201C050065206465736972656420646972656374696F6E2069733A202564005275646465A6
:201C2500722043616C6962726174696F6E00676F206C6566743A20707265737320310A2002
:201C4500676F2072696768743A20707265737320320A5072657373202A20666F72206E65D7
:201C650078742073637265656E000A20636F6E6669726D3A20707265737320330A207072D5
:201C8500657373202A20746F20626567696E000D0A202575004E6F772063616C696272618F
:201CA50074696E67204D696E5F50570A004E6F772063616C6962726174696E672043656E0F
:201CC5005F5057004E6F772063616C6962726174696E67204D61785F505700416E676C65F2
:201CE5002043616C6962726174696F6E004E6F772063616C6962726174696E67204D696E3F
:201D05005F505720555020414E474C45004E6F772063616C6962726174696E67204D617852
:201D25005F505720444F574E20414E474C45005468727573742043616C6962726174696F15
:191D45006E004E6F772063616C6962726174696E67204D696E5F505700F9
:041D69000000000076
:06008000E478FFF6D8FD54
:20005E007904E94400601B7A01901D69786575AF00E493F2A308B8000205AFD9F4DAF2753B
:02007E00AFFFD2
:1B13770020F71130F6138883A88220F509F6A8837583002280FEF280F5F02275
:1D139200E5828511F0A4C582C0F08512F0A4D0F025F0C5838511F0A42583F5832202
:2013AF00C00F85810FC082058105810581E50F24FBF8A90F0909E6F70809E6F70809E6F7D8
:2013CF00A80F080886820886830886F0121B0FFAA3121B0FFBA3121B0FFF74012AFCE43BF8
:2013EF00FD8F06A80F080886820886830886F0EC121377A3ED121377A3EE1213778A828B76
:20140F00838FF0A80F08E6121377850F81D00F2285820C85830D85F00E75700C757100756D
:20142F007240850873850974850A75850B769013AF1215EDAE82AF83AB0CAC0DAD0E8B82DF
:20144F008C838DF0E41213778E828F8322C00F85810FE50F24F8FF8F76E50F24FBFF8F7024
:20146F00757100757240E50F24F8F886730886740886759013AF1215EDAE82AF83E50F246A
:1B148F00FBF886030886040886058B828C838DF0E41213778E828F83D00F2265
:2014AA00E511451260467A01E51125E0F511E512334012F512E5829511E583951240030AC7
:2014CA0080E6C3E51213F512E51113F511C3E5829511F5F0E58395124005F58385F082C37E
:0D14EA00E51213F512E51113F511DAE122F8
:200086007800E84400600A790175AF00E4F309D8FC7864E84400600C7901900001E4F0A304
:0400A600D8FCD9FAAF
:2014F700C00F85810F12012BD00F2285827385837485F075E4F570F571F57285107690140D
:20151700F70215EDC00F85810FE50F24FBFF8F76E4F570F571F572E50F24FBF88673088616
:0D153700740886759014F71215EDD00F2280
:20154400AF82C066C067C0681215518007C064C0658F8222158115811581056EE4B56E0228
:20156400056F22AF8274302FFF24C6500A74072FFF3000034307208F82021544E582FFC4AE
:20158400540FF582C007121567D007740F5FF582021567858211856912856A13856B1485C7
:2015A4006C15AA6D751620EA2AFAE515235401FF8A064EFAE5122512F512E51333F513E540
:2015C4001433F514E51533F515C3EA95114008EAC39511FA431201D516CD85126985136A88
:2015E40085146B85156C8A6D22858264858365857066857167857268E4F56EF56FAD73AE5C
:2016040074AF758D828E838FF0121B0FFC74012DF573E43EF5748F75ECFF7003021AF0BF95
:2016240025028003021AE8C201C202C203C204C205C206C207C2087577007578007CFFAAC6
:2016440073AB74AE758A828B838EF0121B0FFFA3AA82AB838A738B748E75BF25078F8212F4
:20166400154480998F7A74D0257A5026E57A24C64020BCFF12E57875F00AA4FD2F24D0F597
:201684007870C2D20280BEEC75F00AA42F24D0FC80B3BF2E07BCFFAD7C0080A98F05BD6186
:2016A40000400CED248540075307DFD2008002C200BF2002806DBF2B028063BF2D0280594A
:2016C400BF42028063BF43028068BF4403021892BF46030218A8BF4803021649BF49030240
:2016E4001892BF4A03021649BF4C028040BF4F03021899BF5003021827BF5302805CBF54E8
:2017040003021649BF550302189EBF58030218A3BF5A030216490218ACD201021649D2036F
:20172400021649D204021649D206021649D20702164930060CE57614FE8E768E018707804A
:2017440011E57624FEFE8E768E018705098706198D078F821215440218B5E57624FDFE8E44
:20176400768E01870309870509870619198B698D6A8E6B8B828D838EF0C004121AF7AD82E4
:20178400AE83D004BCFF028D0420012AC3ED95785024E578C39DF578AE788E031EEB601418
:2017A400758220C006C005C004121544D004D005D00680E68E788C06856982856A83856B05
:2017C400F0121B0FFCFF602F8E041EC374808CF063F08095F050208F82C006C0051215449D
:2017E400D005D006AA69AB6AAC6B0ABA00010B8A698B6A8C6B80C12001030218B5C3ED95D3
:201804007840030218B5E578C39DF578AE788E041EEC70030218B3758220C006121544D0F6
:201824000680EBE57624FDFC8C768C01870209870309870419198A698B6A8C6BAC6BBC8018
:201844000040047F438014BC600040047F50800BBC400040047F4980027F588F82C00712E5
:20186400154475823A121544758230121544758278121544D007BF4902800BBF5002800600
:20188400856A821215808569821215808023D20575770A801C757708801775770A80127581
:2018A4007710800DD20880098F8212154480028E7830085CE57624FCFE8E768E0187020977
:2018C40087030987040987061919198A698B6A8C6B8E6C75695E756A1D756B8085697B85A6
:2018E4006A7C856B7D7401257BFAE4357CFCAE7D8A698C6A8E6B857B82857C83857DF012DA
:201904001B0FFEFF70030216018F8212154480CCE577700302160175791C30062DE5761484
:20192400FC8C768C01E7FA3395E0FBFCFE8A698B6A8C6B8E6C200566AA697B007C007E00AE
:201944008A698B6A8C6B8E6C8054300721E57624FCFE8E768E018702098703098704098732
:20196400061919198A698B6A8C6B8E6C8030E57624FEFE8E768E01870409870619EE33958B
:20198400E0FBFA8C698E6A8B6B8A6C200510AA69AB6A7C007E008A698B6A8C6B8E6C300530
:2019A40022E56C30E71BC3E49569FAE4956AFBE4956BFCE4956CFE8A698B6A8C6B8E6C80E5
:2019C40002C205D209A9797E00756D00857782C006C001121597D001D00620090BE56DC429
:2019E400FCE7FB4CF7198002A76D0EB209E569456A456B456C70D289798E05E578700375D0
:201A04007801200224200121ED04FEAC78C3EE9C5015758220C006C005C004121544D00457
:201A2400D005D0061C80E68C7830050E75822DC005121544D00515788023ED602030030E27
:201A440075822BC005121544D0051578800F30040C758220C005121544D005157820012213
:201A6400AE788E041EC3ED9C502B3002047C3080027C208C82C006C005121544D005D00616
:201A840080E0C3ED95785008E578C39DF578800775780080028E78A9798D068E051EED60F4
:201AA40026B20920090A09E7C4540FFD8D6D80078705740F5DF56D856D82C006C001121589
:201AC40067D001D00680D4200103021601AE788E051EED7003021601758220C006121544CB
:131AE400D00680EB8F82121544021601856E82856F83220B
:0B1D5E003C4E4F20464C4F41543E00CD
:181AF700AA82AB83121B0F6003A380F8C3E5829AF582E5839BF58322EB
:0D00510075817D121B61E582600302004E87
:1C1B0F0020F71430F6148883A88220F507E6A88375830022E280F7E49322E022E5
:201B2B00C2D5E58330E70DD2D5E4C39582F582E49583F583E51230E70BE4C39511F511E4D7
:161B4B009512F5121214AA30D50BE4C39582F582E49583F583222B
:041B61007582002267
:00000001FF
