:040000000200513277
:01000B0032C2
:0100130032BA
:01001B0032B2
:0100230032AA
:01002B0032A2
:01003300329A
:01003B003292
:01004300328A
:03004B000213CDD0
:2000AA00E4F532F5337534D07535077536BE75370A7538AC75390D753AD0753B07753CBE01
:2000CA00753D0A753EAC753F0D75404075410B7542CA75430D754454754510755AE00200B6
:0100EA004EC7
:03004E000205C1E7
:2000EB0075B1677E007F011EBEFF011FEE4F70F7E5B130E7FB75B288227598507589207562
:20010B008DDCD28E438E10438780D29943A4012275FFDE75FFAD1200EB12010443E1044379
:20012B00E34022AF8210990280FB8F992210980280FB85998212012E85998222C00F858131
:20014B000FE50F24FBF886820886830886F0121B6CE5828583F045F070028062E50F24FB4F
:20016B00FF8F0BE50F24FBF8860808860908860A90000175F00012149490000175F000125B
:20018B001B6CAE827F00C3EF9E501FEF2401F582E43400F583E0FDBD0A0DEF2401F582E424
:2001AB003400F583740DF00F80DC752801752900752A007527008E2B7582C612045DD00F6D
:2001CB002275220074C025224017752D22752E00752F40752C007530017582C61204D380D1
:2001EB00E375230C752823752900752A40752700752B017582C612045D22752D25752E0037
:20020B00752F40752C017530027582C61204D374FFB52505758200805F7F008F068EF00541
:20022B00F07C017D008006EC2CFCED33FDD5F0F7AA257B00EA5204EB5205EC4D6007743145
:20024B002FF58280330E8E07BE080040D0E52630E0057582398021E52630E10575822A800E
:20026B0017E52630E205758230800DE52630E30575822380037582FF22AF82E4FDFEEF703F
:20028B001DC006C00574DAC0E0741BC0E07480C0E0120147158115811581D005D006C0066D
:2002AB00C0057408C0E0E4C0E07408C0E0E4C0E07408C0E0E4C0E07408C0E0E4C0E0740872
:2002CB00C0E0E4C0E074F0C0E0741BC0E07480C0E0120147E58124F3F58190A12075F0071E
:2002EB00E41203F8D005D0067F00C007C006C005120205AC82D005D006D0078C03BCFF0271
:20030B008003BB2A17902710E4F5F0C007C006C0051203F8D005D006D00780CEBB232AC0CC
:20032B0006C005120205AC82D005D006BC2313902710E4F5F0C006C0051203F8D005D00630
:20034B0080DD8D828E830203F7EBFA3395E0FCC007C006C005C004C003C002C002C00474FB
:20036B0000C0E0741CC0E07480C0E0120147E58124FBF581D002D003D004D005D0068D11F7
:20038B008E1290000AC004C003C002121407A882A983D002D003D004D007EA28F8EC39F9D4
:2003AB00E824D0FDE934FFFEC007C006C005C003120205AC82D003D005D006D007ECB503EA
:2003CB001B902710E4F5F0C007C006C005C0031203F8D003D005D006D00780CC0FC3EF647F
:2003EB0080948550030202F58D828E8322AC82AD83AEF0FF780079007A007B00C3E89CE9BA
:20040B009DEA9EEB9F500F08B8000909B900050ABA00E90B80E62220C7FDD2C530C3FDC2C6
:20042B00C5C2C3228582C210C30280FB228582C2D2C410C30280FB2230C3FD85C282C2C3FB
:20044B002230C3FDAFC2C2C3D2C410C30280FB8F8222AF82C007120422D00774FE5FF58221
:20046B0012042F85278212042F7F00AD2B7E001DBDFF011E8F037C00C3EB9DEC64808EF045
:20048B0063F08095F0501FEF2528FCE43529FDAE2A8C828D838EF0121B84F582C00712049A
:2004AB002FD0070F80C5AE2B7F001EBEFF011FEE2528FEEF3529FFAD2A8E828F838DF01277
:2004CB001B84F58212043822AF82C007120422D0078F0674FE5EF582C00712042F852C8269
:2004EB00120438120422D00774014FF58212042F7F00AD307E001DBDFF011E8F037C00C371
:20050B00EB9DEC64808EF063F08095F0502ED2C2EF252DFCE4352EFDAE2FC007C006C005E0
:20052B00C004120443AB82D004D005D006D0078C828D838EF0EB1213EC0F80B6C2C2AE30D1
:20054B007F001EBEFF011FEE252DFEEF352EFFAD2FC007C006C00512044CAC82D005D0061E
:20056B00D0078E828F838DF0EC1213EC22753123752831752900752A40752720752B0175F5
:20058B00823012045D753100752831752900752A40752721752B0175823012045D7531009C
:2005AB00752831752900752A40752722752B0175823012045D2212011B75822012012E1232
:2005CB0013891213B91213A11213BD1213C3E4F532F533853C46853D4785424A85434B851A
:2005EB00364E85374F85365085375114C39546F54874FF9547F54974FFC3954EF55274FFFA
:20060B00954FF55374FFC39550F55474FF9551F55574FFC3954AF54C74FF954BF54D8548E4
:20062B00EA8549FA854CEB854DFB8552EC8553FC8554ED8555FD1206E712088B1213628590
:20064B003282853383A3751102751200121BA0E5828583F045F0700312081D8532828533F2
:20066B0083A3751104751200121BA0E5828583F045F070C812073380C32212093D853C468F
:20068B00853D4774FFC39546F54874FF9547F5498548EA8549FA120BEA85424A85434B744D
:2006AB00FFC3954AF54C74FF954BF54D854CEB854DFB120EA585364E85374F85365085378F
:2006CB005174FFC3954EF55274FF954FF55374FFC39550F55474FF9551F555221201CC7443
:2006EB0003C0E0741CC0E07480C0E012014715811581158175820012028485825B85835C17
:20070B001201CC741EC0E0741CC0E07480C0E0120147158115811581758200120284858247
:20072B005D85835E1201CC229000557428F0E4A3F090005704F0E4A3F0900055E0FEA3E06A
:20074B00FFC3EE9432EF940040030207F61207F7AE82AF83900055EEF0EFA3F07558517509
:20076B002858752900752A40752700752B01855A82C007C00612045DD006D007C007C00699
:20078B00C006C0077439C0E0741CC0E07480C0E0121590E58124FBF581D006D007C3EE940C
:2007AB0032EF94005093900057E0FEA3E0FFBE0105BF00028003020744900051E0FEA3E0B8
:2007CB00FF74082EF58274073FF58375111075120E121BA0E5828583F0900051F0E5F0A31C
:2007EB00F0900057E4F0A3F002074422752D58752E00752F40752C02753002855A821204FF
:20080B00D3AF587E00AC597D00EC4EF582ED4FF58322120917E5828583F0900053F0E5F033
:20082B00A3F01201CC900053E0C0E0A3E0C0E0743EC0E0741CC0E07480C0E0120147E581DF
:20084B0024FBF581900053E0FEA3E0FF74102EFE740E3FFF900051E0FCA3E0FDEEC39CF5C6
:20086B0082EF9DF58375111075120E121BA0AE82AF838E568F578556828557831211D422EE
:20088B00E4F532F533C3E5329401E5336480948040F31201CC7441C0E0741CC0E07480C050
:2008AB00E01201471581158115811213521201CC758200120284AE82AF83C007C00612014A
:2008CB00CCD006D007C007C006C006C0077475C0E0741CC0E07480C0E0120147E58124FB4E
:2008EB00F581D006D007C007C006C006C0077475C0E0741CC0E07480C0E0121590E5812422
:20090B00FBF581D006D0078E828F8322752D63752E00752F40752C027530027582C01204C7
:20092B00D3AF637E00AC647D00EC4EF582ED4FF58322900059E4F0A3F090005BF0A3F0F582
:20094B0032F5331201CC7494C0E0741CC0E07480C0E0120147158115811581C3E53294322B
:20096B00E5336480948040F31201CCE4F532F533C3E5329401E5336480948040F31201CC86
:20098B0074A7C0E0741CC0E07480C0E01201471581158115811213521201CC74E3C0E074F0
:2009AB001CC0E07480C0E01201471581158115811213527F00C007C046C0477408C0E07466
:2009CB001DC0E07480C0E0121590E58124FBF581D00774FFC39546F54874FF9547F54985D2
:2009EB0048EA8549FA90005BE0FDA3E0FE4D6003020AA6900059E0FDA3E0FE4D7027C00755
:200A0B001201CC740EC0E0741DC0E07480C0E0120147158115811581D007EF7006853A46A8
:200A2B00853B477F01758201C007120284AD82AE83D007900059EDF0EEA3F0BD0112BE00C1
:200A4B000FE54624ECF546E54734FFF5470209C0900059E0FDA3E0FEBD0211BE000E741435
:200A6B002546F546E43547F5470209C0900059E0FDA3E0FEBD0305BE000280030209C090B4
:200A8B00005BE02401F0A3E03400F0900059E4F0A3F085463A85473B0209C090005BE0FD65
:200AAB00A3E0FEBD0105BE00028003020B5C900059E0FDA3E0FE4D7022C0071201CC7426D5
:200ACB00C0E0741DC0E07480C0E0120147158115811581D007853C46853D47758201C007E4
:200AEB00120284AD82AE83D007900059EDF0EEA3F0BD0112BE000FE54624ECF546E5473462
:200B0B00FFF5470209C0900059E0FDA3E0FEBD0211BE000E74142546F546E43547F5470215
:200B2B0009C0900059E0FDA3E0FEBD0305BE000280030209C090005BE02401F0A3E0340030
:200B4B00F0900059E4F0A3F085463C85473D0209C0900059E0FDA3E0FE4D7022C00712016F
:200B6B00CC743DC0E0741DC0E07480C0E0120147158115811581D007853E46853F4775828A
:200B8B0001C007120284AD82AE83D007900059EDF0EEA3F0BD0112BE000FE54624ECF54659
:200BAB00E54734FFF5470209C0900059E0FDA3E0FEBD0211BE000E74142546F546E4354753
:200BCB00F5470209C0900059E0FDA3E0FEBD0305BE000280030209C085463E85473F229023
:200BEB00005DE4F0A3F090005FF0A3F0F532F5331201CC7454C0E0741DC0E07480C0E01247
:200C0B000147158115811581C3E5329432E5336480948040F31201CCE4F532F533C3E532F0
:200C2B009401E5336480948040F31201CC74A7C0E0741CC0E07480C0E012014715811581ED
:200C4B0015811213521201CC74E3C0E0741CC0E07480C0E01201471581158115811213524F
:200C6B007F00C007C04AC04B7408C0E0741DC0E07480C0E0121590E58124FBF581D0077430
:200C8B00FFC3954AF54C74FF954BF54D854CEB854DFB90005FE0FDA3E0FE4D6003020D55E8
:200CAB0090005DE0FDA3E0FE4D7027C0071201CC7466C0E0741DC0E07480C0E012014715A6
:200CCB008115811581D007EF700685404A85414B7F01758201C007120284AD82AE83D007F2
:200CEB0090005DEDF0EEA3F0BD0112BE000FE54A24E2F54AE54B34FFF54B020C6D90005D82
:200D0B00E0FDA3E0FEBD0211BE000E741E254AF54AE4354BF54B020C6D90005DE0FDA3E022
:200D2B00FEBD0305BE00028003020C6D90005FE02401F0A3E03400F090005DE4F0A3F07FC9
:200D4B0000854A40854B41020C6D90005FE0FDA3E0FEBD0105BE00028003020E1290005D8B
:200D6B00E0FDA3E0FE4D7027C0071201CC7426C0E0741DC0E07480C0E012014715811581FB
:200D8B001581D007EF700685424A85434B7F01758201C007120284AD82AE83D00790005D57
:200DAB00EDF0EEA3F0BD0112BE000FE54A24E2F54AE54B34FFF54B020C6D90005DE0FDA32E
:200DCB00E0FEBD0211BE000E741E254AF54AE4354BF54B020C6D90005DE0FDA3E0FEBD0324
:200DEB0005BE00028003020C6D90005FE02401F0A3E03400F090005DE4F0A3F07F00854AF8
:200E0B0042854B43020C6D90005DE0FDA3E0FE4D7027C0071201CC7486C0E0741DC0E074E3
:200E2B0080C0E0120147158115811581D007EF700685444A85454B7F01758201C0071202B4
:200E4B0084AD82AE83D00790005DEDF0EEA3F0BD0112BE000FE54A24E2F54AE54B34FFF518
:200E6B004B020C6D90005DE0FDA3E0FEBD0211BE000E741E254AF54AE4354BF54B020C6D5B
:200E8B0090005DE0FDA3E0FEBD0305BE00028003020C6D854A44854B4522900061E4F0A3C7
:200EAB00F0F532F5331201CC74A8C0E0741DC0E07480C0E0120147158115811581C3E53292
:200ECB009432E5336480948040F31201CCE4F532F533C3E5329401E5336480948040F31228
:200EEB0001CC74A7C0E0741CC0E07480C0E01201471581158115811213521201CC74E3C012
:200F0B00E0741CC0E07480C0E01201471581158115811213527F00900063E4F0A3F0C007EF
:200F2B00C04EC04F7408C0E0741DC0E07480C0E0121590E58124FBF581D00774FFC3954E06
:200F4B00F55274FF954FF55374FFC39550F55474FF9551F5558552EC8553FC8554ED855562
:200F6B00FD900063E0FDA3E0FE4D6003021041900061E0FDA3E0FE4D702DC0071201CC74C2
:200F8B00BBC0E0741DC0E07480C0E0120147158115811581D007EF700C85344E85354F8533
:200FAB0034508535517F01758201C007120284AD82AE83D007900061EDF0EEA3F0BD011D5F
:200FCB00BE001AE54E24E2F54EE54F34FFF54F741E2550F550E43551F551020F29900061E0
:200FEB00E0FDA3E0FEBD021DBE001A741E254EF54EE4354FF54FE55024E2F550E55134FFF7
:20100B00F551020F29900061E0FDA3E0FEBD0305BE00028003020F29900063E02401F0A329
:20102B00E03400F0900061E4F0A3F07F00854E34854F35020F29900063E0FDA3E0FEBD0171
:20104B0005BE0002800302111B900061E0FDA3E0FE4D702DC0071201CC74BBC0E0741DC010
:20106B00E07480C0E0120147158115811581D007EF700C85364E85374F8536508537517FE8
:20108B0001758201C007120284AD82AE83D007900061EDF0EEA3F0BD011DBE001AE54E245D
:2010AB00E2F54EE54F34FFF54F741E2550F550E43551F551020F29900061E0FDA3E0FEBD13
:2010CB00021DBE001A741E254EF54EE4354FF54FE55024E2F550E55134FFF551020F299021
:2010EB000061E0FDA3E0FEBD0305BE00028003020F29900063E02401F0A3E03400F09000C5
:20110B0061E4F0A3F07F00854E36854F37020F29900063E0FDA3E0FEBD0205BE00028003D7
:20112B000211D3900061E0FDA3E0FE4D702BC0071201CC743DC0E0741DC0E07480C0E012B9
:20114B000147158115811581D007EF700C85384E85394F853850853951758201C007120231
:20116B0084AD82AE83D007900061EDF0EEA3F0BD0112BE000FE54E24E2F54EE54F34FFF5E5
:20118B004F020F29900061E0FDA3E0FEBD0211BE000E741E254EF54EE4354FF54F020F29A2
:2011AB00900061E0FDA3E0FEBD0305BE00028003020F29854E38854F3985365085375185DE
:2011CB00364E85374F020F2922AE82AF83C374AC9E740D9F4008EE9464EF9400500990007C
:2011EB0067E4F0A3F08033C374089E74079F50138E048F059000677410C39CF0740E9DA357
:20120B00F080178E118F1290FFFF121407E5828583F0900067F0E5F0A3F0900067E0FEA31B
:20122B00E0FF8E118F12855B82855C83C007C006121407AC82AD83D006D007900069E0FA26
:20124B00A3E0FBEAC39EF511EB9FF512855D82855E83C007C006C005C004121407AA82AB3F
:20126B0083D004D005D006D007ECC39AFCED9BFD8C028D03EA253CF546EB353DF547C3E4DC
:20128B009CFCE49DFDEC2536F54EED3537F54FEA2536F550EB3537F551900069EEF0EFA376
:2012AB00F0C3E546953EE547953F4008853E46853F478011C3E53A9546E53B954740068501
:2012CB003A46853B47C3E54E9538E54F9539400885384E85394F8011C3E534954EE5359558
:2012EB004F400685344E85354FC3E5509538E551953940088538508539518011C3E534950F
:20130B0050E5359551400685345085355174FFC39546F54874FF9547F54974FFC3954EF52F
:20132B005274FF954FF55374FFC39550F55474FF9551F5558548EA8549FA8552EC8553FC94
:20134B008554ED8555FD22120205AF82BF2A02800512136280F12290006574012532F0E45A
:20136B003533A3F0900065E0FEA3E0FFC3E5329EE53364808FF063F08095F040EF22AFA423
:20138B0074CD5FF5A4AFBD74DF5FF5BD43A50F53A5207590202275D98175DAC275DBC2757C
:2013AB00DCC275DDC275D84043E608D2AF2275E1272275CF93D2C62275D10375AA8043AB09
:2013CB000122C0E0C0D010DF02800E75E90075F9700532E4B53202053353D8C0D0D0D0E07D
:0113EB0032CF
:201BDA000A54797065206469676974733B20656E6420772F2300202020202025632563254B
:201BFA00632563256300256300506C6561736520656E7465722061206B702076616C75657F
:201C1A003A0A2000506C6561736520656E7465722061206B642076616C75653A0A20000D90
:201C3A000A25750025640043616C6962726174696F6E3A0A48656C6C6F20776F726C642154
:201C5A000A3031325F3334355F3637383A0A61626320646566206768696A000D0A5468651B
:201C7A00206465736972656420646972656374696F6E2069733A2025640052756464657224
:201C9A002043616C6962726174696F6E00676F206C6566743A20707265737320310A206798
:201CBA006F2072696768743A20707265737320320A5072657373202A20666F72206E657851
:201CDA00742073637265656E000A20636F6E6669726D3A20707265737320330A2070726573
:201CFA007373202A20746F20626567696E000D0A202575004E6F772063616C69627261740B
:201D1A00696E67204D696E5F50570A004E6F772063616C6962726174696E672043656E5FAE
:201D3A005057004E6F772063616C6962726174696E67204D61785F505700416E676C6520BB
:201D5A0043616C6962726174696F6E004E6F772063616C6962726174696E67204D696E5F8A
:201D7A00505720555020414E474C45004E6F772063616C6962726174696E67204D61785FDD
:201D9A00505720444F574E20414E474C45005468727573742043616C6962726174696F6E91
:181DBA00004E6F772063616C6962726174696E67204D696E5F505700F3
:041DDD000000000002
:06008000E478FFF6D8FD54
:20005E007904E94400601B7A01901DDD786775AF00E493F2A308B8000205AFD9F4DAF275C5
:02007E00AFFFD2
:1B13EC0020F71130F6138883A88220F509F6A8837583002280FEF280F5F02200
:1D140700E5828511F0A4C582C0F08512F0A4D0F025F0C5838511F0A42583F583228C
:20142400C00F85810FC082058105810581E50F24FBF8A90F0909E6F70809E6F70809E6F762
:20144400A80F080886820886830886F0121B84FAA3121B84FBA3121B84FF74012AFCE43B23
:20146400FD8F06A80F080886820886830886F0EC1213ECA3ED1213ECA3EE1213EC8A828BA1
:20148400838FF0A80F08E61213EC850F81D00F2285820C85830D85F00E75710C7572007581
:2014A4007340850874850975850A76850B77901424121662AE82AF83AB0CAC0DAD0E8B8279
:2014C4008C838DF0E41213EC8E828F8322C00F85810FE50F24F8FF8F77E50F24FBFF8F7138
:2014E400757200757340E50F24F8F88674088675088676901424121662AE82AF83E50F2404
:1B150400FBF886030886040886058B828C838DF0E41213EC8E828F83D00F227A
:20151F00E511451260467A01E51125E0F511E512334012F512E5829511E583951240030A51
:20153F0080E6C3E51213F512E51113F511C3E5829511F5F0E58395124005F58385F082C308
:0D155F00E51213F512E51113F511DAE12282
:200086007800E84400600A790175AF00E4F309D8FC7866E84400600C7901900001E4F0A302
:0400A600D8FCD9FAAF
:20156C00C00F85810F12012ED00F2285827485837585F076E4F571F572F57385107790158C
:20158C006C021662C00F85810FE50F24FBFF8F77E4F571F572F573E50F24FBF886740886B1
:0D15AC007508867690156C121662D00F221D
:2015B900AF82C067C068C0691215C68007C065C0668F8222158115811581056FE4B56F0237
:2015D900057022AF8274302FFF24C6500A74072FFF3000034307208F820215B9E582FFC4C3
:2015F900540FF582C0071215DCD007740F5FF5820215DC858211856A12856B13856C148565
:201619006D15AA6E751620EA2AFAE515235401FF8A064EFAE5122512F512E51333F513E5C8
:201639001433F514E51533F515C3EA95114008EAC39511FA431201D516CD85126A85136B10
:2016590085146C85156D8A6E22858265858366857167857268857369E4F56FF570AD74AED8
:2016790075AF768D828E838FF0121B84FC74012DF574E43EF5758F76ECFF7003021B65BF30
:2016990025028003021B5DC201C202C203C204C205C206C207C2087578007579007CFFAAD9
:2016B90074AB75AE768A828B838EF0121B84FFA3AA82AB838A748B758E76BF25078F821204
:2016D90015B980998F7B74D0257B5026E57B24C64020BCFF12E57975F00AA4FD2F24D0F5A9
:2016F9007970C2D20280BEEC75F00AA42F24D0FC80B3BF2E07BCFFAD7C0080A98F05BD6110
:2017190000400CED248540075307DFD2008002C200BF2002806DBF2B028063BF2D028059D4
:20173900BF42028063BF43028068BF4403021907BF460302191DBF48030216BEBF49030269
:201759001907BF4A030216BEBF4C028040BF4F0302190EBF500302189CBF5302805CBF549C
:20177900030216BEBF5503021913BF5803021918BF5A030216BE021921D2010216BED20339
:201799000216BED2040216BED2060216BED2070216BE30060CE57714FE8E778E01870780FF
:2017B90011E57724FEFE8E778E018705098706198D078F821215B902192AE57724FDFE8EE1
:2017D900778E01870309870509870619198B6A8D6B8E6C8B828D838EF0C004121B6CAD82F5
:2017F900AE83D004BCFF028D0420012AC3ED95795024E579C39DF579AE798E031EEB60149F
:20181900758220C006C005C0041215B9D004D005D00680E68E798C06856A82856B83856C16
:20183900F0121B84FCFF602F8E041EC374808CF063F08095F050208F82C006C0051215B93D
:20185900D005D006AA6AAB6BAC6C0ABA00010B8A6A8B6B8C6C80C120010302192AC3ED95E1
:2018790079400302192AE579C39DF579AE798E041EEC7003021928758220C0061215B9D01C
:201899000680EBE57724FDFC8C778C01870209870309870419198A6A8B6B8C6CAC6CBC809D
:2018B9000040047F438014BC600040047F50800BBC400040047F4980027F588F82C0071270
:2018D90015B975823A1215B97582301215B97582781215B9D007BF4902800BBF50028006B7
:2018F900856B821215F5856A821215F58023D20575780A801C757808801775780A8012751D
:201919007810800DD20880098F821215B980028E7930085CE57724FCFE8E778E0187020988
:2019390087030987040987061919198A6A8B6B8C6C8E6D756AD2756B1D756C80856A7C85B3
:201959006B7D856C7E7401257CFAE4357DFCAE7E8A6A8C6B8E6C857C82857D83857EF01257
:201979001B84FEFF70030216768F821215B980CCE5787003021676757A1C30062DE5771438
:20199900FC8C778C01E7FA3395E0FBFCFE8A6A8B6B8C6C8E6D200566AA6A7B007C007E0033
:2019B9008A6A8B6B8C6C8E6D8054300721E57724FCFE8E778E0187020987030987040987B7
:2019D900061919198A6A8B6B8C6C8E6D8030E57724FEFE8E778E01870409870619EE339510
:2019F900E0FBFA8C6A8E6B8B6C8A6D200510AA6AAB6B7C007E008A6A8B6B8C6C8E6D3005B1
:201A190022E56D30E71BC3E4956AFAE4956BFBE4956CFCE4956DFE8A6A8B6B8C6C8E6D8066
:201A390002C205D209A97A7E00756E00857882C006C00112160CD001D00620090BE56EC439
:201A5900FCE7FB4CF7198002A76E0EB209E56A456B456C456D70D2897A8E05E57970037553
:201A79007901200224200121ED04FEAC79C3EE9C5015758220C006C005C0041215B9D0046B
:201A9900D005D0061C80E68C7930050E75822DC0051215B9D00515798023ED602030030E3B
:201AB90075822BC0051215B9D0051579800F30040C758220C0051215B9D0051579200122B2
:201AD900AE798E041EC3ED9C502B3002047C3080027C208C82C006C0051215B9D005D0062B
:201AF90080E0C3ED95795008E579C39DF579800775790080028E79A97A8D068E051EED6079
:201B190026B20920090A09E7C4540FFD8D6E80078705740F5DF56E856E82C006C001121510
:201B3900DCD001D00680D4200103021676AE798E051EED7003021676758220C0061215B980
:131B5900D00680EB8F821215B9021676856F8285708322A9
:0B1DD2003C4E4F20464C4F41543E0059
:181B6C00AA82AB83121B846003A380F8C3E5829AF582E5839BF5832200
:0D00510075817E121BD6E582600302004E11
:1C1B840020F71430F6148883A88220F507E6A88375830022E280F7E49322E02270
:201BA000C2D5E58330E70DD2D5E4C39582F582E49583F583E51230E70BE4C39511F511E462
:161BC0009512F51212151F30D50BE4C39582F582E49583F5832240
:041BD60075820022F2
:00000001FF
