:040000000200513277
:01000B0032C2
:0100130032BA
:01001B0032B2
:0100230032AA
:01002B0032A2
:01003300329A
:01003B003292
:01004300328A
:03004B000205EAC1
:0800AA00E4F518F51902004EFF
:03004E0002058820
:2000B20075B1677E007F011EBEFF011FEE4F70F7E5B130E7FB75B28822759850758920759B
:2000D2008DDCD28E438E10438780D29943A4012275FFDE75FFAD1200B21200CB43E1044326
:2000F200E34022AF8210990280FB8F992210980280FB8599821200F585998222C01A85819A
:200112001AE51A24FBF886820886830886F0120CEFE5828583F045F070028062E51A24FBF3
:20013200FF8F25E51A24FBF8862208862308862490000175F0001206B190000175F0001212
:200152000CEFAE827F00C3EF9E501FEF2401F582E43400F583E0FDBD0A0DEF2401F582E4E9
:200172003400F583740DF00F80DC750E01750F00751000750D008E117582C6120424D01A56
:200192002275080074C0250840177513087514007515407512007516017582C612049A8013
:2001B200E375090C750E09750F00751040750D007511017582C61204242275130B751400AD
:2001D2007515407512017516027582C612049A74FFB50B05758200805F7F008F068EF0051C
:2001F200F07C017D008006EC2CFCED33FDD5F0F7AA0B7B00EA5204EB5205EC4D6007743199
:200212002FF58280330E8E07BE080040D0E50C30E0057582398021E50C30E10575822A807B
:2002320017E50C30E205758230800DE50C30E30575822380037582FF22AF82E4FDFEEF70AC
:200252001DC006C0057427C0E0740DC0E07480C0E012010E158115811581D005D006C006A0
:20027200C0057408C0E0E4C0E07408C0E0E4C0E07408C0E0E4C0E07408C0E0E4C0E07408AB
:20029200C0E0E4C0E0743DC0E0740DC0E07480C0E012010EE58124F3F58190A12075F00751
:2002B200E41203BFD005D0067F00C007C006C0051201CCAC82D005D006D0078C03BCFF021D
:2002D2008003BB2A17902710E4F5F0C007C006C0051203BFD005D006D00780CEBB232AC03F
:2002F20006C0051201CCAC82D005D006BC2313902710E4F5F0C006C0051203BFD005D006DD
:2003120080DD8D828E830203BEEBFA3395E0FCC007C006C005C004C003C002C002C004746D
:200332004DC0E0740DC0E07480C0E012010EE58124FBF581D002D003D004D005D0068D43F9
:200352008E4490000AC004C003C002120624A882A983D002D003D004D007EA28F8EC39F9CC
:20037200E824D0FDE934FFFEC007C006C005C0031201CCAC82D003D005D006D007ECB5035D
:200392001B902710E4F5F0C007C006C005C0031203BFD003D005D006D00780CC0FC3EF64F1
:2003B20080948550030202BC8D828E8322AC82AD83AEF0FF780079007A007B00C3E89CE92C
:2003D2009DEA9EEB9F500F08B8000909B900050ABA00E90B80E62220C7FDD2C530C3FDC200
:2003F200C5C2C3228582C210C30280FB228582C2D2C410C30280FB2230C3FD85C282C2C335
:200412002230C3FDAFC2C2C3D2C410C30280FB8F8222AF82C0071203E9D00774FE5FF58294
:200432001203F6850D821203F67F00AD117E001DBDFF011E8F037C00C3EB9DEC64808EF026
:2004520063F08095F0501FEF250EFCE4350FFDAE108C828D838EF0120D07F582C0071203AD
:20047200F6D0070F80C5AE117F001EBEFF011FEE250EFEEF350FFFAD108E828F838DF01251
:200492000D07F5821203FF22AF82C0071203E9D0078F0674FE5EF582C0071203F6851282F5
:2004B2001203FF1203E9D00774014FF5821203F67F00AD167E001DBDFF011E8F037C00C372
:2004D200EB9DEC64808EF063F08095F0502ED2C2EF2513FCE43514FDAE15C007C006C00568
:2004F200C00412040AAB82D004D005D006D0078C828D838EF0EB1206090F80B6C2C2AE164E
:200512007F001EBEFF011FEE2513FEEF3514FFAD15C007C006C005120413AC82D005D006DE
:20053200D0078E828F838DF0EC12060922751723750E17750F00751040750D2075110175D4
:200552008230120424751700750E17750F00751040750D2175110175823012042475170017
:20057200750E17750F00751040750D22751101758230120424221200E27582201200F512B4
:2005920005A61205D61205BE1205DA1205E0E4F518F51922AFA474CD5FF5A4AFBD74DF5F29
:2005B200F5BD43A50F53A5207590202275D98175DAC275DBC275DCC275DDC275D84043E652
:2005D20008D2AF2275E1272275CF93D2C62275D10375AA8043AB0122C0E0C0D010DF028094
:1705F2000E75E90075F9700518E4B51802051953D8C0D0D0D0E0324D
:200D27000A54797065206469676974733B20656E6420772F2300202020202025632563250C
:090D4700632563256300256300A8
:06008000E478FFF6D8FD54
:20005E007900E94400601B7A00900D5B785175AF00E493F2A308B8000205AFD9F4DAF27572
:02007E00AFFFD2
:1B06090020F71130F6138883A88220F509F6A8837583002280FEF280F5F022F0
:1D062400E5828543F0A4C582C0F08544F0A4D0F025F0C5838543F0A42583F58322E7
:20064100C01A85811AC082058105810581E51A24FBF8A91A0909E6F70809E6F70809E6F727
:20066100A81A080886820886830886F0120D07FAA3120D07FBA3120D07FF74012AFCE43BAA
:20068100FD8F06A81A080886820886830886F0EC120609A3ED120609A3EE1206098A828B57
:2006A100838FF0A81A08E6120609851A81D01A2285822685832785F0287535267536007551
:2006C100374085223885233985243A85253B9006411207E5AE82AF83AB26AC27AD288B825D
:2006E1008C838DF0E41206098E828F8322C01A85811AE51A24F8FF8F3BE51A24FBFF8F3565
:20070100753600753740E51A24F8F8863808863908863A9006411207E5AE82AF83E51A2487
:1B072100FBF886030886040886058B828C838DF0E41206098E828F83D01A2250
:200086007800E84400600A790175AF00E4F309D8FC7850E84400600C7901900001E4F0A318
:0400A600D8FCD9FAAF
:20073C00AF82C02BC02CC02D1207498007C029C02A8F82221581158115810533E4B53302F1
:20075C00053422AF8274302FFF24C6500A74072FFF3000034307208F8202073CE582FFC415
:20077C00540FF582C00712075FD007740F5FF58202075F858243852E44852F4585304685F2
:20079C003147AA32754820EA2AFAE547235401FF8A064EFAE5442544F544E54533F545E53C
:2007BC004633F546E54733F547C3EA95434008EAC39543FA434401D548CD85442E85452F20
:2007DC008546308547318A322285822985832A85352B85362C85372DE4F533F534AD38AE48
:2007FC0039AF3A8D828E838FF0120D07FC74012DF538E43EF5398F3AECFF7003020CE8BFFF
:20081C0025028003020CE0C201C202C203C204C205C206C207C208753C00753D007CFFAA68
:20083C0038AB39AE3A8A828B838EF0120D07FFA3AA82AB838A388B398E3ABF25078F821282
:20085C00073C80998F3F74D0253F5026E53F24C64020BCFF12E53D75F00AA4FD2F24D0F5AF
:20087C003D70C2D20280BEEC75F00AA42F24D0FC80B3BF2E07BCFFAD7C0080A98F05BD61D7
:20089C0000400CED248540075307DFD2008002C200BF2002806DBF2B028063BF2D02805960
:2008BC00BF42028063BF43028068BF4403020A8ABF4603020AA0BF4803020841BF49030298
:2008DC000A8ABF4A03020841BF4C028040BF4F03020A91BF5003020A1FBF5302805CBF5456
:2008FC0003020841BF5503020A96BF5803020A9BBF5A03020841020AA4D201020841D2030A
:20091C00020841D204020841D206020841D20702084130060CE53B14FE8E3B8E018707802E
:20093C0011E53B24FEFE8E3B8E018705098706198D078F8212073C020AADE53B24FDFE8E37
:20095C003B8E01870309870509870619198B2E8D2F8E308B828D838EF0C004120CEFAD82FC
:20097C00AE83D004BCFF028D0420012AC3ED953D5024E53DC39DF53DAE3D8E031EEB60141A
:20099C00758220C006C005C00412073CD004D005D00680E68E3D8C06852E82852F8385301D
:2009BC00F0120D07FCFF602F8E041EC374808CF063F08095F050208F82C006C00512073CDF
:2009DC00D005D006AA2EAB2FAC300ABA00010B8A2E8B2F8C3080C1200103020AADC3ED9561
:2009FC003D4003020AADE53DC39DF53DAE3D8E041EEC7003020AAB758220C00612073CD03B
:200A1C000680EBE53B24FDFC8C3B8C01870209870309870419198A2E8B2F8C30AC30BC8090
:200A3C000040047F438014BC600040047F50800BBC400040047F4980027F588F82C00712FB
:200A5C00073C75823A12073C75823012073C75827812073CD007BF4902800BBF500280066E
:200A7C00852F82120778852E821207788023D205753C0A801C753C088017753C0A801275EA
:200A9C003C10800DD20880098F8212073C80028E3D30085CE53B24FCFE8E3B8E018702098F
:200ABC0087030987040987061919198A2E8B2F8C308E31752E50752F0D753080852E4085ED
:200ADC002F4185304274012540FAE43541FCAE428A2E8C2F8E308540828541838542F012EF
:200AFC000D07FEFF70030207F98F8212073C80CCE53C70030207F9753E4E30062DE53B1474
:200B1C00FC8C3B8C01E7FA3395E0FBFCFE8A2E8B2F8C308E31200566AA2E7B007C007E0026
:200B3C008A2E8B2F8C308E318054300721E53B24FCFE8E3B8E0187020987030987040987AA
:200B5C00061919198A2E8B2F8C308E318030E53B24FEFE8E3B8E01870409870619EE339503
:200B7C00E0FBFA8C2E8E2F8B308A31200510AA2EAB2F7C007E008A2E8B2F8C308E31300594
:200B9C0022E53130E71BC3E4952EFAE4952FFBE49530FCE49531FE8A2E8B2F8C308E31800E
:200BBC0002C205D209A93E7E00753200853C82C006C00112078FD001D00620090BE532C441
:200BDC00FCE7FB4CF7198002A7320EB209E52E452F4530453170D2893E8E05E53D70037583
:200BFC003D01200224200121ED04FEAC3DC3EE9C5015758220C006C005C00412073CD004FA
:200C1C00D005D0061C80E68C3D30050E75822DC00512073CD005153D8023ED602030030EC9
:200C3C0075822BC00512073CD005153D800F30040C758220C00512073CD005153D200122CB
:200C5C00AE3D8E041EC3ED9C502B3002047C3080027C208C82C006C00512073CD005D0067D
:200C7C0080E0C3ED953D5008E53DC39DF53D8007753D0080028E3DA93E8D068E051EED606C
:200C9C0026B20920090A09E7C4540FFD8D3280078705740F5DF532853282C006C00112075E
:200CBC005FD001D00680D42001030207F9AE3D8E051EED70030207F9758220C00612073C68
:130CDC00D00680EB8F8212073C0207F985338285348322C4
:0B0D50003C4E4F20464C4F41543E00EB
:180CEF00AA82AB83120D076003A380F8C3E5829AF582E5839BF5832217
:0D00510075814E120D23E582600302004E02
:1C0D070020F71430F6148883A88220F507E6A88375830022E280F7E49322E022FB
:040D230075820022B3
:00000001FF
