:040000000200513277
:01000B0032C2
:0100130032BA
:01001B0032B2
:0100230032AA
:01002B0032A2
:01003300329A
:01003B003292
:01004300328A
:03004B0002136B32
:2000AA00E4F532F5337534D07535077536BE75370A7538AC75390D753AD0753B07753CBE01
:1E00CA00753D0A753EAC753F0D75404075410B7542CA75430D75445475451002004E19
:03004E000205BEEA
:2000E80075B1677E007F011EBEFF011FEE4F70F7E5B130E7FB75B288227598507589207565
:200108008DDCD28E438E10438780D29943A4012275FFDE75FFAD1200E812010143E1044382
:20012800E34022AF8210990280FB8F992210980280FB85998212012B85998222C00F858137
:200148000FE50F24FBF886820886830886F0121C97E5828583F045F070028062E50F24FB26
:20016800FF8F0BE50F24FBF8860808860908860A90000175F00012149D90000175F0001255
:200188001C97AE827F00C3EF9E501FEF2401F582E43400F583E0FDBD0A0DEF2401F582E4FB
:2001A8003400F583740DF00F80DC752801752900752A007527008E2B7582C612045AD00F73
:2001C8002275220074C025224017752D22752E00752F40752C007530017582C61204D080D7
:2001E800E375230C752823752900752A40752700752B017582C612045A22752D25752E003D
:20020800752F40752C017530027582C61204D074FFB52505758200805F7F008F068EF00547
:20022800F07C017D008006EC2CFCED33FDD5F0F7AA257B00EA5204EB5205EC4D6007743148
:200248002FF58280330E8E07BE080040D0E52630E0057582398021E52630E10575822A8011
:2002680017E52630E205758230800DE52630E30575822380037582FF22AF82E4FDFEEF7042
:200288001DC006C00574B8C0E0741EC0E07480C0E0120144158115811581D005D006C00692
:2002A800C0057408C0E0E4C0E07408C0E0E4C0E07408C0E0E4C0E07408C0E0E4C0E0740875
:2002C800C0E0E4C0E074CEC0E0741EC0E07480C0E0120144E58124F3F58190A12075F00743
:2002E800E41203F5D005D0067F00C007C006C005120202AC82D005D006D0078C03BCFF027A
:200308008003BB2A17902710E4F5F0C007C006C0051203F5D005D006D00780CEBB232AC0D2
:2003280006C005120202AC82D005D006BC2313902710E4F5F0C006C0051203F5D005D00639
:2003480080DD8D828E830203F4EBFA3395E0FCC007C006C005C004C003C002C002C0047401
:20036800DEC0E0741EC0E07480C0E0120144E58124FBF581D002D003D004D005D0068D111D
:200388008E1290000AC004C003C002121410A882A983D002D003D004D007EA28F8EC39F9CE
:2003A800E824D0FDE934FFFEC007C006C005C003120202AC82D003D005D006D007ECB503F0
:2003C8001B902710E4F5F0C007C006C005C0031203F5D003D005D006D00780CC0FC3EF6485
:2003E80080948550030202F28D828E8322AC82AD83AEF0FF780079007A007B00C3E89CE9C0
:200408009DEA9EEB9F500F08B8000909B900050ABA00E90B80E62220C7FDD2C530C3FDC2C9
:20042800C5C2C3228582C210C30280FB228582C2D2C410C30280FB2230C3FD85C282C2C3FE
:200448002230C3FDAFC2C2C3D2C410C30280FB8F8222AF82C00712041FD00774FE5FF58227
:2004680012042C85278212042C7F00AD2B7E001DBDFF011E8F037C00C3EB9DEC64808EF04E
:2004880063F08095F0501FEF2528FCE43529FDAE2A8C828D838EF0121D72F582C0071204AD
:2004A8002CD0070F80C5AE2B7F001EBEFF011FEE2528FEEF3529FFAD2A8E828F838DF0127D
:2004C8001D72F58212043522AF82C00712041FD0078F0674FE5EF582C00712042C852C8285
:2004E80012043512041FD00774014FF58212042C7F00AD307E001DBDFF011E8F037C00C37D
:20050800EB9DEC64808EF063F08095F0502ED2C2EF252DFCE4352EFDAE2FC007C006C005E3
:20052800C004120440AB82D004D005D006D0078C828D838EF0EB1213C50F80B6C2C2AE30FE
:200548007F001EBEFF011FEE252DFEEF352EFFAD2FC007C006C005120449AC82D005D00624
:20056800D0078E828F838DF0EC1213C522753123752831752900752A40752720752B01751F
:20058800823012045A753100752831752900752A40752721752B0175823012045A753100A5
:2005A800752831752900752A40752722752B0175823012045A2212011875822012012B123E
:2005C800132712135712133F12135B121361E4F532F533853C46853D4785424A85434B8507
:2005E800364E85374F85365085375114C39546F54874FF9547F54974FFC3954EF55274FFFD
:20060800954FF55374FFC39550F55474FF9551F55574FFC3954AF54C74FF954BF54D8548E7
:20062800EA8549FA854CEB854DFB8552EC8553FC8554ED8555FD12081B853C46853D47748A
:20064800FFC39546F54874FF9547F5498548EA8549FA120AB085424A85434B74FFC3954AA7
:20066800F54C74FF954BF54D854CEB854DFB120D4585364E85374F85365085375174FFC34D
:20068800954EF55274FF954FF55374FFC39550F55474FF9551F5558532118533129000144C
:2006A800121410AE82AF83C006C00774E1C0E0741EC0E07480C0E01216A1E58124FBF5818E
:2006C80012130C80D2227E647F0074012532FCE43533FD4C700712070AAE82AF83C3EE946E
:2006E80032EF9400501B74082556F58274073557F58375111075120E121D8E858256858398
:200708005722752D5C752E00752F40752C027530027582E01204D0AF5C7E00AC5D7D00ECD1
:200728004EF582ED4FF583221207F585825885835974102558FE740E3559FFEEC39556F5A9
:2007480082EF9557F58375111075120E121D8EAE82AF838E5A8F5B855A82855B831210209A
:2007680022E4F532F533C3E5329401E5336480948040F31201C974E9C0E0741EC0E074806B
:20078800C0E01201441581158115811212FC1201C9758200120281AE82AF83C007C006120F
:2007A80001C9D006D007C007C006C006C007741DC0E0741FC0E07480C0E0120144E58124C7
:2007C800FBF581D006D007C007C006C006C007741DC0E0741FC0E07480C0E01216A1E581B2
:2007E80024FBF581D006D0078E828F8322752D5E752E00752F40752C027530027582C012D1
:2008080004D0AF5E7E00AC5F7D00EC4EF582ED4FF58322E4FEFFFCFDF532F533C007C006AC
:20082800C005C0041201C9743CC0E0741FC0E07480C0E0120144158115811581D004D00572
:20084800D006D007C3E5329432E5336480948040F3C007C006C005C0041201C9D004D00565
:20086800D006D007E4F532F533C3E5329401E5336480948040F3C007C006C005C0041201B5
:20088800C9744FC0E0741FC0E07480C0E01201441581158115811212FC1201C9748BC0E0A9
:2008A800741FC0E07480C0E01201441581158115811212FCD004D005D006D0077B00C00798
:2008C800C006C005C004C003C046C04774B0C0E0741FC0E07480C0E01216A1E58124FBF523
:2008E80081D003D004D005D006D00774FFC39546F54874FF9547F5498548EA8549FAEC4DB3
:20090800600302099CEE4F702FC005C004C0031201C974B6C0E0741FC0E07480C0E012011D
:2009280044158115811581D003D004D005EB7006853A46853B477B01758201C005C004C003
:2009480003120281AE82AF83D003D004D005BE0112BF000FE54624ECF546E54734FFF54769
:200968000208C6BE0211BF000E74142546F546E43547F5470208C6BE0305BF00028003025B
:2009880008C60CBC00010D7E007F0085463A85473B0208C6BC0105BD00028003020A31EEA3
:2009A8004F702AC005C004C0031201C974CEC0E0741FC0E07480C0E01201441581158115DD
:2009C80081D003D004D005853C46853D47758201C005C004C003120281AE82AF83D003D024
:2009E80004D005BE0112BF000FE54624ECF546E54734FFF5470208C6BE0211BF000E741470
:200A08002546F546E43547F5470208C6BE0305BF000280030208C60CBC00010D7E007F000F
:200A280085463C85473D0208C6EE4F702AC005C004C0031201C974E5C0E0741FC0E07480AF
:200A4800C0E0120144158115811581D003D004D005853E46853F47758201C005C004C00301
:200A6800120281AE82AF83D003D004D005BE0112BF000FE54624ECF546E54734FFF5470249
:200A880008C6BE0211BF000E74142546F546E43547F5470208C6BE0305BF00028003020834
:200AA800C685463E85473F22E4FEFFFCFDF532F533C007C006C005C0041201C974FCC0E007
:200AC800741FC0E07480C0E0120144158115811581D004D005D006D007C3E5329432E53320
:200AE8006480948040F3C007C006C005C0041201C9D004D005D006D007E4F532F533C3E5A0
:200B0800329401E5336480948040F3C007C006C005C0041201C9744FC0E0741FC0E0748047
:200B2800C0E01201441581158115811212FC1201C9748BC0E0741FC0E07480C0E01201443B
:200B48001581158115811212FCD004D005D006D0077B00C007C006C005C004C003C04AC037
:200B68004B74B0C0E0741FC0E07480C0E01216A1E58124FBF581D003D004D005D006D007AA
:200B880074FFC3954AF54C74FF954BF54D854CEB854DFBEC4D6003020C31EE4F702FC0055D
:200BA800C004C0031201C9740EC0E07420C0E07480C0E0120144158115811581D003D00420
:200BC800D005EB700685404A85414B7B01758201C005C004C003120281AE82AF83D003D05D
:200BE80004D005BE0112BF000FE54A24E2F54AE54B34FFF54B020B5BBE0211BF000E741EC6
:200C0800254AF54AE4354BF54B020B5BBE0305BF00028003020B5B0CBC00010D7E007F00CD
:200C2800854A40854B41020B5BBC0105BD00028003020CC6EE4F702AC005C004C003120116
:200C4800C974CEC0E0741FC0E07480C0E0120144158115811581D003D004D00585424A85EF
:200C6800434B758201C005C004C003120281AE82AF83D003D004D005BE0112BF000FE54A59
:200C880024E2F54AE54B34FFF54B020B5BBE0211BF000E741E254AF54AE4354BF54B020B6D
:200CA8005BBE0305BF00028003020B5B0CBC00010D7E007F00854A42854B43020B5BEE4FC3
:200CC800702AC005C004C0031201C9742EC0E07420C0E07480C0E012014415811581158127
:200CE800D003D004D00585444A85454B758201C005C004C003120281AE82AF83D003D00466
:200D0800D005BE0112BF000FE54A24E2F54AE54B34FFF54B020B5BBE0211BF000E741E2583
:200D28004AF54AE4354BF54B020B5BBE0305BF00028003020B5B854A44854B4522E4FEFF79
:200D4800FCFDF532F533C007C006C005C0041201C97450C0E07420C0E07480C0E0120144CE
:200D6800158115811581D004D005D006D007C3E5329432E5336480948040F3C007C006C023
:200D880005C0041201C9D004D005D006D007E4F532F533C3E5329401E5336480948040F36B
:200DA800C007C006C005C0041201C9744FC0E0741FC0E07480C0E0120144158115811581F6
:200DC8001212FC1201C9748BC0E0741FC0E07480C0E01201441581158115811212FCD0049C
:200DE800D005D006D0077B00C007C006C005C004C003C04EC04F74B0C0E0741FC0E074800D
:200E0800C0E01216A1E58124FBF581D003D004D005D006D00774FFC3954EF55274FF954F86
:200E2800F55374FFC39550F55474FF9551F555EC4D6003020EEAEE4F7035C005C004C00397
:200E48001201C97463C0E07420C0E07480C0E0120144158115811581D003D004D005EB707F
:200E68000C85344E85354F8534508535517B01758201C005C004C003120281AE82AF83D0B3
:200E880003D004D005BE011DBF001AE54E24E2F54EE54F34FFF54F741E2550F550E435510C
:200EA800F551020DF0BE021DBF001A741E254EF54EE4354FF54FE55024E2F550E55134FF52
:200EC800F551020DF0BE0305BF00028003020DF00CBC00010D7E007F0085503485513502D3
:200EE8000DF0BC0105BD00028003020FA1EE4F7035C005C004C0031201C97463C0E0742022
:200F0800C0E07480C0E0120144158115811581D003D004D005EB700C85364E85374F8536CA
:200F2800508537517B01758201C005C004C003120281AE82AF83D003D004D005BE011DBF7E
:200F4800001AE54E24E2F54EE54F34FFF54F741E2550F550E43551F551020DF0BE021DBFB1
:200F6800001A741E254EF54EE4354FF54FE55024E2F550E55134FFF551020DF0BE0305BFA8
:200F880000028003020DF00CBC00010D7E007F00854E36854F37020DF0EE4F702AC005C083
:200FA80004C0031201C974E5C0E0741FC0E07480C0E0120144158115811581D003D004D036
:200FC8000585384E85394F758201C005C004C003120281AE82AF83D003D004D005BE011264
:200FE800BF000FE54E24E2F54EE54F34FFF54F020DF0BE0211BF000E741E254EF54EE435F6
:201008004FF54F020DF0BE0305BF00028003020DF0854E38854F3922858260858361C3E57B
:20102800609408E5619407400302117E856082856183121617AA82AB83ACF0FD7466C0E07B
:20104800C0E07486C0E07440C0E08A828B838CF0ED121CAFAA82AB83ACF0FDE58124FCF52C
:2010680081853C82853D83C005C004C003C002121617A882A983AEF0FFD002D003D004D0D6
:2010880005C002C003C004C005888289838EF0EF12138AAC82AD83AEF0FFE58124FCF5810C
:2010A800854682854783C007C006C005C004121617A882A983AAF0FBD004D005D006D007F6
:2010C800C004C005C006C007888289838AF0EB121395AF82E58124FCF581EF600302116FBC
:2010E800856082856183121617AC82AD83AEF0FF7466C0E0C0E07486C0E07440C0E08C82C8
:201108008D838EF0EF121CAFAC82AD83AEF0FFE58124FCF581853C82853D83C007C006C0A1
:2011280005C004121617A882A983AAF0FBD004D005D006D007C004C005C006C007888289B5
:20114800838AF0EB12138AAC82AD83AEF0FFE58124FCF5818C828D838EF0EF12162385821C
:20116800468583470212E8E54624F6F546E54734FFF5470212E8E5604561600A7410B560D1
:201188000E740EB56109853C46853D470212E87410C39560F582740E9561F583121617ACFE
:2011A80082AD83AEF0FF7433C0E0C0E074F3C0E0C4C0E08C828D838EF0EF121CAFAC82AD43
:2011C80083AEF0FFE58124FCF581853C82853D83C007C006C005C004121617A882A983AA0E
:2011E800F0FBD004D005D006D007C004C005C006C007888289838AF0EB121575AC82AD831B
:20120800AEF0FFE58124FCF581854682854783C007C006C005C004121617A882A983AAF04C
:20122800FBD004D005D006D007C004C005C006C007888289838AF0EB1213E0AF82E5812404
:20124800FCF581EF60030212DD7410C39560F582740E9561F583121617AC82AD83AEF0FFF4
:201268007433C0E0C0E074F3C0E0C4C0E08C828D838EF0EF121CAFAC82AD83AEF0FFE5814B
:2012880024FCF581853C82853D83C007C006C005C004121617A882A983AAF0FBD004D0053F
:2012A800D006D007C004C005C006C007888289838AF0EB121575AC82AD83AEF0FFE58124C7
:2012C800FCF5818C828D838EF0EF121623858246858347800B740A2546F546E43547F547D7
:2012E80074FFC39546F54874FF9547F5498548EA8549FA22120202AF82BF2A02800512138E
:201308000C80F12274012532FEE43533FFC3E5329EE53364808FF063F08095F040EF22AFC6
:20132800A474CD5FF5A4AFBD74DF5FF5BD43A50F53A5207590202275D98175DAC275DBC2B0
:2013480075DCC275DDC275D84043E608D2AF2275E1272275CF93D2C62275D10375AA8043A2
:20136800AB0122C0E0C0D010DF02800E75E90075F9700532E4B53202053353D8C0D0D0D015
:02138800E03251
:201EB8000A54797065206469676974733B20656E6420772F2300202020202025632563256A
:201ED8006325632563002563000D0A2575206D730043616C6962726174696F6E3A0A4865E5
:201EF8006C6C6F20776F726C64210A3031325F3334355F3637383A0A6162632064656620A5
:201F18006768696A000D0A546865206465736972656420646972656374696F6E2069733AB8
:201F3800202564005275646465722043616C6962726174696F6E00676F206C6566743A20F7
:201F5800707265737320310A20676F2072696768743A20707265737320320A5072657373BD
:201F7800202A20666F72206E6578742073637265656E000A20636F6E6669726D3A207072C5
:201F980065737320330A207072657373202A20746F20626567696E000D0A202575004E6F34
:201FB800772063616C6962726174696E67204D696E5F50570A004E6F772063616C696272DD
:201FD8006174696E672043656E5F5057004E6F772063616C6962726174696E67204D617880
:201FF8005F505700416E676C652043616C6962726174696F6E004E6F772063616C69627293
:202018006174696E67204D696E5F505720555020414E474C45004E6F772063616C6962723E
:202038006174696E67204D61785F505720444F574E20414E474C450054687275737420435D
:20205800616C6962726174696F6E004E6F772063616C6962726174696E67204D696E5F507C
:0220780057000F
:0B138A00A8811818C6B2E7C60215754E
:06008000E478FFF6D8FD54
:20005E007900E94400601B7A00902085785175AF00E493F2A308B8000205AFD9F4DAF27535
:02007E00AFFFD2
:20139500FFA88118181215ECD2D133E6400730E70B7582012220E70675820022C2D11215AE
:1013B500CEE97003F5822230D101B3E433F5822200
:1B13C50020F71130F6138883A88220F509F6A8837583002280FEF280F5F02227
:2013E000FFA88118181215ECD2D133E6400730E70B7582002220E70675820122C2D1121563
:10140000CEE97003F5822220D101B3E433F58222C4
:1D141000E5828511F0A4C582C0F08512F0A4D0F025F0C5838511F0A42583F5832283
:20142D00C00F85810FC082058105810581E50F24FBF8A90F0909E6F70809E6F70809E6F759
:20144D00A80F080886820886830886F0121D72FAA3121D72FBA3121D72FF74012AFCE43B4A
:20146D00FD8F06A80F080886820886830886F0EC1213C5A3ED1213C5A3EE1213C58A828B0D
:20148D00838FF0A80F08E61213C5850F81D00F2285820C85830D85F00E756E0C756F0075A5
:2014AD007040850871850972850A73850B7490142D121773AE82AF83AB0CAC0DAD0E8B8264
:2014CD008C838DF0E41213C58E828F8322C00F85810FE50F24F8FF8F74E50F24FBFF8F6E5C
:2014ED00756F00757040E50F24F8F8867108867208867390142D121773AE82AF83E50F24EF
:1B150D00FBF886030886040886058B828C838DF0E41213C58E828F83D00F2298
:20152800E511451260467A01E51125E0F511E512334012F512E5829511E583951240030A48
:2015480080E6C3E51213F512E51113F511C3E5829511F5F0E58395124005F58385F082C3FF
:0D156800E51213F512E51113F511DAE12279
:200086007800E84400600A790175AF00E4F309D8FC7850E84400600C7901900001E4F0A318
:0400A600D8FCD9FAAF
:20157500121DD77900E583B58202800D5003121C7DE583C39582121E05E5D0C465D020E185
:2015950017EA2DFAEB3EFBEC3FFC50097401121E05EC4480FC02162EC3EA9DFAEB9EFBEC1A
:1915B5009FFC500FC3E499F9E49AFAE49BFBE49CFCB2D1121E4802162E3B
:2015CE007901AA82E68F82B5821318E6B5F00E18E6B5830918E68A82B58202790022B48014
:2015EE000FE5F0700AE5837006E58270027F00EFB6801518B6001018B6000B18B60006087C
:09160E00080876002208080822F1
:0C161700E4AC83AB82FAF9748E021DCDA6
:0B1623007F8E121E81F58385F082226D
:20162E00B98003EA13B34010EA2401FAE43BFBE43CFC50047C800582BC000EBB000BBA0000
:20164E0008E4F5F0F583F58222A2D1E582138CF092F78B838A8222E4F583F58275F080F4C0
:0F166E00A2D11322E4F583F58275F0C0747F22B8
:20167D00C00F85810F12012BD00F2285827185837285F073E4F56EF56FF570851074901691
:20169D007D021773C00F85810FE50F24FBFF8F74E4F56EF56FF570E50F24FBF8867108868B
:0D16BD007208867390167D121773D00F22ED
:2016CA00AF82C064C065C0661216D78007C062C0638F8222158115811581056CE4B56C0228
:2016EA00056D22AF8274302FFF24C6500A74072FFF3000034307208F820216CAE582FFC4A2
:20170A00540FF582C0071216EDD007740F5FF5820216ED8582118567128568138569148537
:20172A006A15AA6B751620EA2AFAE515235401FF8A064EFAE5122512F512E51333F513E5BC
:20174A001433F514E51533F515C3EA95114008EAC39511FA431201D516CD85126785136804
:20176A0085146985156A8A6B22858262858363856E64856F65857066E4F56CF56DAD71AEF0
:20178A0072AF738D828E838FF0121D72FC74012DF571E43EF5728F73ECFF7003021C76BF2B
:2017AA0025028003021C6EC201C202C203C204C205C206C207C2087575007576007CFFAABB
:2017CA0071AB72AE738A828B838EF0121D72FFA3AA82AB838A718B728E73BF25078F821214
:2017EA0016CA80998F7874D025785026E57824C64020BCFF12E57675F00AA4FD2F24D0F591
:20180A007670C2D20280BEEC75F00AA42F24D0FC80B3BF2E07BCFFAD7C0080A98F05BD6100
:20182A0000400CED248540075307DFD2008002C200BF2002806DBF2B028063BF2D028059C2
:20184A00BF42028063BF43028068BF4403021A18BF4603021A2EBF48030217CFBF49030221
:20186A001A18BF4A030217CFBF4C028040BF4F03021A1FBF50030219ADBF5302805CBF5442
:20188A00030217CFBF5503021A24BF5803021A29BF5A030217CF021A32D2010217CFD203BB
:2018AA000217CFD2040217CFD2060217CFD2070217CF30060CE57414FE8E748E01870780AB
:2018CA0011E57424FEFE8E748E018705098706198D078F821216CA021A3BE57424FDFE8EB4
:2018EA00748E01870309870509870619198B678D688E698B828D838EF0C004121C97AD82C3
:20190A00AE83D004BCFF028D0420012AC3ED95765024E576C39DF576AE768E031EEB601498
:20192A00758220C006C005C0041216CAD004D005D00680E68E768C068567828568838569FE
:20194A00F0121D72FCFF602F8E041EC374808CF063F08095F050208F82C006C0051216CA29
:20196A00D005D006AA67AB68AC690ABA00010B8A678B688C6980C1200103021A3BC3ED95CF
:20198A00764003021A3BE576C39DF576AE768E041EEC7003021A39758220C0061216CAD0E0
:2019AA000680EBE57424FDFC8C748C01870209870309870419198A678B688C69AC69BC809D
:2019CA000040047F438014BC600040047F50800BBC400040047F4980027F588F82C007125E
:2019EA0016CA75823A1216CA7582301216CA7582781216CAD007BF4902800BBF500280065D
:201A0A008568821217068567821217068023D20575750A801C757508801775750A801275F3
:201A2A007510800DD20880098F821216CA80028E7630085CE57424FCFE8E748E0187020970
:201A4A0087030987040987061919198A678B688C698E6A75677A7568207569808567798511
:201A6A00687A85697B74012579FAE4357AFCAE7B8A678C688E69857982857A83857BF0126C
:201A8A001D72FEFF70030217878F821216CA80CCE575700302178775771C30062DE5741409
:201AAA00FC8C748C01E7FA3395E0FBFCFE8A678B688C698E6A200566AA677B007C007E0033
:201ACA008A678B688C698E6A8054300721E57424FCFE8E748E0187020987030987040987B7
:201AEA00061919198A678B688C698E6A8030E57424FEFE8E748E01870409870619EE339510
:201B0A00E0FBFA8C678E688B698A6A200510AA67AB687C007E008A678B688C698E6A3005BC
:201B2A0022E56A30E71BC3E49567FAE49568FBE49569FCE4956AFE8A678B688C698E6A806F
:201B4A0002C205D209A9777E00756B00857582C006C00112171DD001D00620090BE56BC421
:201B6A00FCE7FB4CF7198002A76B0EB209E56745684569456A70D289778E05E57670037556
:201B8A007601200224200121ED04FEAC76C3EE9C5015758220C006C005C0041216CAD0044D
:201BAA00D005D0061C80E68C7630050E75822DC0051216CAD00515768023ED602030030E1D
:201BCA0075822BC0051216CAD0051576800F30040C758220C0051216CAD005157620012282
:201BEA00AE768E041EC3ED9C502B3002047C3080027C208C82C006C0051216CAD005D0060A
:201C0A0080E0C3ED95765008E576C39DF576800775760080028E76A9778D068E051EED6078
:201C2A0026B20920090A09E7C4540FFD8D6B80078705740F5DF56B856B82C006C001121606
:201C4A00EDD001D00680D4200103021787AE768E051EED7003021787758220C0061216CA2A
:131C6A00D00680EB8F821216CA021787856C82856D832279
:0B207A003C4E4F20464C4F41543E00AE
:1A1C7D00E582C583F582A2D133A2D592D11392D5ECCFFCEBCEFBEACDFA22EF
:181C9700AA82AB83121D726003A380F8C3E5829AF582E5839BF58322E4
:201CAF00121DD730D502B2D1BF0009BC0003021672021665BC000302164FE583B4FF0BE5C6
:201CCF0082B4FF0302167202164FE582B4FF03021665C395835007247F400B02164F248007
:201CEF00145003021665F582C3ED9AEE9BEF9C40111582C3EA33F9EB33FAEC33FBE433FC16
:201D0F008005E4CCCBCAF9C08275F019C3E99DEA9EEB9FEC9400D5F002802D400EE99DF915
:201D2F00EA9EFAEB9FFBEC9400FCC3B3E833F8E58233F582E58333F583C3E933F9EA33FA75
:201D4F00EB33FBEC33FC80C4B3E4F938FAE43582FBE43583FCD082500405827C80121E486B
:031D6F0002164613
:0D00510075817B121E7BE582600302004E6C
:1C1D720020F71430F6148883A88220F507E6A88375830022E280F7E49322E02280
:201D8E00C2D5E58330E70DD2D5E4C39582F582E49583F583E51230E70BE4C39511F511E472
:161DAE009512F51212152830D50BE4C39582F582E49583F5832247
:131DC400FCABF0AA83A982749EC2D1F582121E4802162E43
:201DD700AA82AB83A2F73392D1F5826002D2F7ACF0E58124F9F8E6FD08E6FE0886F008E66F
:0E1DF700A2F73392D5F5836002D2F7AFF02247
:201E05006040F82582500274FFF582E824F8501ECCCBCAF9E4CC24F85014CBCAF9E4CB24E5
:201E2500F8500BCAF9E4CA24F8500379002224086010F8C3EC13FCEB13FBEA13FAE913F998
:031E4500D8F122AF
:201E48007804EC7011E58224F8500AF582E4C9CACBFCD8EF22EC7820058220E713D5820199
:131E680022C3E933F9EA33FAEB33FBEC33FCD8EA158222A7
:041E7B00758200224A
:201E7F007F9E121EA630D10302164FC3EF9582500974FFF5F0F583F582227900121E058923
:071E9F00828A838BF0EC2224
:121EA600AA82AB83A2F73392D1F5826002D2F7ACF02241
:00000001FF
