:040000000200513277
:01000B0032C2
:0100130032BA
:01001B0032B2
:0100230032AA
:01002B0032A2
:01003300329A
:01003B003292
:01004300328A
:03004B00020BB4F1
:2000AA00E4F532F5337534D07535077536BE75370A7538AC75390D753AD0753B07753CBE01
:2000CA00753D0A753EAC753F0D75404075410B7542CA75430D7544547545107558E00200B8
:0100EA004EC7
:03004E000205C1E7
:2000EB0075B1677E007F011EBEFF011FEE4F70F7E5B130E7FB75B288227598507589207562
:20010B008DDCD28E438E10438780D29943A4012275FFDE75FFAD1200EB12010443E1044379
:20012B00E34022AF8210990280FB8F992210980280FB85998212012E85998222C00F858131
:20014B000FE50F24FBF886820886830886F012157CE5828583F045F070028062E50F24FB45
:20016B00FF8F0BE50F24FBF8860808860908860A90000175F000120D8A90000175F000126C
:20018B00157CAE827F00C3EF9E501FEF2401F582E43400F583E0FDBD0A0DEF2401F582E41A
:2001AB003400F583740DF00F80DC752801752900752A007527008E2B7582C612045DD00F6D
:2001CB002275220074C025224017752D22752E00752F40752C007530017582C61204D380D1
:2001EB00E375230C752823752900752A40752700752B017582C612045D22752D25752E0037
:20020B00752F40752C017530027582C61204D374FFB52505758200805F7F008F068EF00541
:20022B00F07C017D008006EC2CFCED33FDD5F0F7AA257B00EA5204EB5205EC4D6007743145
:20024B002FF58280330E8E07BE080040D0E52630E0057582398021E52630E10575822A800E
:20026B0017E52630E205758230800DE52630E30575822380037582FF22AF82E4FDFEEF703F
:20028B001DC006C0057401C0E07417C0E07480C0E0120147158115811581D005D006C0064A
:2002AB00C0057408C0E0E4C0E07408C0E0E4C0E07408C0E0E4C0E07408C0E0E4C0E0740872
:2002CB00C0E0E4C0E07417C0E07417C0E07480C0E0120147E58124F3F58190A12075F007FB
:2002EB00E41203F8D005D0067F00C007C006C005120205AC82D005D006D0078C03BCFF0271
:20030B008003BB2A17902710E4F5F0C007C006C0051203F8D005D006D00780CEBB232AC0CC
:20032B0006C005120205AC82D005D006BC2313902710E4F5F0C006C0051203F8D005D00630
:20034B0080DD8D828E830203F7EBFA3395E0FCC007C006C005C004C003C002C002C00474FB
:20036B0027C0E07417C0E07480C0E0120147E58124FBF581D002D003D004D005D0068D11D5
:20038B008E1290000AC004C003C002120CFDA882A983D002D003D004D007EA28F8EC39F9E6
:2003AB00E824D0FDE934FFFEC007C006C005C003120205AC82D003D005D006D007ECB503EA
:2003CB001B902710E4F5F0C007C006C005C0031203F8D003D005D006D00780CC0FC3EF647F
:2003EB0080948550030202F58D828E8322AC82AD83AEF0FF780079007A007B00C3E89CE9BA
:20040B009DEA9EEB9F500F08B8000909B900050ABA00E90B80E62220C7FDD2C530C3FDC2C6
:20042B00C5C2C3228582C210C30280FB228582C2D2C410C30280FB2230C3FD85C282C2C3FB
:20044B002230C3FDAFC2C2C3D2C410C30280FB8F8222AF82C007120422D00774FE5FF58221
:20046B0012042F85278212042F7F00AD2B7E001DBDFF011E8F037C00C3EB9DEC64808EF045
:20048B0063F08095F0501FEF2528FCE43529FDAE2A8C828D838EF0121594F582C007120490
:2004AB002FD0070F80C5AE2B7F001EBEFF011FEE2528FEEF3529FFAD2A8E828F838DF01277
:2004CB001594F58212043822AF82C007120422D0078F0674FE5EF582C00712042F852C825F
:2004EB00120438120422D00774014FF58212042F7F00AD307E001DBDFF011E8F037C00C371
:20050B00EB9DEC64808EF063F08095F0502ED2C2EF252DFCE4352EFDAE2FC007C006C005E0
:20052B00C004120443AB82D004D005D006D0078C828D838EF0EB120CE20F80B6C2C2AE30E2
:20054B007F001EBEFF011FEE252DFEEF352EFFAD2FC007C006C00512044CAC82D005D0061E
:20056B00D0078E828F838DF0EC120CE222753123752831752900752A40752720752B017506
:20058B00823012045D753100752831752900752A40752721752B0175823012045D7531009C
:2005AB00752831752900752A40752722752B0175823012045D2212011B75822012012E1232
:2005CB000B70120BA0120B88120BA4120BAAE4F532F533853C46853D4785424A85434B85BF
:2005EB00364E85374F85365085375114C39546F54874FF9547F54974FFC3954EF55274FFFA
:20060B00954FF55374FFC39550F55474FF9551F55574FFC3954AF54C74FF954BF54D8548E4
:20062B00EA8549FA854CEB854DFB8552EC8553FC8554ED8555FD1206E9120870E4F532F5B5
:20064B0033120B49853282853383A37511027512001215B0E5828583F045F07003120800D8
:20066B00853282853383A37511047512001215B0E5828583F045F0700312073A8532828558
:20068B003383A37511087512001215B0E5828583F045F070ACC04EC04F90005BE0C0E0A32F
:2006AB00E0C0E090005FE0C0E0A3E0C0E0900053E0C0E0A3E0C0E0900051E0C0E0A3E0C0F3
:2006CB00E0C032C033742AC0E07417C0E07480C0E0120F86E58124F1F58102064C2212012C
:2006EB00CC7443C0E07417C0E07480C0E0120147158115811581758200120284E4F559F53B
:20070B005A755B40755C411201CC745EC0E07417C0E07480C0E012014715811581158175B1
:20072B008200120284755DB4755E001201CC229000577401F0E4A3F090005FE0FEA3E0FF28
:20074B00C3EE9432EF940040030207D990005F7464F0E4A3F01207DAE5828583F090005F00
:20076B00F0E5F0A3F0755651752856752900752A40752700752B0185588212045D90005F8C
:20078B00E0FEA3E0FFC3EE9432EF940050AA900057E0FEA3E0FFBE019FBF009C900051E039
:2007AB00FEA3E0FF74082EF58274073FF58375111075120E1215B0E5828583F0900051F029
:2007CB00E5F0A3F0900057E4F0A3F002074322752D56752E00752F40752C02753002855844
:2007EB00821204D3AF567E00AC577D00EC4EF582ED4FF583221208FCE5828583F0900053A1
:20080B00F0E5F0A3F01201CC900053E0C0E0A3E0C0E07479C0E07417C0E07480C0E01201B1
:20082B0047E58124FBF581900053E0FEA3E0FF74102EFE740E3FFF900051E0FCA3E0FDEE8D
:20084B00C39CF582EF9DF58375111075120E1215B0AE82AF83900055EEF0EFA3F08E828F6B
:20086B008312092222E4F532F533C3E5329401E5336480948040F31201CC747CC0E07417AC
:20088B00C0E07480C0E0120147158115811581120B391201CC758200120284AE82AF83C017
:2008AB0007C0061201CCD006D007C007C006C006C00774B0C0E07417C0E07480C0E0120124
:2008CB0047E58124FBF581D006D007C007C006C006C00774B0C0E07417C0E07480C0E0126F
:2008EB000F86E58124FBF581D006D0078E828F8322752D5F752E00752F40752C027530029A
:20090B007582C01204D3AF5F7E00AC607D00EC4EF582ED4FF58322AE82AF83C374AC9E7439
:20092B000D9F4008EE9464EF9400500990005BE4F0A3F08033C374089E74079F50138E0405
:20094B008F0590005B7410C39CF0740E9DA3F080178E118F1290FFFF120CFDE5828583F0A9
:20096B0090005BF0E5F0A3F090005BE0FEA3E0FF8E828F83C007C006120EBBAA82AB83AC4E
:20098B00F0FDC002C003C004C005855982855A83855BF0E55C120BDE85826185836285F03C
:2009AB0063F564E58124FCF581D006D00790005DE0F8A3E0F9E8C39EF511E99FF512855DC6
:2009CB0082855E83C007C006120CFD120EBBA882A983ACF0FDC000C001C004C00585618240
:2009EB008562838563F0E564120BD3AA82AB83ACF0FDE58124FCF5818A828B838CF0EDC03F
:200A0B0005C004C003C002120EC8A882A983D002D003D004D005E8253CF546E9353DF547D6
:200A2B008A618B628C63EDB2E7F564853682853783C001C000120EFCAA82AB83ACF0FDC039
:200A4B0061C062C063C0648A828B838CF0ED120E62AA82AB83ACF0FDE58124FCF5818A82C1
:200A6B008B838CF0ED120F0885824E85834FD000D001D006D007E82536F550E93537F551AE
:200A8B0090005DEEF0EFA3F0C3E546953EE547953F4008853E46853F478011C3E53A954693
:200AAB00E53B95474006853A46853B47C3E54E9538E54F9539400885384E85394F8011C364
:200ACB00E534954EE535954F400685344E85354FC3E5509538E551953940088538508539DF
:200AEB00518011C3E5349550E5359551400685345085355174FFC39546F54874FF9547F55C
:200B0B004974FFC3954EF55274FF954FF55374FFC39550F55474FF9551F5558548EA8549F6
:200B2B00FA8552EC8553FC8554ED8555FD22120205AF82BF2A028005120B4980F122900017
:200B4B005974012532F0E43533A3F0900059E0FEA3E0FFC3E5329EE53364808FF063F08087
:200B6B0095F040EF22AFA474CD5FF5A4AFBD74DF5FF5BD43A50F53A5207590202275D98113
:200B8B0075DAC275DBC275DCC275DDC275D84043E608D2AF2275E1272275CF93D2C62275FA
:200BAB00D10375AA8043AB0122C0E0C0D010DF02800E75E90075F9700532E4B5320205337F
:080BCB0053D8C0D0D0D0E032B5
:201701000A54797065206469676974733B20656E6420772F23002020202020256325632528
:201721006325632563002563000D0A25752C0925642C0925642C0925752C0925642C092599
:201741007500506C6561736520656E7465722061206B702076616C75653A0A2000506C653D
:2017610061736520656E7465722061206B642076616C75653A0A200025640043616C69627C
:20178100726174696F6E3A0A48656C6C6F20776F726C64210A3031325F3334355F3637387E
:2017A1003A0A61626320646566206768696A000D0A54686520646573697265642064697216
:0E17C100656374696F6E2069733A20256400B9
:0617DA00000000002800E1
:0B0BD300A8811818C6B2E7C6020E6227
:200BDE00120C81BC0003020F34EF60FA30D502B2D1E583B4FF03020F4AE582B4FF03020FDA
:200BFE004A258340072482400B020F342483145003020F4AF582EA8DF0A4A8F0EA8EF0A4D9
:200C1E0028F8E435F0F9EB8DF0A428E935F0F9E433CA8FF0A429F9EA35F0FAEBF88EF0A425
:200C3E0029F9EA35F0FAE433FBEC8DF0A429F9EA35F0FAE43BFBE88FF0A42AFAEB35F0FBCD
:200C5E00E433CCFD8EF0A42AFAEB35F0FBE43CFCED8FF0A42BFBEC35F0FC20E703120CAF0F
:030C7E00020F134F
:200C8100AA82AB83A2F73392D1F5826002D2F7ACF0E58124F9F8E6FD08E6FE0886F008E6D6
:0E0CA100A2F73392D5F5836002D2F7AFF022AE
:06008000E478FFF6D8FD54
:200CAF007804EC7011E58224F8500AF582E4C9CACBFCD8EF22EC7820058220E713D5820144
:130CCF0022C3E933F9EA33FAEB33FBEC33FCD8EA15822252
:20005E007906E94400601B7A019017DA785B75AF00E493F2A308B8000205AFD9F4DAF275D8
:02007E00AFFFD2
:1B0CE20020F71130F6138883A88220F509F6A8837583002280FEF280F5F02211
:1D0CFD00E5828511F0A4C582C0F08512F0A4D0F025F0C5838511F0A42583F583229E
:200D1A00C00F85810FC082058105810581E50F24FBF8A90F0909E6F70809E6F70809E6F773
:200D3A00A80F080886820886830886F0121594FAA3121594FBA3121594FF74012AFCE43B16
:200D5A00FD8F06A80F080886820886830886F0EC120CE2A3ED120CE2A3EE120CE28A828BE5
:200D7A00838FF0A80F08E6120CE2850F81D00F2285820C85830D85F00E75710C75720075A3
:200D9A007340850874850975850A76850B77900D1A121058AE82AF83AB0CAC0DAD0E8B82AB
:200DBA008C838DF0E4120CE28E828F8322C00F85810FE50F24F8FF8F77E50F24FBFF8F715A
:200DDA00757200757340E50F24F8F88674088675088676900D1A121058AE82AF83E50F2436
:1B0DFA00FBF886030886040886058B828C838DF0E4120CE28E828F83D00F229D
:200E1500E511451260467A01E51125E0F511E512334012F512E5829511E583951240030A62
:200E350080E6C3E51213F512E51113F511C3E5829511F5F0E58395124005F58385F082C319
:0D0E5500E51213F512E51113F511DAE12293
:200086007800E84400600A790175AF00E4F309D8FC785AE84400600C7901900001E4F0A30E
:0400A600D8FCD9FAAF
:200E6200120C817900E583B58202800D5003121562E583C39582121626E5D0C465D020E10F
:200E820017EA2DFAEB3EFBEC3FFC50097401121626EC4480FC020F13C3EA9DFAEB9EFBEC3D
:190EA2009FFC500FC3E499F9E49AFAE49BFBE49CFCB2D1120CAF020F1322
:0D0EBB00AC83AB827A007900748E0215EFD3
:200EC800121669700AE582458345F0700122E430D112F4700BE5F0F47006E58330E70122C1
:140EE80090800022700AE5F07006E58320E70122907FFF223D
:0C0EFC00E4AC83AB82FAF9748E02161C81
:0B0F08007F8E1216DCF58385F082223C
:200F1300B98003EA13B34010EA2401FAE43BFBE43CFC50047C800582BC000EBB000BBA0022
:200F330008E4F5F0F583F58222A2D1E582138CF092F78B838A8222E4F583F58275F080F4E2
:0F0F5300A2D11322E4F583F58275F0C0747F22DA
:200F6200C00F85810F12012ED00F2285827485837585F076E4F571F572F573851077900FA2
:200F820062021058C00F85810FE50F24FBFF8F77E4F571F572F573E50F24FBF886740886DB
:0D0FA20075088676900F62121058D00F224D
:200FAF00AF82C067C068C069120FBC8007C065C0668F8222158115811581056FE4B56F0257
:200FCF00057022AF8274302FFF24C6500A74072FFF3000034307208F82020FAFE582FFC4E3
:200FEF00540FF582C007120FD2D007740F5FF582020FD2858211856A12856B13856C148595
:20100F006D15AA6E751620EA2AFAE515235401FF8A064EFAE5122512F512E51333F513E5D8
:20102F001433F514E51533F515C3EA95114008EAC39511FA431201D516CD85126A85136B20
:20104F0085146C85156D8A6E22858265858366857167857268857369E4F56FF570AD74AEE8
:20106F0075AF768D828E838FF0121594FC74012DF574E43EF5758F76ECFF700302155BBF46
:20108F0025028003021553C201C202C203C204C205C206C207C2087578007579007CFFAAF9
:2010AF0074AB75AE768A828B838EF0121594FFA3AA82AB838A748B758E76BF25078F82120A
:2010CF000FAF80998F7B74D0257B5026E57B24C64020BCFF12E57975F00AA4FD2F24D0F5C9
:2010EF007970C2D20280BEEC75F00AA42F24D0FC80B3BF2E07BCFFAD7C0080A98F05BD6120
:20110F0000400CED248540075307DFD2008002C200BF2002806DBF2B028063BF2D028059E4
:20112F00BF42028063BF43028068BF44030212FDBF4603021313BF48030210B4BF490302AA
:20114F0012FDBF4A030210B4BF4C028040BF4F03021304BF5003021292BF5302805CBF54ED
:20116F00030210B4BF5503021309BF580302130EBF5A030210B4021317D2010210B4D203A9
:20118F000210B4D2040210B4D2060210B4D2070210B430060CE57714FE8E778E018707804F
:2011AF0011E57724FEFE8E778E018705098706198D078F82120FAF021320E57724FDFE8E11
:2011CF00778E01870309870509870619198B6A8D6B8E6C8B828D838EF0C00412157CAD82FB
:2011EF00AE83D004BCFF028D0420012AC3ED95795024E579C39DF579AE798E031EEB6014AF
:20120F00758220C006C005C004120FAFD004D005D00680E68E798C06856A82856B83856C36
:20122F00F0121594FCFF602F8E041EC374808CF063F08095F050208F82C006C005120FAF53
:20124F00D005D006AA6AAB6BAC6C0ABA00010B8A6A8B6B8C6C80C1200103021320C3ED9501
:20126F00794003021320E579C39DF579AE798E041EEC700302131E758220C006120FAFD05C
:20128F000680EBE57724FDFC8C778C01870209870309870419198A6A8B6B8C6CAC6CBC80AD
:2012AF000040047F438014BC600040047F50800BBC400040047F4980027F588F82C0071280
:2012CF000FAF75823A120FAF758230120FAF758278120FAFD007BF4902800BBF5002800607
:2012EF00856B82120FEB856A82120FEB8023D20575780A801C757808801775780A8012754D
:20130F007810800DD20880098F82120FAF80028E7930085CE57724FCFE8E778E01870209A8
:20132F0087030987040987061919198A6A8B6B8C6C8E6D756ACF756B17756C80856A7C85CC
:20134F006B7D856C7E7401257CFAE4357DFCAE7E8A6A8C6B8E6C857C82857D83857EF01267
:20136F001594FEFF700302106C8F82120FAF80CCE578700302106C757A1C30062DE577146E
:20138F00FC8C778C01E7FA3395E0FBFCFE8A6A8B6B8C6C8E6D200566AA6A7B007C007E0043
:2013AF008A6A8B6B8C6C8E6D8054300721E57724FCFE8E778E0187020987030987040987C7
:2013CF00061919198A6A8B6B8C6C8E6D8030E57724FEFE8E778E01870409870619EE339520
:2013EF00E0FBFA8C6A8E6B8B6C8A6D200510AA6AAB6B7C007E008A6A8B6B8C6C8E6D3005C1
:20140F0022E56D30E71BC3E4956AFAE4956BFBE4956CFCE4956DFE8A6A8B6B8C6C8E6D8076
:20142F0002C205D209A97A7E00756E00857882C006C001121002D001D00620090BE56EC459
:20144F00FCE7FB4CF7198002A76E0EB209E56A456B456C456D70D2897A8E05E57970037563
:20146F007901200224200121ED04FEAC79C3EE9C5015758220C006C005C004120FAFD0048B
:20148F00D005D0061C80E68C7930050E75822DC005120FAFD00515798023ED602030030E5B
:2014AF0075822BC005120FAFD0051579800F30040C758220C005120FAFD0051579200122E2
:2014CF00AE798E041EC3ED9C502B3002047C3080027C208C82C006C005120FAFD005D0064B
:2014EF0080E0C3ED95795008E579C39DF579800775790080028E79A97A8D068E051EED6089
:20150F0026B20920090A09E7C4540FFD8D6E80078705740F5DF56E856E82C006C001120F26
:20152F00D2D001D00680D420010302106CAE798E051EED700302106C758220C006120FAFCA
:13154F00D00680EB8F82120FAF02106C856F8285708322D9
:0B17CF003C4E4F20464C4F41543E0062
:1A156200E582C583F582A2D133A2D592D11392D5ECCFFCEBCEFBEACDFA2211
:18157C00AA82AB831215946003A380F8C3E5829AF582E5839BF58322EC
:0D00510075817E1216C4E582600302004E28
:1C15940020F71430F6148883A88220F507E6A88375830022E280F7E49322E02266
:2015B000C2D5E58330E70DD2D5E4C39582F582E49583F583E51230E70BE4C39511F511E458
:1615D0009512F512120E1530D50BE4C39582F582E49583F5832247
:2015E600FCABF0AA83A982749EF582C2D1EC30E716D2D1E9F42401F9EAF43400FAEBF43404
:0D16060000FBECF43400FC120CAF020F13DB
:13161300FCABF0AA83A982749EC2D1F582120CAF020F13C8
:201626006040F82582500274FFF582E824F8501ECCCBCAF9E4CC24F85014CBCAF9E4CB24CC
:20164600F8500BCAF9E4CA24F8500379002224086010F8C3EC13FCEB13FBEA13FAE913F97F
:03166600D8F12296
:201669001216C8C3749E95824039790012162630D126E9F42401F582EAF43400F583EBF43C
:201689003400F5F0ECF43400700AE582458345F0700122E430E70F22EC20E71489828A8358
:1B16A9008BF02230D10AE4F582F583F5F074802274FFF582F583F5F0747F2254
:0416C4007582002209
:1216C800AA82AB83A2F73392D1F5826002D2F7ACF02227
:2016DA007F9E1216C830D103020F34C3EF9582500974FFF5F0F583F58222790012162689BF
:0716FA00828A838BF0EC22D1
:00000001FF
