:040000000200513277
:01000B0032C2
:0100130032BA
:01001B0032B2
:0100230032AA
:01002B0032A2
:01003300329A
:01003B003292
:01004300328A
:03004B0002135C41
:2000AA00E4F532F5337534D07535077536BE75370A7538AC75390D753AD0753B07753CBE01
:1E00CA00753D0A753EAC753F0D75404075410B7542CA75430D75445475451002004E19
:03004E000205BEEA
:2000E80075B1677E007F011EBEFF011FEE4F70F7E5B130E7FB75B288227598507589207565
:200108008DDCD28E438E10438780D29943A4012275FFDE75FFAD1200E812010143E1044382
:20012800E34022AF8210990280FB8F992210980280FB85998212012B85998222C00F858137
:200148000FE50F24FBF886820886830886F0121AFBE5828583F045F070028062E50F24FBC4
:20016800FF8F0BE50F24FBF8860808860908860A90000175F00012142390000175F00012CF
:200188001AFBAE827F00C3EF9E501FEF2401F582E43400F583E0FDBD0A0DEF2401F582E499
:2001A8003400F583740DF00F80DC752801752900752A007527008E2B7582C612045AD00F73
:2001C8002275220074C025224017752D22752E00752F40752C007530017582C61204D080D7
:2001E800E375230C752823752900752A40752700752B017582C612045A22752D25752E003D
:20020800752F40752C017530027582C61204D074FFB52505758200805F7F008F068EF00547
:20022800F07C017D008006EC2CFCED33FDD5F0F7AA257B00EA5204EB5205EC4D6007743148
:200248002FF58280330E8E07BE080040D0E52630E0057582398021E52630E10575822A8011
:2002680017E52630E205758230800DE52630E30575822380037582FF22AF82E4FDFEEF7042
:200288001DC006C0057469C0E0741BC0E07480C0E0120144158115811581D005D006C006E4
:2002A800C0057408C0E0E4C0E07408C0E0E4C0E07408C0E0E4C0E07408C0E0E4C0E0740875
:2002C800C0E0E4C0E0747FC0E0741BC0E07480C0E0120144E58124F3F58190A12075F00795
:2002E800E41203F5D005D0067F00C007C006C005120202AC82D005D006D0078C03BCFF027A
:200308008003BB2A17902710E4F5F0C007C006C0051203F5D005D006D00780CEBB232AC0D2
:2003280006C005120202AC82D005D006BC2313902710E4F5F0C006C0051203F5D005D00639
:2003480080DD8D828E830203F4EBFA3395E0FCC007C006C005C004C003C002C002C0047401
:200368008FC0E0741BC0E07480C0E0120144E58124FBF581D002D003D004D005D0068D116F
:200388008E1290000AC004C003C002121396A882A983D002D003D004D007EA28F8EC39F949
:2003A800E824D0FDE934FFFEC007C006C005C003120202AC82D003D005D006D007ECB503F0
:2003C8001B902710E4F5F0C007C006C005C0031203F5D003D005D006D00780CC0FC3EF6485
:2003E80080948550030202F28D828E8322AC82AD83AEF0FF780079007A007B00C3E89CE9C0
:200408009DEA9EEB9F500F08B8000909B900050ABA00E90B80E62220C7FDD2C530C3FDC2C9
:20042800C5C2C3228582C210C30280FB228582C2D2C410C30280FB2230C3FD85C282C2C3FE
:200448002230C3FDAFC2C2C3D2C410C30280FB8F8222AF82C00712041FD00774FE5FF58227
:2004680012042C85278212042C7F00AD2B7E001DBDFF011E8F037C00C3EB9DEC64808EF04E
:2004880063F08095F0501FEF2528FCE43529FDAE2A8C828D838EF0121B13F582C00712040E
:2004A8002CD0070F80C5AE2B7F001EBEFF011FEE2528FEEF3529FFAD2A8E828F838DF0127D
:2004C8001B13F58212043522AF82C00712041FD0078F0674FE5EF582C00712042C852C82E6
:2004E80012043512041FD00774014FF58212042C7F00AD307E001DBDFF011E8F037C00C37D
:20050800EB9DEC64808EF063F08095F0502ED2C2EF252DFCE4352EFDAE2FC007C006C005E3
:20052800C004120440AB82D004D005D006D0078C828D838EF0EB12137B0F80B6C2C2AE3048
:200548007F001EBEFF011FEE252DFEEF352EFFAD2FC007C006C005120449AC82D005D00624
:20056800D0078E828F838DF0EC12137B22753123752831752900752A40752720752B017569
:20058800823012045A753100752831752900752A40752721752B0175823012045A753100A5
:2005A800752831752900752A40752722752B0175823012045A2212011875822012012B123E
:2005C800131812134812133012134C121352E4F532F533853C46853D4785424A85434B8552
:2005E800364E85374F85365085375114C39546F54874FF9547F54974FFC3954EF55274FFFD
:20060800954FF55374FFC39550F55474FF9551F55574FFC3954AF54C74FF954BF54D8548E7
:20062800EA8549FA854CEB854DFB8552EC8553FC8554ED8555FD1206C812081A1212F18595
:200648003282853383A3751102751200121B2FE5828583F045F070E41207AC80DF2212084D
:20066800CC853C46853D4774FFC39546F54874FF9547F5498548EA8549FA120B7985424A95
:2006880085434B74FFC3954AF54C74FF954BF54D854CEB854DFB120E3485364E85374F85DE
:2006A800365085375174FFC3954EF55274FF954FF55374FFC39550F55474FF9551F5552277
:2006C8001201C97492C0E0741BC0E07480C0E0120144158115811581758200120281858221
:2006E8005A85835B1201C974ADC0E0741BC0E07480C0E012014415811581158175820012B3
:20070800028185825C85835D1201C92212076EAE82AF83C007C006C006C00774C8C0E07435
:200728001BC0E07480C0E012151FE58124FBF581D006D007C3EE9432EF9400502890005121
:20074800E0FEA3E0FF74082EF58274073FF58375111075120E121B2FE5828583F090005117
:20076800F0E5F0A3F022755851752D58752E00752F40752C007530017582E01204D0752DB2
:2007880058752E00752F40752C027530027582E01204D0AF587E00AC597D00EC4EF582EDC6
:2007A8004FF583221208A6E5828583F0900053F0E5F0A3F01201C9900053E0C0E0A3E0C06C
:2007C800E074CDC0E0741BC0E07480C0E0120144E58124FBF581900053E0FEA3E0FF741074
:2007E8002EFE740E3FFF900051E0FCA3E0FDEEC39CF582EF9DF58375111075120E121B2F79
:20080800AE82AF838E568F5785568285578312116322E4F532F533C3E5329401E5336480A2
:20082800948040F31201C974D0C0E0741BC0E07480C0E01201441581158115811212E112B6
:2008480001C9758200120281AE82AF83C007C0061201C9D006D007C007C006C006C0077434
:2008680004C0E0741CC0E07480C0E0120144E58124FBF581D006D007C007C006C006C007EF
:200888007404C0E0741CC0E07480C0E012151FE58124FBF581D006D0078E828F8322752DA0
:2008A80062752E00752F40752C027530027582C01204D0AF627E00AC637D00EC4EF582EDA7
:2008C8004FF58322900055E4F0A3F0900057F0A3F0F532F5331201C97423C0E0741CC0E0DF
:2008E8007480C0E0120144158115811581C3E5329432E5336480948040F31201C9E4F53279
:20090800F533C3E5329401E5336480948040F31201C97436C0E0741CC0E07480C0E01201F8
:20092800441581158115811212E11201C97472C0E0741CC0E07480C0E012014415811581FB
:2009480015811212E17F00C007C046C0477497C0E0741CC0E07480C0E012151FE58124FB67
:20096800F581D00774FFC39546F54874FF9547F5498548EA8549FA900057E0FDA3E0FE4D36
:200988006003020A35900055E0FDA3E0FE4D7027C0071201C9749DC0E0741CC0E07480C04C
:2009A800E0120144158115811581D007EF7006853A46853B477F01758201C007120281AD6D
:2009C80082AE83D007900055EDF0EEA3F0BD0112BE000FE54624ECF546E54734FFF5470292
:2009E800094F900055E0FDA3E0FEBD0211BE000E74142546F546E43547F54702094F900004
:200A080055E0FDA3E0FEBD0305BE0002800302094F900057E02401F0A3E03400F090005551
:200A2800E4F0A3F085463A85473B02094F900057E0FDA3E0FEBD0105BE00028003020AEB9F
:200A4800900055E0FDA3E0FE4D7022C0071201C974B5C0E0741CC0E07480C0E012014415D0
:200A68008115811581D007853C46853D47758201C007120281AD82AE83D007900055EDF08D
:200A8800EEA3F0BD0112BE000FE54624ECF546E54734FFF54702094F900055E0FDA3E0FE82
:200AA800BD0211BE000E74142546F546E43547F54702094F900055E0FDA3E0FEBD0305BEA8
:200AC8000002800302094F900057E02401F0A3E03400F0900055E4F0A3F085463C85473D50
:200AE80002094F900055E0FDA3E0FE4D7022C0071201C974CCC0E0741CC0E07480C0E01219
:200B08000144158115811581D007853E46853F47758201C007120281AD82AE83D0079000C0
:200B280055EDF0EEA3F0BD0112BE000FE54624ECF546E54734FFF54702094F900055E0FD30
:200B4800A3E0FEBD0211BE000E74142546F546E43547F54702094F900055E0FDA3E0FEBD4C
:200B68000305BE0002800302094F85463E85473F22900059E4F0A3F090005BF0A3F0F532AD
:200B8800F5331201C974E3C0E0741CC0E07480C0E0120144158115811581C3E5329432E5F0
:200BA800336480948040F31201C9E4F532F533C3E5329401E5336480948040F31201C974BE
:200BC80036C0E0741CC0E07480C0E01201441581158115811212E11201C97472C0E0741C63
:200BE800C0E07480C0E01201441581158115811212E17F00C007C04AC04B7497C0E0741C05
:200C0800C0E07480C0E012151FE58124FBF581D00774FFC3954AF54C74FF954BF54D854CC4
:200C2800EB854DFB90005BE0FDA3E0FE4D6003020CE4900059E0FDA3E0FE4D7027C0071205
:200C480001C974F5C0E0741CC0E07480C0E0120144158115811581D007EF700685404A850C
:200C6800414B7F01758201C007120281AD82AE83D007900059EDF0EEA3F0BD0112BE000FF1
:200C8800E54A24E2F54AE54B34FFF54B020BFC900059E0FDA3E0FEBD0211BE000E741E2592
:200CA8004AF54AE4354BF54B020BFC900059E0FDA3E0FEBD0305BE00028003020BFC90000E
:200CC8005BE02401F0A3E03400F0900059E4F0A3F07F00854A40854B41020BFC90005BE052
:200CE800FDA3E0FEBD0105BE00028003020DA1900059E0FDA3E0FE4D7027C0071201C97476
:200D0800B5C0E0741CC0E07480C0E0120144158115811581D007EF700685424A85434B7FBA
:200D280001758201C007120281AD82AE83D007900059EDF0EEA3F0BD0112BE000FE54A24E8
:200D4800E2F54AE54B34FFF54B020BFC900059E0FDA3E0FEBD0211BE000E741E254AF54A9B
:200D6800E4354BF54B020BFC900059E0FDA3E0FEBD0305BE00028003020BFC90005BE02477
:200D880001F0A3E03400F0900059E4F0A3F07F00854A42854B43020BFC900059E0FDA3E06E
:200DA800FE4D7027C0071201C97415C0E0741DC0E07480C0E0120144158115811581D007C8
:200DC800EF700685444A85454B7F01758201C007120281AD82AE83D007900059EDF0EEA31C
:200DE800F0BD0112BE000FE54A24E2F54AE54B34FFF54B020BFC900059E0FDA3E0FEBD0238
:200E080011BE000E741E254AF54AE4354BF54B020BFC900059E0FDA3E0FEBD0305BE000234
:200E28008003020BFC854A44854B452290005DE4F0A3F0F532F5331201C97437C0E0741D79
:200E4800C0E07480C0E0120144158115811581C3E5329432E5336480948040F31201C9E49A
:200E6800F532F533C3E5329401E5336480948040F31201C97436C0E0741CC0E07480C0E07F
:200E88001201441581158115811212E11201C97472C0E0741CC0E07480C0E0120144158119
:200EA800158115811212E17F0090005FE4F0A3F0C007C04EC04F7497C0E0741CC0E0748071
:200EC800C0E012151FE58124FBF581D00774FFC3954EF55274FF954FF55374FFC39550F543
:200EE8005474FF9551F5558552EC8553FC8554ED8555FD90005FE0FDA3E0FE4D6003020FB1
:200F0800D090005DE0FDA3E0FE4D702DC0071201C9744AC0E0741DC0E07480C0E0120144A7
:200F2800158115811581D007EF700C85344E85354F8534508535517F01758201C00712022E
:200F480081AD82AE83D00790005DEDF0EEA3F0BD011DBE001AE54E24E2F54EE54F34FFF5FB
:200F68004F741E2550F550E43551F551020EB890005DE0FDA3E0FEBD021DBE001A741E25A0
:200F88004EF54EE4354FF54FE55024E2F550E55134FFF551020EB890005DE0FDA3E0FEBD0D
:200FA8000305BE00028003020EB890005FE02401F0A3E03400F090005DE4F0A3F07F008533
:200FC8004E34854F35020EB890005FE0FDA3E0FEBD0105BE000280030210AA90005DE0FDDD
:200FE800A3E0FE4D702DC0071201C9744AC0E0741DC0E07480C0E01201441581158115819F
:20100800D007EF700C85364E85374F8536508537517F01758201C007120281AD82AE83D056
:201028000790005DEDF0EEA3F0BD011DBE001AE54E24E2F54EE54F34FFF54F741E2550F580
:2010480050E43551F551020EB890005DE0FDA3E0FEBD021DBE001A741E254EF54EE4354F11
:20106800F54FE55024E2F550E55134FFF551020EB890005DE0FDA3E0FEBD0305BE000280DD
:2010880003020EB890005FE02401F0A3E03400F090005DE4F0A3F07F00854E36854F370209
:2010A8000EB890005FE0FDA3E0FEBD0205BE0002800302116290005DE0FDA3E0FE4D702B66
:2010C800C0071201C974CCC0E0741CC0E07480C0E0120144158115811581D007EF700C85E1
:2010E800384E85394F853850853951758201C007120281AD82AE83D00790005DEDF0EEA353
:20110800F0BD0112BE000FE54E24E2F54EE54F34FFF54F020EB890005DE0FDA3E0FEBD0241
:2011280011BE000E741E254EF54EE4354FF54F020EB890005DE0FDA3E0FEBD0305BE00023E
:201148008003020EB8854E38854F3985365085375185364E85374F020EB822AE82AF83C3E9
:2011680074AC9E740D9F4008EE9464EF94005009900063E4F0A3F08033C374089E74079F7B
:2011880050138E048F059000637410C39CF0740E9DA3F080178E118F1290FFFF121396E541
:2011A800828583F0900063F0E5F0A3F0900063E0FEA3E0FF8E118F12855A82855B83C00744
:2011C800C006121396AC82AD83D006D007900065E0FAA3E0FBEAC39EF511EB9FF512855C6B
:2011E80082855D83C007C006C005C004121396AA82AB83D004D005D006D007ECC39AFCED4D
:201208009BFD8C028D03EA253CF546EB353DF547C3E49CFCE49DFDEC2536F54EED3537F55C
:201228004FEA2536F550EB3537F551900065EEF0EFA3F0C3E546953EE547953F4008853E0F
:2012480046853F478011C3E53A9546E53B95474006853A46853B47C3E54E9538E54F9539D4
:20126800400885384E85394F8011C3E534954EE535954F400685344E85354FC3E55095389D
:20128800E551953940088538508539518011C3E5349550E5359551400685345085355174BE
:2012A800FFC39546F54874FF9547F54974FFC3954EF55274FF954FF55374FFC39550F5545C
:2012C80074FF9551F5558548EA8549FA8552EC8553FC8554ED8555FD22120202AF82BF2A5E
:2012E8000280051212F180F12290006174012532F0E43533A3F0900061E0FEA3E0FFC3E532
:20130800329EE53364808FF063F08095F040EF22AFA474CD5FF5A4AFBD74DF5FF5BD43A58D
:201328000F53A5207590202275D98175DAC275DBC275DCC275DDC275D84043E608D2AF22BD
:2013480075E1272275CF93D2C62275D10375AA8043AB0122C0E0C0D010DF02800E75E9004F
:1313680075F9700532E4B53202053353D8C0D0D0D0E032EB
:201B69000A54797065206469676974733B20656E6420772F230020202020202563256325BC
:201B8900632563256300256300506C6561736520656E7465722061206B702076616C7565F0
:201BA9003A0A2000506C6561736520656E7465722061206B642076616C75653A0A20000D02
:201BC9000A25750025640043616C6962726174696F6E3A0A48656C6C6F20776F726C6421C6
:201BE9000A3031325F3334355F3637383A0A61626320646566206768696A000D0A5468658D
:201C0900206465736972656420646972656374696F6E2069733A2025640052756464657295
:201C29002043616C6962726174696F6E00676F206C6566743A20707265737320310A206709
:201C49006F2072696768743A20707265737320320A5072657373202A20666F72206E6578C2
:201C6900742073637265656E000A20636F6E6669726D3A20707265737320330A20707265E4
:201C89007373202A20746F20626567696E000D0A202575004E6F772063616C69627261747C
:201CA900696E67204D696E5F50570A004E6F772063616C6962726174696E672043656E5F20
:201CC9005057004E6F772063616C6962726174696E67204D61785F505700416E676C65202D
:201CE90043616C6962726174696F6E004E6F772063616C6962726174696E67204D696E5FFC
:201D0900505720555020414E474C45004E6F772063616C6962726174696E67204D61785F4E
:201D2900505720444F574E20414E474C45005468727573742043616C6962726174696F6E02
:181D4900004E6F772063616C6962726174696E67204D696E5F50570064
:041D6C000000000073
:06008000E478FFF6D8FD54
:20005E007904E94400601B7A01901D6C786375AF00E493F2A308B8000205AFD9F4DAF2753A
:02007E00AFFFD2
:1B137B0020F71130F6138883A88220F509F6A8837583002280FEF280F5F02271
:1D139600E5828511F0A4C582C0F08512F0A4D0F025F0C5838511F0A42583F58322FE
:2013B300C00F85810FC082058105810581E50F24FBF8A90F0909E6F70809E6F70809E6F7D4
:2013D300A80F080886820886830886F0121B13FAA3121B13FBA3121B13FF74012AFCE43BE8
:2013F300FD8F06A80F080886820886830886F0EC12137BA3ED12137BA3EE12137B8A828B66
:20141300838FF0A80F08E612137B850F81D00F2285820C85830D85F00E75700C7571007565
:201433007240850873850974850A75850B769013B31215F1AE82AF83AB0CAC0DAD0E8B82D3
:201453008C838DF0E412137B8E828F8322C00F85810FE50F24F8FF8F76E50F24FBFF8F701C
:20147300757100757240E50F24F8F886730886740886759013B31215F1AE82AF83E50F245E
:1B149300FBF886030886040886058B828C838DF0E412137B8E828F83D00F225D
:2014AE00E511451260467A01E51125E0F511E512334012F512E5829511E583951240030AC3
:2014CE0080E6C3E51213F512E51113F511C3E5829511F5F0E58395124005F58385F082C37A
:0D14EE00E51213F512E51113F511DAE122F4
:200086007800E84400600A790175AF00E4F309D8FC7862E84400600C7901900001E4F0A306
:0400A600D8FCD9FAAF
:2014FB00C00F85810F12012BD00F2285827385837485F075E4F570F571F572851076901409
:20151B00FB0215F1C00F85810FE50F24FBFF8F76E4F570F571F572E50F24FBF8867308860A
:0D153B00740886759014FB1215F1D00F2274
:20154800AF82C066C067C0681215558007C064C0658F8222158115811581056EE4B56E0220
:20156800056F22AF8274302FFF24C6500A74072FFF3000034307208F82021548E582FFC4A6
:20158800540FF582C00712156BD007740F5FF58202156B858211856912856A13856B1485BB
:2015A8006C15AA6D751620EA2AFAE515235401FF8A064EFAE5122512F512E51333F513E53C
:2015C8001433F514E51533F515C3EA95114008EAC39511FA431201D516CD85126985136A84
:2015E80085146B85156C8A6D22858264858365857066857167857268E4F56EF56FAD73AE58
:2016080074AF758D828E838FF0121B13FC74012DF573E43EF5748F75ECFF7003021AF4BF89
:2016280025028003021AECC201C202C203C204C205C206C207C2087577007578007CFFAABE
:2016480073AB74AE758A828B838EF0121B13FFA3AA82AB838A738B748E75BF25078F8212EC
:20166800154880998F7A74D0257A5026E57A24C64020BCFF12E57875F00AA4FD2F24D0F58F
:201688007870C2D20280BEEC75F00AA42F24D0FC80B3BF2E07BCFFAD7C0080A98F05BD6182
:2016A80000400CED248540075307DFD2008002C200BF2002806DBF2B028063BF2D02805946
:2016C800BF42028063BF43028068BF4403021896BF46030218ACBF480302164DBF49030230
:2016E8001896BF4A0302164DBF4C028040BF4F0302189DBF500302182BBF5302805CBF54D4
:201708000302164DBF55030218A2BF58030218A7BF5A0302164D0218B0D20102164DD20353
:2017280002164DD20402164DD20602164DD20702164D30060CE57614FE8E768E0187078036
:2017480011E57624FEFE8E768E018705098706198D078F821215480218B9E57624FDFE8E38
:20176800768E01870309870509870619198B698D6A8E6B8B828D838EF0C004121AFBAD82DC
:20178800AE83D004BCFF028D0420012AC3ED95785024E578C39DF578AE788E031EEB601414
:2017A800758220C006C005C004121548D004D005D00680E68E788C06856982856A83856BFD
:2017C800F0121B13FCFF602F8E041EC374808CF063F08095F050208F82C006C00512154891
:2017E800D005D006AA69AB6AAC6B0ABA00010B8A698B6A8C6B80C12001030218B9C3ED95CB
:201808007840030218B9E578C39DF578AE788E041EEC70030218B7758220C006121548D0E6
:201828000680EBE57624FDFC8C768C01870209870309870419198A698B6A8C6BAC6BBC8014
:201848000040047F438014BC600040047F50800BBC400040047F4980027F588F82C00712E1
:20186800154875823A121548758230121548758278121548D007BF4902800BBF50028006EC
:20188800856A821215848569821215848023D20575770A801C757708801775770A80127575
:2018A8007710800DD20880098F8212154880028E7830085CE57624FCFE8E768E018702096F
:2018C80087030987040987061919198A698B6A8C6B8E6C756961756A1D756B8085697B859F
:2018E8006A7C856B7D7401257BFAE4357CFCAE7D8A698C6A8E6B857B82857C83857DF012D6
:201908001B13FEFF70030216058F8212154880CCE577700302160575791C30062DE5761470
:20192800FC8C768C01E7FA3395E0FBFCFE8A698B6A8C6B8E6C200566AA697B007C007E00AA
:201948008A698B6A8C6B8E6C8054300721E57624FCFE8E768E01870209870309870409872E
:20196800061919198A698B6A8C6B8E6C8030E57624FEFE8E768E01870409870619EE339587
:20198800E0FBFA8C698E6A8B6B8A6C200510AA69AB6A7C007E008A698B6A8C6B8E6C30052C
:2019A80022E56C30E71BC3E49569FAE4956AFBE4956BFCE4956CFE8A698B6A8C6B8E6C80E1
:2019C80002C205D209A9797E00756D00857782C006C00112159BD001D00620090BE56DC421
:2019E800FCE7FB4CF7198002A76D0EB209E569456A456B456C70D289798E05E578700375CC
:201A08007801200224200121ED04FEAC78C3EE9C5015758220C006C005C004121548D0044F
:201A2800D005D0061C80E68C7830050E75822DC005121548D00515788023ED602030030E1F
:201A480075822BC005121548D0051578800F30040C758220C005121548D005157820012207
:201A6800AE788E041EC3ED9C502B3002047C3080027C208C82C006C005121548D005D0060E
:201A880080E0C3ED95785008E578C39DF578800775780080028E78A9798D068E051EED60F0
:201AA80026B20920090A09E7C4540FFD8D6D80078705740F5DF56D856D82C006C001121585
:201AC8006BD001D00680D4200103021605AE788E051EED7003021605758220C006121548B7
:131AE800D00680EB8F82121548021605856E82856F8322FF
:0B1D61003C4E4F20464C4F41543E00CA
:181AFB00AA82AB83121B136003A380F8C3E5829AF582E5839BF58322E3
:0D00510075817D121B65E582600302004E83
:1C1B130020F71430F6148883A88220F507E6A88375830022E280F7E49322E022E1
:201B2F00C2D5E58330E70DD2D5E4C39582F582E49583F583E51230E70BE4C39511F511E4D3
:161B4F009512F5121214AE30D50BE4C39582F582E49583F5832223
:041B65007582002263
:00000001FF
