:040000000200513277
:01000B0032C2
:0100130032BA
:01001B0032B2
:0100230032AA
:01002B0032A2
:01003300329A
:01003B003292
:01004300328A
:03004B0002124F4F
:2000AA00E4F532F5337534D07535077536BE75370A7538AC75390D753AD0753B07753CBE01
:1E00CA00753D0A753EAC753F0D7540D07541077542BE75430A7544AC75450D02004E47
:03004E000205BEEA
:2000E80075B1677E007F011EBEFF011FEE4F70F7E5B130E7FB75B288227598507589207565
:200108008DDCD28E438E10438780D29943A4012275FFDE75FFAD1200E812010143E1044382
:20012800E34022AF8210990280FB8F992210980280FB85998212012B85998222C00F858137
:200148000FE50F24FBF886820886830886F0121B7BE5828583F045F070028062E50F24FB43
:20016800FF8F0BE50F24FBF8860808860908860A90000175F00012138190000175F0001272
:200188001B7BAE827F00C3EF9E501FEF2401F582E43400F583E0FDBD0A0DEF2401F582E418
:2001A8003400F583740DF00F80DC752801752900752A007527008E2B7582C612045AD00F73
:2001C8002275220074C025224017752D22752E00752F40752C007530017582C61204D080D7
:2001E800E375230C752823752900752A40752700752B017582C612045A22752D25752E003D
:20020800752F40752C017530027582C61204D074FFB52505758200805F7F008F068EF00547
:20022800F07C017D008006EC2CFCED33FDD5F0F7AA257B00EA5204EB5205EC4D6007743148
:200248002FF58280330E8E07BE080040D0E52630E0057582398021E52630E10575822A8011
:2002680017E52630E205758230800DE52630E30575822380037582FF22AF82E4FDFEEF7042
:200288001DC006C005749CC0E0741DC0E07480C0E0120144158115811581D005D006C006AF
:2002A800C0057408C0E0E4C0E07408C0E0E4C0E07408C0E0E4C0E07408C0E0E4C0E0740875
:2002C800C0E0E4C0E074B2C0E0741DC0E07480C0E0120144E58124F3F58190A12075F00760
:2002E800E41203F5D005D0067F00C007C006C005120202AC82D005D006D0078C03BCFF027A
:200308008003BB2A17902710E4F5F0C007C006C0051203F5D005D006D00780CEBB232AC0D2
:2003280006C005120202AC82D005D006BC2313902710E4F5F0C006C0051203F5D005D00639
:2003480080DD8D828E830203F4EBFA3395E0FCC007C006C005C004C003C002C002C0047401
:20036800C2C0E0741DC0E07480C0E0120144E58124FBF581D002D003D004D005D0068D113A
:200388008E1290000AC004C003C0021212F4A882A983D002D003D004D007EA28F8EC39F9EC
:2003A800E824D0FDE934FFFEC007C006C005C003120202AC82D003D005D006D007ECB503F0
:2003C8001B902710E4F5F0C007C006C005C0031203F5D003D005D006D00780CC0FC3EF6485
:2003E80080948550030202F28D828E8322AC82AD83AEF0FF780079007A007B00C3E89CE9C0
:200408009DEA9EEB9F500F08B8000909B900050ABA00E90B80E62220C7FDD2C530C3FDC2C9
:20042800C5C2C3228582C210C30280FB228582C2D2C410C30280FB2230C3FD85C282C2C3FE
:200448002230C3FDAFC2C2C3D2C410C30280FB8F8222AF82C00712041FD00774FE5FF58227
:2004680012042C85278212042C7F00AD2B7E001DBDFF011E8F037C00C3EB9DEC64808EF04E
:2004880063F08095F0501FEF2528FCE43529FDAE2A8C828D838EF0121C56F582C0071204CA
:2004A8002CD0070F80C5AE2B7F001EBEFF011FEE2528FEEF3529FFAD2A8E828F838DF0127D
:2004C8001C56F58212043522AF82C00712041FD0078F0674FE5EF582C00712042C852C82A2
:2004E80012043512041FD00774014FF58212042C7F00AD307E001DBDFF011E8F037C00C37D
:20050800EB9DEC64808EF063F08095F0502ED2C2EF252DFCE4352EFDAE2FC007C006C005E3
:20052800C004120440AB82D004D005D006D0078C828D838EF0EB1212A90F80B6C2C2AE301B
:200548007F001EBEFF011FEE252DFEEF352EFFAD2FC007C006C005120449AC82D005D00624
:20056800D0078E828F838DF0EC1212A922753123752831752900752A40752720752B01753C
:20058800823012045A753100752831752900752A40752721752B0175823012045A753100A5
:2005A800752831752900752A40752722752B0175823012045A2212011875822012012B123E
:2005C800120E12123B12122612123F121245E4F532F533853C46853D4785424A85434B8592
:2005E800364E85374F14C39546F54874FF9547F54974FFC3954EF55074FF954FF55174FF7A
:20060800C3954AF54C74FF954BF54D8548EA8549FA854CEB854DFB8550EC8551FC1207C3E3
:20062800853C46853D4774FFC39546F54874FF9547F5498548EA8549FA120A35120C9E85B6
:2006480032118533129000141212F4AE82AF83C006C00774C5C0E0741DC0E07480C0E0122A
:200668001585E58124FBF5811211F380D2227E647F0074012532FCE43533FD4C7007120606
:20068800B2AE82AF83C3EE9432EF9400501B74082552F58274073553F58375111075120EC9
:2006A800121C7285825285835322752D58752E00752F40752C027530027582E01204D0AF85
:2006C800587E00AC597D00EC4EF582ED4FF5832212079D85825485835574102554FE740E48
:2006E8003555FFEEC39552F582EF9553F58375111075120E121C72AE82AF838E568F57858F
:200708005682855783120F0722E4F532F533C3E5329401E5336480948040F31201C974CD4E
:20072800C0E0741DC0E07480C0E01201441581158115811211E31201C9758200120281AE17
:2007480082AF83C007C0061201C9D006D007C007C006C006C0077401C0E0741EC0E0748072
:20076800C0E0120144E58124FBF581D006D007C007C006C006C0077401C0E0741EC0E074FD
:2007880080C0E0121585E58124FBF581D006D0078E828F8322752D5A752E00752F40752C75
:2007A800027530027582C01204D0AF5A7E00AC5B7D00EC4EF582ED4FF58322E4FEFFFCFD7F
:2007C800F532F533C007C006C005C0041201C97420C0E0741EC0E07480C0E01201441581E9
:2007E80015811581D004D005D006D007C3E5329432E5336480948040F3C007C006C005C07A
:20080800041201C9D004D005D006D007E4F532F533C3E5329401E5336480948040F3C007EE
:20082800C006C005C0041201C97433C0E0741EC0E07480C0E012014415811581158112113C
:20084800E31201C9746FC0E0741EC0E07480C0E01201441581158115811211E3D004D005C0
:20086800D006D007C007C006C005C004C046C0477494C0E0741EC0E07480C0E0121585E5A1
:200888008124FBF581D004D005D006D00774FFC39546F54874FF9547F5498548EA8549FA8A
:2008A800EC4D6003020931EE4F7026C005C0041201C9749AC0E0741EC0E07480C0E0120199
:2008C80044158115811581D004D005853A46853B47758201C005C004120281AE82AF83D00D
:2008E80004D005BE0112BF000FE54624ECF546E54734FFF54702086CBE0211BF000E7414CB
:200908002546F546E43547F54702086CBE0305BF0002800302086C0CBC00010D7E007F00C4
:2009280085463A85473B02086CBC0105BD000280030209BEEE4F7026C005C0041201C974B4
:20094800B2C0E0741EC0E07480C0E0120144158115811581D004D005853C46853D477582AE
:2009680001C005C004120281AE82AF83D004D005BE0112BF000FE54624ECF546E54734FFD1
:20098800F54702086CBE0211BF000E74142546F546E43547F54702086CBE0305BF000280B8
:2009A8000302086C0CBC00010D7E007F0085463C85473D02086CEE4F7026C005C0041201EE
:2009C800C974C9C0E0741EC0E07480C0E0120144158115811581D004D005853E46853F47CD
:2009E800758201C005C004120281AE82AF83D004D005BE0112BF000FE54624ECF546E5478D
:200A080034FFF54702086CBE0211BF000E74142546F546E43547F54702086CBE0305BF0086
:200A280002800302086C85463E85473F22E4FEFFFCFDF532F533C007C006C005C00412012B
:200A4800C974E0C0E0741EC0E07480C0E0120144158115811581D004D005D006D007C3E5F4
:200A6800329432E5336480948040F3C007C006C005C0041201C9D004D005D006D007E4F512
:200A880032F533C3E5329401E5336480948040F3C007C006C005C0041201C97433C0E07495
:200AA8001EC0E07480C0E01201441581158115811211E31201C9746FC0E0741EC0E0748038
:200AC800C0E01201441581158115811211E3D004D005D006D007C007C006C005C004C04AD9
:200AE800C04B7494C0E0741EC0E07480C0E0121585E58124FBF581D004D005D006D0077404
:200B0800FFC3954AF54C74FF954BF54D854CEB854DFBEC4D6003020BA0EE4F7023C005C02F
:200B28000474F2C0E0741EC0E07480C0E0120144158115811581D004D00585404A85414BFB
:200B4800758201C005C004120281AE82AF83D004D005BE0112BF000FE54A24F6F54AE54B15
:200B680034FFF54B020ADEBE0211BF000E740A254AF54AE4354BF54B020ADEBE0305BF0033
:200B8800028003020ADE0CBC00010D7E007F00854A40854B41020ADEBC0105BD00028003FD
:200BA800020C2AEE4F7023C005C00474B2C0E0741EC0E07480C0E0120144158115811581F7
:200BC800D004D00585424A85434B758201C005C004120281AE82AF83D004D005BE0112BF8F
:200BE800000FE54A24F6F54AE54B34FFF54B020ADEBE0211BF000E740A254AF54AE4354B9B
:200C0800F54B020ADEBE0305BF00028003020ADE0CBC00010D7E007F00854A42854B4302B5
:200C28000ADEEE4F7023C005C0047412C0E0741FC0E07480C0E0120144158115811581D095
:200C480004D00585444A85454B758201C005C004120281AE82AF83D004D005BE0112BF00DA
:200C68000FE54A24F6F54AE54B34FFF54B020ADEBE0211BF000E740A254AF54AE4354BF525
:200C88004B020ADEBE0305BF00028003020ADE854A44854B4522E4FEFFFCFDF532F533C0F0
:200CA80007C006C005C0041201C97434C0E0741FC0E07480C0E0120144158115811581D002
:200CC80004D005D006D007C3E5329432E5336480948040F3C007C006C005C0041201C9D0E1
:200CE80004D005D006D007E4F532F533C3E5329401E5336480948040F3C007C006C005C06F
:200D0800041201C97433C0E0741EC0E07480C0E01201441581158115811211E31201C9746F
:200D28006FC0E0741EC0E07480C0E01201441581158115811211E3D004D005D006D007C0A1
:200D480007C006C005C004C04EC04F7494C0E0741EC0E07480C0E0121585E58124FBF58103
:200D6800D004D005D006D00774FFC3954EF55074FF954FF5518550EC8551FCEC4D600302E9
:200D88000E09EE4F7023C005C0047447C0E0741FC0E07480C0E0120144158115811581D0D0
:200DA80004D005853446853547758201C005C004120281AE82AF83D004D005BE0112BF00A1
:200DC8000FE54E24F6F54EE54F34FFF54F020D47BE0211BF000E740A254EF54EE4354FF53C
:200DE8004F020D47BE0305BF00028003020D470CBC00010D7E007F00854E34854F35020DF4
:200E080047BC0105BD00028003020E93EE4F7023C005C00474B2C0E0741EC0E07480C0E0F7
:200E2800120144158115811581D004D005853646853747758201C005C004120281AE82AFEF
:200E480083D004D005BE0112BF000FE54E24F6F54EE54F34FFF54F020D47BE0211BF000E90
:200E6800740A254EF54EE4354FF54F020D47BE0305BF00028003020D470CBC00010D7E0080
:200E88007F00854636854737020D47EE4F7023C005C00474C9C0E0741EC0E07480C0E01263
:200EA8000144158115811581D004D00585384E85394F758201C005C004120281AE82AF83EA
:200EC800D004D005BE0112BF000FE54E24F6F54EE54F34FFF54F020D47BE0211BF000E741F
:200EE8000A254EF54EE4354FF54F020D47BE0305BF00028003020D47854E38854F39228509
:200F0800825C85835DC3E55C9408E55D94074003021065855C82855D831214FBAA82AB830C
:200F2800ACF0FD7466C0E0C0E07486C0E07440C0E08A828B838CF0ED121B93AA82AB83ACBF
:200F4800F0FDE58124FCF581853C82853D83C005C004C003C0021214FBA882A983AEF0FFF6
:200F6800D002D003D004D005C002C003C004C005888289838EF0EF12126EAC82AD83AEF0FC
:200F8800FFE58124FCF581854682854783C007C006C005C0041214FBA882A983AAF0FBD0C0
:200FA80004D005D006D007C004C005C006C007888289838AF0EB121279AF82E58124FCF5C9
:200FC80081EF6003021056855C82855D831214FBAC82AD83AEF0FF7466C0E0C0E07486C016
:200FE800E07440C0E08C828D838EF0EF121B93AC82AD83AEF0FFE58124FCF581853C8285AB
:201008003D83C007C006C005C0041214FBA882A983AAF0FBD004D005D006D007C004C00507
:20102800C006C007888289838AF0EB12126EAC82AD83AEF0FFE58124FCF5818C828D838E6B
:20104800F0EF1215078582468583470211CFE54624F6F546E54734FFF5470211CFE55C457A
:201068005D600A7410B55C0E740EB55D09853C46853D470211CF7410C3955CF582740E95A9
:201088005DF5831214FBAC82AD83AEF0FF7433C0E0C0E074F3C0E0C4C0E08C828D838EF069
:2010A800EF121B93AC82AD83AEF0FFE58124FCF581853C82853D83C007C006C005C00412D2
:2010C80014FBA882A983AAF0FBD004D005D006D007C004C005C006C007888289838AF0EB27
:2010E800121459AC82AD83AEF0FFE58124FCF581854682854783C007C006C005C00412149A
:20110800FBA882A983AAF0FBD004D005D006D007C004C005C006C007888289838AF0EB12E8
:2011280012C4AF82E58124FCF581EF60030211C47410C3955CF582740E955DF5831214FBBF
:20114800AC82AD83AEF0FF7433C0E0C0E074F3C0E0C4C0E08C828D838EF0EF121B93AC82C1
:20116800AD83AEF0FFE58124FCF581853C82853D83C007C006C005C0041214FBA882A98389
:20118800AAF0FBD004D005D006D007C004C005C006C007888289838AF0EB121459AC82AD71
:2011A80083AEF0FFE58124FCF5818C828D838EF0EF121507858246858347800B740A254642
:2011C800F546E43547F54774FFC39546F54874FF9547F5498548EA8549FA22120202AF826D
:2011E800BF2A0280051211F380F12274012532FEE43533FFC3E5329EE53364808FF063F073
:201208008095F040EF22AFA474CD5FF5A4AFBD74DF5FF5BD43A50F53A5207590202275D970
:201228008175DAC275DBC275DCC275D84043E608D2AF2275E1272275CF93D2C62275D10315
:2012480075AA8043AB0122C0E0C0D010DF02800E75E90075F9700532E4B53202053353D884
:06126800C0D0D0D0E0323E
:201D9C000A54797065206469676974733B20656E6420772F23002020202020256325632587
:201DBC006325632563002563000D0A2575206D730043616C6962726174696F6E3A0A486502
:201DDC006C6C6F20776F726C64210A3031325F3334355F3637383A0A6162632064656620C2
:201DFC006768696A000D0A546865206465736972656420646972656374696F6E2069733AD6
:201E1C00202564005275646465722043616C6962726174696F6E00676F206C6566743A2014
:201E3C00707265737320310A20676F2072696768743A20707265737320320A5072657373DA
:201E5C00202A20666F72206E6578742073637265656E000A20636F6E6669726D3A207072E2
:201E7C0065737320330A207072657373202A20746F20626567696E000D0A202575004E6F51
:201E9C00772063616C6962726174696E67204D696E5F50570A004E6F772063616C696272FA
:201EBC006174696E672043656E5F5057004E6F772063616C6962726174696E67204D61789D
:201EDC005F505700416E676C652043616C6962726174696F6E004E6F772063616C696272B0
:201EFC006174696E67204D696E5F505720555020414E474C45004E6F772063616C6962725C
:201F1C006174696E67204D61785F505720444F574E20414E474C450054687275737420437A
:201F3C00616C6962726174696F6E004E6F772063616C6962726174696E67204D696E5F5099
:021F5C0057002C
:0B126E00A8811818C6B2E7C602145988
:06008000E478FFF6D8FD54
:20005E007900E94400601B7A00901F69785175AF00E493F2A308B8000205AFD9F4DAF27552
:02007E00AFFFD2
:20127900FFA88118181214D0D2D133E6400730E70B7582012220E70675820022C2D11214E9
:10129900B2E97003F5822230D101B3E433F5822239
:1B12A90020F71130F6138883A88220F509F6A8837583002280FEF280F5F02244
:2012C400FFA88118181214D0D2D133E6400730E70B7582002220E70675820122C2D112149E
:1012E400B2E97003F5822220D101B3E433F58222FE
:1D12F400E5828511F0A4C582C0F08512F0A4D0F025F0C5838511F0A42583F58322A1
:20131100C00F85810FC082058105810581E50F24FBF8A90F0909E6F70809E6F70809E6F776
:20133100A80F080886820886830886F0121C56FAA3121C56FBA3121C56FF74012AFCE43BBE
:20135100FD8F06A80F080886820886830886F0EC1212A9A3ED1212A9A3EE1212A98A828B81
:20137100838FF0A80F08E61212A9850F81D00F2285820C85830D85F00E756A0C756B0075E7
:201391006C4085086D85096E850A6F850B70901311121657AE82AF83AB0CAC0DAD0E8B82CF
:2013B1008C838DF0E41212A98E828F8322C00F85810FE50F24F8FF8F70E50F24FBFF8F6A9E
:2013D100756B00756C40E50F24F8F8866D08866E08866F901311121657AE82AF83E50F245A
:1B13F100FBF886030886040886058B828C838DF0E41212A98E828F83D00F22D3
:20140C00E511451260467A01E51125E0F511E512334012F512E5829511E583951240030A65
:20142C0080E6C3E51213F512E51113F511C3E5829511F5F0E58395124005F58385F082C31C
:0D144C00E51213F512E51113F511DAE12296
:200086007800E84400600A790175AF00E4F309D8FC7850E84400600C7901900001E4F0A318
:0400A600D8FCD9FAAF
:20145900121CBB7900E583B58202800D5003121B61E583C39582121CE9E5D0C465D020E1FA
:2014790017EA2DFAEB3EFBEC3FFC50097401121CE9EC4480FC021512C3EA9DFAEB9EFBEC72
:191499009FFC500FC3E499F9E49AFAE49BFBE49CFCB2D1121D2C02151292
:2014B2007901AA82E68F82B5821318E6B5F00E18E6B5830918E68A82B58202790022B48031
:2014D2000FE5F0700AE5837006E58270027F00EFB6801518B6001018B6000B18B600060899
:0914F2000808760022080808220F
:0C14FB00E4AC83AB82FAF9748E021CB1E1
:0B1507007F8E121D65F58385F08222A7
:20151200B98003EA13B34010EA2401FAE43BFBE43CFC50047C800582BC000EBB000BBA001D
:2015320008E4F5F0F583F58222A2D1E582138CF092F78B838A8222E4F583F58275F080F4DD
:0F155200A2D11322E4F583F58275F0C0747F22D5
:20156100C00F85810F12012BD00F2285826D85836E85F06FE4F56AF56BF56C8510709015CB
:2015810061021657C00F85810FE50F24FBFF8F70E4F56AF56BF56CE50F24FBF8866D0886F5
:0D15A1006E08866F901561121657D00F224C
:2015AE00AF82C060C061C0621215BB8007C05EC05F8F82221581158115810568E4B568027E
:2015CE00056922AF8274302FFF24C6500A74072FFF3000034307208F820215AEE582FFC4E0
:2015EE00540FF582C0071215D1D007740F5FF5820215D1858211856312856413856514859B
:20160E006615AA67751620EA2AFAE515235401FF8A064EFAE5122512F512E51333F513E5E1
:20162E001433F514E51533F515C3EA95114008EAC39511FA431201D516CD85126385136429
:20164E008514658515668A672285825E85835F856A60856B61856C62E4F568F569AD6DAE45
:20166E006EAF6F8D828E838FF0121C56FC74012DF56DE43EF56E8F6FECFF7003021B5ABF96
:20168E0025028003021B52C201C202C203C204C205C206C207C2087571007572007CFFAAFD
:2016AE006DAB6EAE6F8A828B838EF0121C56FFA3AA82AB838A6D8B6E8E6FBF25078F821266
:2016CE0015AE80998F7474D025745026E57424C64020BCFF12E57275F00AA4FD2F24D0F5DB
:2016EE007270C2D20280BEEC75F00AA42F24D0FC80B3BF2E07BCFFAD7C0080A98F05BD6122
:20170E0000400CED248540075307DFD2008002C200BF2002806DBF2B028063BF2D028059DF
:20172E00BF42028063BF43028068BF44030218FCBF4603021912BF48030216B3BF49030296
:20174E0018FCBF4A030216B3BF4C028040BF4F03021903BF5003021891BF5302805CBF54D4
:20176E00030216B3BF5503021908BF580302190DBF5A030216B3021916D2010216B3D20386
:20178E000216B3D2040216B3D2060216B3D2070216B330060CE57014FE8E708E0187078044
:2017AE0011E57024FEFE8E708E018705098706198D078F821215AE02191FE57024FDFE8E17
:2017CE00708E01870309870509870619198B638D648E658B828D838EF0C004121B7BAD820D
:2017EE00AE83D004BCFF028D0420012AC3ED95725024E572C39DF572AE728E031EEB6014C6
:20180E00758220C006C005C0041215AED004D005D00680E68E728C06856382856483856548
:20182E00F0121C56FCFF602F8E041EC374808CF063F08095F050208F82C006C0051215AE80
:20184E00D005D006AA63AB64AC650ABA00010B8A638B648C6580C120010302191FC3ED9521
:20186E0072400302191FE572C39DF572AE728E041EEC700302191D758220C0061215AED064
:20188E000680EBE57024FDFC8C708C01870209870309870419198A638B648C65AC65BC80D2
:2018AE000040047F438014BC600040047F50800BBC400040047F4980027F588F82C007127B
:2018CE0015AE75823A1215AE7582301215AE7582781215AED007BF4902800BBF50028006EE
:2018EE008564821215EA8563821215EA8023D20575710A801C757108801775710A80127561
:20190E007110800DD20880098F821215AE80028E7230085CE57024FCFE8E708E01870209BA
:20192E0087030987040987061919198A638B648C658E6675635E75641F756580856375856F
:20194E00647685657774012575FAE43576FCAE778A638C648E658575828576838577F012BD
:20196E001C56FEFF700302166B8F821215AE80CCE571700302166B75731C30062DE57014A6
:20198E00FC8C708C01E7FA3395E0FBFCFE8A638B648C658E66200566AA637B007C007E0068
:2019AE008A638B648C658E668054300721E57024FCFE8E708E0187020987030987040987EC
:2019CE00061919198A638B648C658E668030E57024FEFE8E708E01870409870619EE339545
:2019EE00E0FBFA8C638E648B658A66200510AA63AB647C007E008A638B648C658E66300502
:201A0E0022E56630E71BC3E49563FAE49564FBE49565FCE49566FE8A638B648C658E6680B0
:201A2E0002C205D209A9737E00756700857182C006C001121601D001D00620090BE567C46B
:201A4E00FCE7FB4CF7198002A7670EB209E56345644565456670D289738E05E5727003758F
:201A6E007201200224200121ED04FEAC72C3EE9C5015758220C006C005C0041215AED0048F
:201A8E00D005D0061C80E68C7230050E75822DC0051215AED00515728023ED602030030E5F
:201AAE0075822BC0051215AED0051572800F30040C758220C0051215AED0051572200122E1
:201ACE00AE728E041EC3ED9C502B3002047C3080027C208C82C006C0051215AED005D00648
:201AEE0080E0C3ED95725008E572C39DF572800775720080028E72A9738D068E051EED60AE
:201B0E0026B20920090A09E7C4540FFD8D6780078705740F5DF567856782C006C001121530
:201B2E00D1D001D00680D420010302166BAE728E051EED700302166B758220C0061215AEBE
:131B4E00D00680EB8F821215AE02166B85688285698322D8
:0B1F5E003C4E4F20464C4F41543E00CB
:1A1B6100E582C583F582A2D133A2D592D11392D5ECCFFCEBCEFBEACDFA220C
:181B7B00AA82AB83121C566003A380F8C3E5829AF582E5839BF583221E
:201B9300121CBB30D502B2D1BF0009BC0003021556021549BC0003021533E583B4FF0BE557
:201BB30082B4FF03021556021533E582B4FF03021549C395835007247F400B021533248098
:201BD300145003021549F582C3ED9AEE9BEF9C40111582C3EA33F9EB33FAEC33FBE433FC50
:201BF3008005E4CCCBCAF9C08275F019C3E99DEA9EEB9FEC9400D5F002802D400EE99DF933
:201C1300EA9EFAEB9FFBEC9400FCC3B3E833F8E58233F582E58333F583C3E933F9EA33FA92
:201C3300EB33FBEC33FC80C4B3E4F938FAE43582FBE43583FCD082500405827C80121D2CA5
:031C530002152A4D
:0D005100758177121D5FE582600302004E8D
:1C1C560020F71430F6148883A88220F507E6A88375830022E280F7E49322E0229D
:201C7200C2D5E58330E70DD2D5E4C39582F582E49583F583E51230E70BE4C39511F511E48F
:161C92009512F51212140C30D50BE4C39582F582E49583F5832281
:131CA800FCABF0AA83A982749EC2D1F582121D2C0215129A
:201CBB00AA82AB83A2F73392D1F5826002D2F7ACF0E58124F9F8E6FD08E6FE0886F008E68C
:0E1CDB00A2F73392D5F5836002D2F7AFF02264
:201CE9006040F82582500274FFF582E824F8501ECCCBCAF9E4CC24F85014CBCAF9E4CB2403
:201D0900F8500BCAF9E4CA24F8500379002224086010F8C3EC13FCEB13FBEA13FAE913F9B5
:031D2900D8F122CC
:201D2C007804EC7011E58224F8500AF582E4C9CACBFCD8EF22EC7820058220E713D58201B6
:131D4C0022C3E933F9EA33FAEB33FBEC33FCD8EA158222C4
:041D5F007582002267
:201D63007F9E121D8A30D103021533C3EF9582500974FFF5F0F583F582227900121CE98998
:071D8300828A838BF0EC2241
:121D8A00AA82AB83A2F73392D1F5826002D2F7ACF0225E
:00000001FF
