:040000000200513277
:01000B0032C2
:0100130032BA
:01001B0032B2
:0100230032AA
:01002B0032A2
:01003300329A
:01003B003292
:01004300328A
:03004B000213DBC2
:2000AA00E4F532F5337534D07535077536BE75370A7538AC75390D753AD0753B07753CBE01
:1E00CA00753D0A753EAC753F0D75404075410B7542CA75430D75445475451002004E19
:03004E000205BEEA
:2000E80075B1677E007F011EBEFF011FEE4F70F7E5B130E7FB75B288227598507589207565
:200108008DDCD28E438E10438780D29943A4012275FFDE75FFAD1200E812010143E1044382
:20012800E34022AF8210990280FB8F992210980280FB85998212012B85998222C00F858137
:200148000FE50F24FBF886820886830886F0121B7AE5828583F045F070028062E50F24FB44
:20016800FF8F0BE50F24FBF8860808860908860A90000175F0001214A290000175F0001250
:200188001B7AAE827F00C3EF9E501FEF2401F582E43400F583E0FDBD0A0DEF2401F582E419
:2001A8003400F583740DF00F80DC752801752900752A007527008E2B7582C612045AD00F73
:2001C8002275220074C025224017752D22752E00752F40752C007530017582C61204D080D7
:2001E800E375230C752823752900752A40752700752B017582C612045A22752D25752E003D
:20020800752F40752C017530027582C61204D074FFB52505758200805F7F008F068EF00547
:20022800F07C017D008006EC2CFCED33FDD5F0F7AA257B00EA5204EB5205EC4D6007743148
:200248002FF58280330E8E07BE080040D0E52630E0057582398021E52630E10575822A8011
:2002680017E52630E205758230800DE52630E30575822380037582FF22AF82E4FDFEEF7042
:200288001DC006C00574E8C0E0741BC0E07480C0E0120144158115811581D005D006C00665
:2002A800C0057408C0E0E4C0E07408C0E0E4C0E07408C0E0E4C0E07408C0E0E4C0E0740875
:2002C800C0E0E4C0E074FEC0E0741BC0E07480C0E0120144E58124F3F58190A12075F00716
:2002E800E41203F5D005D0067F00C007C006C005120202AC82D005D006D0078C03BCFF027A
:200308008003BB2A17902710E4F5F0C007C006C0051203F5D005D006D00780CEBB232AC0D2
:2003280006C005120202AC82D005D006BC2313902710E4F5F0C006C0051203F5D005D00639
:2003480080DD8D828E830203F4EBFA3395E0FCC007C006C005C004C003C002C002C0047401
:200368000EC0E0741CC0E07480C0E0120144E58124FBF581D002D003D004D005D0068D11EF
:200388008E1290000AC004C003C002121415A882A983D002D003D004D007EA28F8EC39F9C9
:2003A800E824D0FDE934FFFEC007C006C005C003120202AC82D003D005D006D007ECB503F0
:2003C8001B902710E4F5F0C007C006C005C0031203F5D003D005D006D00780CC0FC3EF6485
:2003E80080948550030202F28D828E8322AC82AD83AEF0FF780079007A007B00C3E89CE9C0
:200408009DEA9EEB9F500F08B8000909B900050ABA00E90B80E62220C7FDD2C530C3FDC2C9
:20042800C5C2C3228582C210C30280FB228582C2D2C410C30280FB2230C3FD85C282C2C3FE
:200448002230C3FDAFC2C2C3D2C410C30280FB8F8222AF82C00712041FD00774FE5FF58227
:2004680012042C85278212042C7F00AD2B7E001DBDFF011E8F037C00C3EB9DEC64808EF04E
:2004880063F08095F0501FEF2528FCE43529FDAE2A8C828D838EF0121B92F582C00712048F
:2004A8002CD0070F80C5AE2B7F001EBEFF011FEE2528FEEF3529FFAD2A8E828F838DF0127D
:2004C8001B92F58212043522AF82C00712041FD0078F0674FE5EF582C00712042C852C8267
:2004E80012043512041FD00774014FF58212042C7F00AD307E001DBDFF011E8F037C00C37D
:20050800EB9DEC64808EF063F08095F0502ED2C2EF252DFCE4352EFDAE2FC007C006C005E3
:20052800C004120440AB82D004D005D006D0078C828D838EF0EB1213FA0F80B6C2C2AE30C9
:200548007F001EBEFF011FEE252DFEEF352EFFAD2FC007C006C005120449AC82D005D00624
:20056800D0078E828F838DF0EC1213FA22753123752831752900752A40752720752B0175EA
:20058800823012045A753100752831752900752A40752721752B0175823012045A753100A5
:2005A800752831752900752A40752722752B0175823012045A2212011875822012012B123E
:2005C80013971213C71213AF1213CB1213D1E4F532F533853C46853D4785424A85434B85D7
:2005E800364E85374F85365085375114C39546F54874FF9547F54974FFC3954EF55274FFFD
:20060800954FF55374FFC39550F55474FF9551F55574FFC3954AF54C74FF954BF54D8548E7
:20062800EA8549FA854CEB854DFB8552EC8553FC8554ED8555FD1206CB1208091213708523
:200648003282853383A3751102751200121BAEE5828583F045F0700312079B12071780DCCF
:20066800221208BB853C46853D4774FFC39546F54874FF9547F5498548EA8549FA120B688C
:2006880085424A85434B74FFC3954AF54C74FF954BF54D854CEB854DFB120E2385364E85E9
:2006A800374F85365085375174FFC3954EF55274FF954FF55374FFC39550F55474FF9551D8
:2006C800F555221201C97411C0E0741CC0E07480C0E01201441581158115817582001202BD
:2006E8008185825A85835B1201C9742CC0E0741CC0E07480C0E0120144158115811581753F
:20070800820012028185825C85835D1201C9229000557464F0E4A3F0042532FEE43533FF2C
:200728004E7010120775E5828583F0900055F0E5F0A3F0900055E0FEA3E0FFC3EE9432EF0E
:2007480094005028900051E0FEA3E0FF74082EF58274073FF58375111075120E121BAEE506
:20076800828583F0900051F0E5F0A3F022752D58752E00752F40752C027530027582E012E8
:2007880004D0AF587E00AC597D00EC4EF582ED4FF58322120895E5828583F0900053F0E529
:2007A800F0A3F01201C9900053E0C0E0A3E0C0E07447C0E0741CC0E07480C0E0120144E5F1
:2007C8008124FBF581900053E0FEA3E0FF74102EFE740E3FFF900051E0FCA3E0FDEEC39CBE
:2007E800F582EF9DF58375111075120E121BAEAE82AF838E568F5785568285578312115213
:2008080022E4F532F533C3E5329401E5336480948040F31201C9744AC0E0741CC0E074806B
:20082800C0E01201441581158115811213601201C9758200120281AE82AF83C007C0061209
:2008480001C9D006D007C007C006C006C007747EC0E0741CC0E07480C0E0120144E58124C8
:20086800FBF581D006D007C007C006C006C007747EC0E0741CC0E07480C0E012159EE581B7
:2008880024FBF581D006D0078E828F8322752D62752E00752F40752C027530027582C0122C
:2008A80004D0AF627E00AC637D00EC4EF582ED4FF58322900057E4F0A3F0900059F0A3F000
:2008C800F532F5331201C9749DC0E0741CC0E07480C0E0120144158115811581C3E53294E9
:2008E80032E5336480948040F31201C9E4F532F533C3E5329401E5336480948040F31201A7
:20090800C974B0C0E0741CC0E07480C0E01201441581158115811213601201C974ECC0E004
:20092800741CC0E07480C0E01201441581158115811213607F00C007C046C0477411C0E0D5
:20094800741DC0E07480C0E012159EE58124FBF581D00774FFC39546F54874FF9547F54958
:200968008548EA8549FA900059E0FDA3E0FE4D6003020A24900057E0FDA3E0FE4D7027C0E0
:20098800071201C97417C0E0741DC0E07480C0E0120144158115811581D007EF7006853A68
:2009A80046853B477F01758201C007120281AD82AE83D007900057EDF0EEA3F0BD0112BE04
:2009C800000FE54624ECF546E54734FFF54702093E900057E0FDA3E0FEBD0211BE000E7451
:2009E800142546F546E43547F54702093E900057E0FDA3E0FEBD0305BE0002800302093EBA
:200A0800900059E02401F0A3E03400F0900057E4F0A3F085463A85473B02093E900059E0DD
:200A2800FDA3E0FEBD0105BE00028003020ADA900057E0FDA3E0FE4D7022C0071201C97409
:200A48002FC0E0741DC0E07480C0E0120144158115811581D007853C46853D47758201C042
:200A680007120281AD82AE83D007900057EDF0EEA3F0BD0112BE000FE54624ECF546E54717
:200A880034FFF54702093E900057E0FDA3E0FEBD0211BE000E74142546F546E43547F547EB
:200AA80002093E900057E0FDA3E0FEBD0305BE0002800302093E900059E02401F0A3E034BA
:200AC80000F0900057E4F0A3F085463C85473D02093E900057E0FDA3E0FE4D7022C007127A
:200AE80001C97446C0E0741DC0E07480C0E0120144158115811581D007853E46853F47758C
:200B08008201C007120281AD82AE83D007900057EDF0EEA3F0BD0112BE000FE54624ECF5A5
:200B280046E54734FFF54702093E900057E0FDA3E0FEBD0211BE000E74142546F546E4355B
:200B480047F54702093E900057E0FDA3E0FEBD0305BE0002800302093E85463E85473F22F5
:200B680090005BE4F0A3F090005DF0A3F0F532F5331201C9745DC0E0741DC0E07480C0E04A
:200B8800120144158115811581C3E5329432E5336480948040F31201C9E4F532F533C3E59A
:200BA800329401E5336480948040F31201C974B0C0E0741CC0E07480C0E0120144158115BD
:200BC8008115811213601201C974ECC0E0741CC0E07480C0E0120144158115811581121393
:200BE800607F00C007C04AC04B7411C0E0741DC0E07480C0E012159EE58124FBF581D007B1
:200C080074FFC3954AF54C74FF954BF54D854CEB854DFB90005DE0FDA3E0FE4D6003020C4F
:200C2800D390005BE0FDA3E0FE4D7027C0071201C9746FC0E0741DC0E07480C0E01201446A
:200C4800158115811581D007EF700685404A85414B7F01758201C007120281AD82AE83D06A
:200C68000790005BEDF0EEA3F0BD0112BE000FE54A24E2F54AE54B34FFF54B020BEB9000E0
:200C88005BE0FDA3E0FEBD0211BE000E741E254AF54AE4354BF54B020BEB90005BE0FDA3B0
:200CA800E0FEBD0305BE00028003020BEB90005DE02401F0A3E03400F090005BE4F0A3F073
:200CC8007F00854A40854B41020BEB90005DE0FDA3E0FEBD0105BE00028003020D909000F5
:200CE8005BE0FDA3E0FE4D7027C0071201C9742FC0E0741DC0E07480C0E0120144158115A2
:200D0800811581D007EF700685424A85434B7F01758201C007120281AD82AE83D0079000B9
:200D28005BEDF0EEA3F0BD0112BE000FE54A24E2F54AE54B34FFF54B020BEB90005BE0FD7E
:200D4800A3E0FEBD0211BE000E741E254AF54AE4354BF54B020BEB90005BE0FDA3E0FEBD8C
:200D68000305BE00028003020BEB90005DE02401F0A3E03400F090005BE4F0A3F07F008549
:200D88004A42854B43020BEB90005BE0FDA3E0FE4D7027C0071201C9748FC0E0741DC0E010
:200DA8007480C0E0120144158115811581D007EF700685444A85454B7F01758201C00712C9
:200DC8000281AD82AE83D00790005BEDF0EEA3F0BD0112BE000FE54A24E2F54AE54B34FF94
:200DE800F54B020BEB90005BE0FDA3E0FEBD0211BE000E741E254AF54AE4354BF54B020BDD
:200E0800EB90005BE0FDA3E0FEBD0305BE00028003020BEB854A44854B452290005FE4F089
:200E2800A3F0F532F5331201C974B1C0E0741DC0E07480C0E0120144158115811581C3E5A1
:200E4800329432E5336480948040F31201C9E4F532F533C3E5329401E5336480948040F38E
:200E68001201C974B0C0E0741CC0E07480C0E01201441581158115811213601201C974EC2C
:200E8800C0E0741CC0E07480C0E01201441581158115811213607F00900061E4F0A3F0C0B1
:200EA80007C04EC04F7411C0E0741DC0E07480C0E012159EE58124FBF581D00774FFC395BA
:200EC8004EF55274FF954FF55374FFC39550F55474FF9551F5558552EC8553FC8554ED85ED
:200EE80055FD900061E0FDA3E0FE4D6003020FBF90005FE0FDA3E0FE4D702DC0071201C9EF
:200F080074C4C0E0741DC0E07480C0E0120144158115811581D007EF700C85344E85354FC1
:200F28008534508535517F01758201C007120281AD82AE83D00790005FEDF0EEA3F0BD017F
:200F48001DBE001AE54E24E2F54EE54F34FFF54F741E2550F550E43551F551020EA790002A
:200F68005FE0FDA3E0FEBD021DBE001A741E254EF54EE4354FF54FE55024E2F550E551341A
:200F8800FFF551020EA790005FE0FDA3E0FEBD0305BE00028003020EA7900061E02401F05B
:200FA800A3E03400F090005FE4F0A3F07F00854E34854F35020EA7900061E0FDA3E0FEBDDA
:200FC8000105BE0002800302109990005FE0FDA3E0FE4D702DC0071201C974C4C0E0741DD2
:200FE800C0E07480C0E0120144158115811581D007EF700C85364E85374F8536508537512E
:201008007F01758201C007120281AD82AE83D00790005FEDF0EEA3F0BD011DBE001AE54E8A
:2010280024E2F54EE54F34FFF54F741E2550F550E43551F551020EA790005FE0FDA3E0FEB4
:20104800BD021DBE001A741E254EF54EE4354FF54FE55024E2F550E55134FFF551020EA7FA
:2010680090005FE0FDA3E0FEBD0305BE00028003020EA7900061E02401F0A3E03400F0903F
:20108800005FE4F0A3F07F00854E36854F37020EA7900061E0FDA3E0FEBD0205BE000280E5
:2010A8000302115190005FE0FDA3E0FE4D702BC0071201C97446C0E0741DC0E07480C0E0CA
:2010C800120144158115811581D007EF700C85384E85394F853850853951758201C00712A8
:2010E8000281AD82AE83D00790005FEDF0EEA3F0BD0112BE000FE54E24E2F54EE54F34FF61
:20110800F54F020EA790005FE0FDA3E0FEBD0211BE000E741E254EF54EE4354FF54F020EDF
:20112800A790005FE0FDA3E0FEBD0305BE00028003020EA7854E38854F39853650853751C4
:2011480085364E85374F020EA722AE82AF83C374AC9E740D9F4008EE9464EF9400500990FD
:201168000065E4F0A3F08033C374089E74079F50138E048F059000657410C39CF0740E9D81
:20118800A3F080178E118F1290FFFF121415E5828583F0900065F0E5F0A3F0900065E0FE95
:2011A800A3E0FF8E118F12855A82855B83C007C006121415AC82AD83D006D007900067E0F7
:2011C800FAA3E0FBEAC39EF511EB9FF512855C82855D83C007C006C005C004121415AA8268
:2011E800AB83D004D005D006D007ECC39AFCED9BFDEC253CF546ED353DF547E536C39CF507
:201208004EE5379DF54FEC2536F550ED3537F551900067EEF0EFA3F075111975120085321C
:2012280082853383121BAEE5828583F045F060030212BA900065E0FEA3E0FF8E118F12852F
:201248005A82855B83C007C006121415AC82AD83D006D007900067E0FAA3E0FBEAC39EF5E5
:2012680011EB9FF512855C82855D83C007C006C005C004121415AA82AB83D004D005D006D2
:20128800D007ECC39AFCED9BFDC004C005C050C051C04EC04FC046C047C006C00774DBC035
:2012A800E0741DC0E07480C0E012159EE58124F3F581C3E546953EE547953F4008853E46B7
:2012C800853F478011C3E53A9546E53B95474006853A46853B47C3E54E9538E54F9539405A
:2012E8000885384E85394F8011C3E534954EE535954F400685344E85354FC3E5509538E578
:2013080051953940088538508539518011C3E5349550E5359551400685345085355174FF23
:20132800C39546F54874FF9547F54974FFC3954EF55274FF954FF55374FFC39550F5547466
:20134800FF9551F5558548EA8549FA8552EC8553FC8554ED8555FD22120202AF82BF2A024F
:20136800800512137080F12290006374012532F0E43533A3F0900063E0FEA3E0FFC3E532FD
:201388009EE53364808FF063F08095F040EF22AFA474CD5FF5A4AFBD74DF5FF5BD43A50F30
:2013A80053A5207590202275D98175DAC275DBC275DCC275DDC275D84043E608D2AF2275D7
:2013C800E1272275CF93D2C62275D10375AA8043AB0122C0E0C0D010DF02800E75E90075CF
:1213E800F9700532E4B53202053353D8C0D0D0D0E032E1
:201BE8000A54797065206469676974733B20656E6420772F2300202020202025632563253D
:201C0800632563256300256300506C6561736520656E7465722061206B702076616C756570
:201C28003A0A2000506C6561736520656E7465722061206B642076616C75653A0A2000256A
:201C4800640043616C6962726174696F6E3A0A48656C6C6F20776F726C64210A3031325F13
:201C68003334355F3637383A0A61626320646566206768696A000D0A546865206465736944
:201C880072656420646972656374696F6E2069733A202564005275646465722043616C6942
:201CA80062726174696F6E00676F206C6566743A20707265737320310A20676F2072696752
:201CC80068743A20707265737320320A5072657373202A20666F72206E6578742073637238
:201CE80065656E000A20636F6E6669726D3A20707265737320330A207072657373202A20F1
:201D0800746F20626567696E000D0A202575004E6F772063616C6962726174696E67204DA1
:201D2800696E5F50570A004E6F772063616C6962726174696E672043656E5F5057004E6FE7
:201D4800772063616C6962726174696E67204D61785F505700416E676C652043616C696236
:201D6800726174696F6E004E6F772063616C6962726174696E67204D696E5F5057205550EB
:201D880020414E474C45004E6F772063616C6962726174696E67204D61785F505720444FE1
:201DA800574E20414E474C45005468727573742043616C6962726174696F6E004E6F772089
:201DC80063616C6962726174696E67204D696E5F5057000D0A2564092575092575092575A8
:041DE8000925640065
:041DF70000000000E8
:06008000E478FFF6D8FD54
:20005E007904E94400601B7A01901DF7786575AF00E493F2A308B8000205AFD9F4DAF275AD
:02007E00AFFFD2
:1B13FA0020F71130F6138883A88220F509F6A8837583002280FEF280F5F022F2
:1D141500E5828511F0A4C582C0F08512F0A4D0F025F0C5838511F0A42583F583227E
:20143200C00F85810FC082058105810581E50F24FBF8A90F0909E6F70809E6F70809E6F754
:20145200A80F080886820886830886F0121B92FAA3121B92FBA3121B92FF74012AFCE43BEB
:20147200FD8F06A80F080886820886830886F0EC1213FAA3ED1213FAA3EE1213FA8A828B69
:20149200838FF0A80F08E61213FA850F81D00F2285820C85830D85F00E75700C7571007567
:2014B2007240850873850974850A75850B76901432121670AE82AF83AB0CAC0DAD0E8B8254
:2014D2008C838DF0E41213FA8E828F8322C00F85810FE50F24F8FF8F76E50F24FBFF8F701E
:2014F200757100757240E50F24F8F88673088674088675901432121670AE82AF83E50F24DF
:1B151200FBF886030886040886058B828C838DF0E41213FA8E828F83D00F225E
:20152D00E511451260467A01E51125E0F511E512334012F512E5829511E583951240030A43
:20154D0080E6C3E51213F512E51113F511C3E5829511F5F0E58395124005F58385F082C3FA
:0D156D00E51213F512E51113F511DAE12274
:200086007800E84400600A790175AF00E4F309D8FC7864E84400600C7901900001E4F0A304
:0400A600D8FCD9FAAF
:20157A00C00F85810F12012BD00F2285827385837485F075E4F570F571F572851076901588
:20159A007A021670C00F85810FE50F24FBFF8F76E4F570F571F572E50F24FBF8867308868C
:0D15BA007408867590157A121670D00F22F5
:2015C700AF82C066C067C0681215D48007C064C0658F8222158115811581056EE4B56E0222
:2015E700056F22AF8274302FFF24C6500A74072FFF3000034307208F820215C7E582FFC4A8
:20160700540FF582C0071215EAD007740F5FF5820215EA858211856912856A13856B14853D
:201627006C15AA6D751620EA2AFAE515235401FF8A064EFAE5122512F512E51333F513E5BC
:201647001433F514E51533F515C3EA95114008EAC39511FA431201D516CD85126985136A04
:2016670085146B85156C8A6D22858264858365857066857167857268E4F56EF56FAD73AED8
:2016870074AF758D828E838FF0121B92FC74012DF573E43EF5748F75ECFF7003021B73BF0B
:2016A70025028003021B6BC201C202C203C204C205C206C207C2087577007578007CFFAABF
:2016C70073AB74AE758A828B838EF0121B92FFA3AA82AB838A738B748E75BF25078F8212EE
:2016E70015C780998F7A74D0257A5026E57A24C64020BCFF12E57875F00AA4FD2F24D0F591
:201707007870C2D20280BEEC75F00AA42F24D0FC80B3BF2E07BCFFAD7C0080A98F05BD6102
:2017270000400CED248540075307DFD2008002C200BF2002806DBF2B028063BF2D028059C6
:20174700BF42028063BF43028068BF4403021915BF460302192BBF48030216CCBF49030231
:201767001915BF4A030216CCBF4C028040BF4F0302191CBF50030218AABF5302805CBF5456
:20178700030216CCBF5503021921BF5803021926BF5A030216CC02192FD2010216CCD203D7
:2017A7000216CCD2040216CCD2060216CCD2070216CC30060CE57614FE8E768E01870780BB
:2017C70011E57624FEFE8E768E018705098706198D078F821215C7021938E57624FDFE8EBA
:2017E700768E01870309870509870619198B698D6A8E6B8B828D838EF0C004121B7AAD82DD
:20180700AE83D004BCFF028D0420012AC3ED95785024E578C39DF578AE788E031EEB601494
:20182700758220C006C005C0041215C7D004D005D00680E68E788C06856982856A83856BFE
:20184700F0121B92FCFF602F8E041EC374808CF063F08095F050208F82C006C0051215C713
:20186700D005D006AA69AB6AAC6B0ABA00010B8A698B6A8C6B80C1200103021938C3ED95CB
:20188700784003021938E578C39DF578AE788E041EEC7003021936758220C0061215C7D0E8
:2018A7000680EBE57624FDFC8C768C01870209870309870419198A698B6A8C6BAC6BBC8095
:2018C7000040047F438014BC600040047F50800BBC400040047F4980027F588F82C0071262
:2018E70015C775823A1215C77582301215C77582781215C7D007BF4902800BBF5002800671
:20190700856A821216038569821216038023D20575770A801C757708801775770A801275F5
:201927007710800DD20880098F821215C780028E7830085CE57624FCFE8E768E0187020970
:2019470087030987040987061919198A698B6A8C6B8E6C7569EC756A1D756B8085697B8594
:201967006A7C856B7D7401257BFAE4357CFCAE7D8A698C6A8E6B857B82857C83857DF01256
:201987001B92FEFF70030216848F821215C780CCE577700302168475791C30062DE57614F5
:2019A700FC8C768C01E7FA3395E0FBFCFE8A698B6A8C6B8E6C200566AA697B007C007E002B
:2019C7008A698B6A8C6B8E6C8054300721E57624FCFE8E768E0187020987030987040987AF
:2019E700061919198A698B6A8C6B8E6C8030E57624FEFE8E768E01870409870619EE339508
:201A0700E0FBFA8C698E6A8B6B8A6C200510AA69AB6A7C007E008A698B6A8C6B8E6C3005AC
:201A270022E56C30E71BC3E49569FAE4956AFBE4956BFCE4956CFE8A698B6A8C6B8E6C8061
:201A470002C205D209A9797E00756D00857782C006C00112161AD001D00620090BE56DC421
:201A6700FCE7FB4CF7198002A76D0EB209E569456A456B456C70D289798E05E5787003754C
:201A87007801200224200121ED04FEAC78C3EE9C5015758220C006C005C0041215C7D00451
:201AA700D005D0061C80E68C7830050E75822DC0051215C7D00515788023ED602030030E21
:201AC70075822BC0051215C7D0051578800F30040C758220C0051215C7D00515782001228A
:201AE700AE788E041EC3ED9C502B3002047C3080027C208C82C006C0051215C7D005D00610
:201B070080E0C3ED95785008E578C39DF578800775780080028E78A9798D068E051EED6070
:201B270026B20920090A09E7C4540FFD8D6D80078705740F5DF56D856D82C006C001121505
:201B4700EAD001D00680D4200103021684AE788E051EED7003021684758220C0061215C73B
:131B6700D00680EB8F821215C7021684856E82856F832281
:0B1DEC003C4E4F20464C4F41543E003F
:181B7A00AA82AB83121B926003A380F8C3E5829AF582E5839BF58322E4
:0D00510075817D121BE4E582600302004E04
:1C1B920020F71430F6148883A88220F507E6A88375830022E280F7E49322E02262
:201BAE00C2D5E58330E70DD2D5E4C39582F582E49583F583E51230E70BE4C39511F511E454
:161BCE009512F51212152D30D50BE4C39582F582E49583F5832224
:041BE40075820022E4
:00000001FF
