:040000000200513277
:01000B0032C2
:0100130032BA
:01001B0032B2
:0100230032AA
:01002B0032A2
:01003300329A
:01003B003292
:01004300328A
:03004B000212EDB1
:2000AA00E4F532F5337534D07535077536BE75370A7538AC75390D753AD0753B07753CBE01
:1E00CA00753D0A753EAC753F0D75404075410B7542CA75430D75445475451002004E19
:03004E000205BEEA
:2000E80075B1677E007F011EBEFF011FEE4F70F7E5B130E7FB75B288227598507589207565
:200108008DDCD28E438E10438780D29943A4012275FFDE75FFAD1200E812010143E1044382
:20012800E34022AF8210990280FB8F992210980280FB85998212012B85998222C00F858137
:200148000FE50F24FBF886820886830886F0121C19E5828583F045F070028062E50F24FBA4
:20016800FF8F0BE50F24FBF8860808860908860A90000175F00012141F90000175F00012D3
:200188001C19AE827F00C3EF9E501FEF2401F582E43400F583E0FDBD0A0DEF2401F582E479
:2001A8003400F583740DF00F80DC752801752900752A007527008E2B7582C612045AD00F73
:2001C8002275220074C025224017752D22752E00752F40752C007530017582C61204D080D7
:2001E800E375230C752823752900752A40752700752B017582C612045A22752D25752E003D
:20020800752F40752C017530027582C61204D074FFB52505758200805F7F008F068EF00547
:20022800F07C017D008006EC2CFCED33FDD5F0F7AA257B00EA5204EB5205EC4D6007743148
:200248002FF58280330E8E07BE080040D0E52630E0057582398021E52630E10575822A8011
:2002680017E52630E205758230800DE52630E30575822380037582FF22AF82E4FDFEEF7042
:200288001DC006C005743AC0E0741EC0E07480C0E0120144158115811581D005D006C00610
:2002A800C0057408C0E0E4C0E07408C0E0E4C0E07408C0E0E4C0E07408C0E0E4C0E0740875
:2002C800C0E0E4C0E07450C0E0741EC0E07480C0E0120144E58124F3F58190A12075F007C1
:2002E800E41203F5D005D0067F00C007C006C005120202AC82D005D006D0078C03BCFF027A
:200308008003BB2A17902710E4F5F0C007C006C0051203F5D005D006D00780CEBB232AC0D2
:2003280006C005120202AC82D005D006BC2313902710E4F5F0C006C0051203F5D005D00639
:2003480080DD8D828E830203F4EBFA3395E0FCC007C006C005C004C003C002C002C0047401
:2003680060C0E0741EC0E07480C0E0120144E58124FBF581D002D003D004D005D0068D119B
:200388008E1290000AC004C003C002121392A882A983D002D003D004D007EA28F8EC39F94D
:2003A800E824D0FDE934FFFEC007C006C005C003120202AC82D003D005D006D007ECB503F0
:2003C8001B902710E4F5F0C007C006C005C0031203F5D003D005D006D00780CC0FC3EF6485
:2003E80080948550030202F28D828E8322AC82AD83AEF0FF780079007A007B00C3E89CE9C0
:200408009DEA9EEB9F500F08B8000909B900050ABA00E90B80E62220C7FDD2C530C3FDC2C9
:20042800C5C2C3228582C210C30280FB228582C2D2C410C30280FB2230C3FD85C282C2C3FE
:200448002230C3FDAFC2C2C3D2C410C30280FB8F8222AF82C00712041FD00774FE5FF58227
:2004680012042C85278212042C7F00AD2B7E001DBDFF011E8F037C00C3EB9DEC64808EF04E
:2004880063F08095F0501FEF2528FCE43529FDAE2A8C828D838EF0121CF4F582C00712042C
:2004A8002CD0070F80C5AE2B7F001EBEFF011FEE2528FEEF3529FFAD2A8E828F838DF0127D
:2004C8001CF4F58212043522AF82C00712041FD0078F0674FE5EF582C00712042C852C8204
:2004E80012043512041FD00774014FF58212042C7F00AD307E001DBDFF011E8F037C00C37D
:20050800EB9DEC64808EF063F08095F0502ED2C2EF252DFCE4352EFDAE2FC007C006C005E3
:20052800C004120440AB82D004D005D006D0078C828D838EF0EB1213470F80B6C2C2AE307C
:200548007F001EBEFF011FEE252DFEEF352EFFAD2FC007C006C005120449AC82D005D00624
:20056800D0078E828F838DF0EC12134722753123752831752900752A40752720752B01759D
:20058800823012045A753100752831752900752A40752721752B0175823012045A753100A5
:2005A800752831752900752A40752722752B0175823012045A2212011875822012012B123E
:2005C80012AC1212D91212C41212DD1212E3E4F532F533853C46853D4785424A85434B857C
:2005E800364E85374F14C39546F54874FF9547F54974FFC3954EF55074FF954FF55174FF7A
:20060800C3954AF54C74FF954BF54D8548EA8549FA854CEB854DFB8550EC8551FC1207EFB7
:20062800853C46853D4774FFC39546F54874FF9547F5498548EA8549FA120A8485424A8512
:20064800434B74FFC3954AF54C74FF954BF54D854CEB854DFB120D1985364E85374F74FFD1
:20066800C3954EF55074FF954FF551853211853312900014121392AE82AF83C006C007749A
:2006880063C0E0741EC0E07480C0E0121623E58124FBF58112129180D2227E647F00740144
:2006A8002532FCE43533FD4C70071206DEAE82AF83C3EE9432EF9400501B74082552F582AC
:2006C80074073553F58375111075120E121D1085825285835322752D58752E00752F407561
:2006E8002C027530027582E01204D0AF587E00AC597D00EC4EF582ED4FF583221207C9856B
:20070800825485835574102554FE740E3555FFEEC39552F582EF9553F58375111075120E0F
:20072800121D10AE82AF838E568F57855682855783120FA522E4F532F533C3E5329401E51B
:20074800336480948040F31201C9746BC0E0741EC0E07480C0E012014415811581158112E7
:2007680012811201C9758200120281AE82AF83C007C0061201C9D006D007C007C006C006AB
:20078800C007749FC0E0741EC0E07480C0E0120144E58124FBF581D006D007C007C006C0C5
:2007A80006C007749FC0E0741EC0E07480C0E0121623E58124FBF581D006D0078E828F83D6
:2007C80022752D5A752E00752F40752C027530027582C01204D0AF5A7E00AC5B7D00EC4E40
:2007E800F582ED4FF58322E4FEFFFCFDF532F533C007C006C005C0041201C974BEC0E07443
:200808001EC0E07480C0E0120144158115811581D004D005D006D007C3E5329432E53364F3
:2008280080948040F3C007C006C005C0041201C9D004D005D006D007E4F532F533C3E53294
:200848009401E5336480948040F3C007C006C005C0041201C974D1C0E0741EC0E07480C0FB
:20086800E01201441581158115811212811201C9740DC0E0741FC0E07480C0E012014415A2
:200888008115811581121281D004D005D006D0077B00C007C006C005C004C003C046C04747
:2008A8007432C0E0741FC0E07480C0E0121623E58124FBF581D003D004D005D006D0077440
:2008C800FFC39546F54874FF9547F5498548EA8549FAEC4D6003020970EE4F702FC005C0B2
:2008E80004C0031201C97438C0E0741FC0E07480C0E0120144158115811581D003D004D0AA
:2009080005EB7006853A46853B477B01758201C005C004C003120281AE82AF83D003D004FF
:20092800D005BE0112BF000FE54624ECF546E54734FFF54702089ABE0211BF000E7414253B
:2009480046F546E43547F54702089ABE0305BF0002800302089A0CBC00010D7E007F0085C8
:20096800463A85473B02089ABC0105BD00028003020A05EE4F702AC005C004C0031201C930
:200988007450C0E0741FC0E07480C0E0120144158115811581D003D004D005853C46853DC6
:2009A80047758201C005C004C003120281AE82AF83D003D004D005BE0112BF000FE5462443
:2009C800ECF546E54734FFF54702089ABE0211BF000E74142546F546E43547F54702089A9D
:2009E800BE0305BF0002800302089A0CBC00010D7E007F0085463C85473D02089AEE4F700D
:200A08002AC005C004C0031201C97467C0E0741FC0E07480C0E0120144158115811581D051
:200A280003D004D005853E46853F47758201C005C004C003120281AE82AF83D003D004D03C
:200A480005BE0112BF000FE54624ECF546E54734FFF54702089ABE0211BF000E74142546A4
:200A6800F546E43547F54702089ABE0305BF0002800302089A85463E85473F22E4FEFFFC32
:200A8800FDF532F533C007C006C005C0041201C9747EC0E0741FC0E07480C0E0120144154B
:200AA8008115811581D004D005D006D007C3E5329432E5336480948040F3C007C006C005F6
:200AC800C0041201C9D004D005D006D007E4F532F533C3E5329401E5336480948040F3C073
:200AE80007C006C005C0041201C974D1C0E0741EC0E07480C0E012014415811581158112E6
:200B080012811201C9740DC0E0741FC0E07480C0E0120144158115811581121281D004D014
:200B280005D006D0077B00C007C006C005C004C003C04AC04B7432C0E0741FC0E07480C065
:200B4800E0121623E58124FBF581D003D004D005D006D00774FFC3954AF54C74FF954BF5A0
:200B68004D854CEB854DFBEC4D6003020C05EE4F702FC005C004C0031201C97490C0E074CC
:200B88001FC0E07480C0E0120144158115811581D003D004D005EB700685404A85414B7B69
:200BA80001758201C005C004C003120281AE82AF83D003D004D005BE0112BF000FE54A2483
:200BC800E2F54AE54B34FFF54B020B2FBE0211BF000E741E254AF54AE4354BF54B020B2F4F
:200BE800BE0305BF00028003020B2F0CBC00010D7E007F00854A40854B41020B2FBC0105B6
:200C0800BD00028003020C9AEE4F702AC005C004C0031201C97450C0E0741FC0E07480C098
:200C2800E0120144158115811581D003D004D00585424A85434B758201C005C004C00312BD
:200C48000281AE82AF83D003D004D005BE0112BF000FE54A24E2F54AE54B34FFF54B020B68
:200C68002FBE0211BF000E741E254AF54AE4354BF54B020B2FBE0305BF00028003020B2F39
:200C88000CBC00010D7E007F00854A42854B43020B2FEE4F702AC005C004C0031201C974A6
:200CA800B0C0E0741FC0E07480C0E0120144158115811581D003D004D00585444A85454B58
:200CC800758201C005C004C003120281AE82AF83D003D004D005BE0112BF000FE54A24E281
:200CE800F54AE54B34FFF54B020B2FBE0211BF000E741E254AF54AE4354BF54B020B2FBE52
:200D08000305BF00028003020B2F854A44854B4522E4FEFFFCFDF532F533C007C006C0057E
:200D2800C0041201C974D2C0E0741FC0E07480C0E0120144158115811581D004D005D006C6
:200D4800D007C3E5329432E5336480948040F3C007C006C005C0041201C9D004D005D00660
:200D6800D007E4F532F533C3E5329401E5336480948040F3C007C006C005C0041201C97449
:200D8800D1C0E0741EC0E07480C0E01201441581158115811212811201C9740DC0E0741FC6
:200DA800C0E07480C0E0120144158115811581121281D004D005D006D0077B00C007C006DB
:200DC800C005C004C003C04EC04F7432C0E0741FC0E07480C0E0121623E58124FBF581D07F
:200DE80003D004D005D006D00774FFC3954EF55074FF954FF5518550EC8551FCEC4D600368
:200E0800020E97EE4F702CC005C004C00374E5C0E0741FC0E07480C0E012014415811581BB
:200E28001581D003D004D005EB70068534468535477B01758201C005C004C003120281AE34
:200E480082AF83D003D004D005BE0112BF000FE54E24E2F54EE54F34FFF54F020DC4BE0201
:200E680011BF000E741E254EF54EE4354FF54F020DC4BE0305BF00028003020DC40CBC0020
:200E8800010D7E007F00854E34854F35020DC4BC0105BD00028003020F29EE4F7027C00585
:200EA800C004C0037450C0E0741FC0E07480C0E0120144158115811581D003D004D005855E
:200EC8003646853747758201C005C004C003120281AE82AF83D003D004D005BE0112BF0044
:200EE8000FE54E24E2F54EE54F34FFF54F020DC4BE0211BF000E741E254EF54EE4354FF59E
:200F08004F020DC4BE0305BF00028003020DC40CBC00010D7E007F00854636854737020DE4
:200F2800C4EE4F7027C005C004C0037467C0E0741FC0E07480C0E01201441581158115816A
:200F4800D003D004D00585384E85394F758201C005C004C003120281AE82AF83D003D00413
:200F6800D005BE0112BF000FE54E24E2F54EE54F34FFF54F020DC4BE0211BF000E741E25A6
:200F88004EF54EE4354FF54F020DC4BE0305BF00028003020DC4854E38854F392285825CBF
:200FA80085835DC3E55C9408E55D94074003021103855C82855D83121599AA82AB83ACF070
:200FC800FD7466C0E0C0E07486C0E07440C0E08A828B838CF0ED121C31AA82AB83ACF0FD2F
:200FE800E58124FCF581853C82853D83C005C004C003C002121599A882A983AEF0FFD002D2
:20100800D003D004D005C002C003C004C005888289838EF0EF12130CAC82AD83AEF0FFE5AA
:201028008124FCF581854682854783C007C006C005C004121599A882A983AAF0FBD004D090
:2010480005D006D007C004C005C006C007888289838AF0EB121317AF82E58124FCF581EFED
:2010680060030210F4855C82855D83121599AC82AD83AEF0FF7466C0E0C0E07486C0E07454
:2010880040C0E08C828D838EF0EF121C31AC82AD83AEF0FFE58124FCF581853C82853D83FF
:2010A800C007C006C005C004121599A882A983AAF0FBD004D005D006D007C004C005C006C2
:2010C800C007888289838AF0EB12130CAC82AD83AEF0FFE58124FCF5818C828D838EF0EF13
:2010E8001215A585824685834702126DE54624F6F546E54734FFF54702126DE55C455D6020
:201108000A7410B55C0E740EB55D09853C46853D4702126D7410C3955CF582740E955DF5D4
:2011280083121599AC82AD83AEF0FF7433C0E0C0E074F3C0E0C4C0E08C828D838EF0EF127A
:201148001C31AC82AD83AEF0FFE58124FCF581853C82853D83C007C006C005C004121599E5
:20116800A882A983AAF0FBD004D005D006D007C004C005C006C007888289838AF0EB12146F
:20118800F7AC82AD83AEF0FFE58124FCF581854682854783C007C006C005C004121599A83F
:2011A80082A983AAF0FBD004D005D006D007C004C005C006C007888289838AF0EB12136276
:2011C800AF82E58124FCF581EF60030212627410C3955CF582740E955DF583121599AC8289
:2011E800AD83AEF0FF7433C0E0C0E074F3C0E0C4C0E08C828D838EF0EF121C31AC82AD8380
:20120800AEF0FFE58124FCF581853C82853D83C007C006C005C004121599A882A983AAF0DF
:20122800FBD004D005D006D007C004C005C006C007888289838AF0EB1214F7AC82AD83AE9B
:20124800F0FFE58124FCF5818C828D838EF0EF1215A5858246858347800B740A2546F546F9
:20126800E43547F54774FFC39546F54874FF9547F5498548EA8549FA22120202AF82BF2A1E
:2012880002800512129180F12274012532FEE43533FFC3E5329EE53364808FF063F0809507
:2012A800F040EF22AFA474CD5FF5A4AFBD74DF5FF5BD43A50F53A5207590202275D98175EF
:2012C800DAC275DBC275DCC275D84043E608D2AF2275E1272275CF93D2C62275D10375AA4C
:2012E8008043AB0122C0E0C0D010DF02800E75E90075F9700532E4B53202053353D8C0D073
:04130800D0D0E0322F
:201E3A000A54797065206469676974733B20656E6420772F230020202020202563256325E8
:201E5A006325632563002563000D0A2575206D730043616C6962726174696F6E3A0A486563
:201E7A006C6C6F20776F726C64210A3031325F3334355F3637383A0A616263206465662023
:201E9A006768696A000D0A546865206465736972656420646972656374696F6E2069733A37
:201EBA00202564005275646465722043616C6962726174696F6E00676F206C6566743A2076
:201EDA00707265737320310A20676F2072696768743A20707265737320320A50726573733C
:201EFA00202A20666F72206E6578742073637265656E000A20636F6E6669726D3A20707244
:201F1A0065737320330A207072657373202A20746F20626567696E000D0A202575004E6FB2
:201F3A00772063616C6962726174696E67204D696E5F50570A004E6F772063616C6962725B
:201F5A006174696E672043656E5F5057004E6F772063616C6962726174696E67204D6178FE
:201F7A005F505700416E676C652043616C6962726174696F6E004E6F772063616C69627211
:201F9A006174696E67204D696E5F505720555020414E474C45004E6F772063616C696272BD
:201FBA006174696E67204D61785F505720444F574E20414E474C45005468727573742043DC
:201FDA00616C6962726174696F6E004E6F772063616C6962726174696E67204D696E5F50FB
:021FFA0057008E
:0B130C00A8811818C6B2E7C60214F74B
:06008000E478FFF6D8FD54
:20005E007900E94400601B7A00902007785175AF00E493F2A308B8000205AFD9F4DAF275B3
:02007E00AFFFD2
:20131700FFA881181812156ED2D133E6400730E70B7582012220E70675820022C2D11215AA
:1013370050E97003F5822230D101B3E433F58222FC
:1B13470020F71130F6138883A88220F509F6A8837583002280FEF280F5F022A5
:20136200FFA881181812156ED2D133E6400730E70B7582002220E70675820122C2D112155F
:1013820050E97003F5822220D101B3E433F58222C1
:1D139200E5828511F0A4C582C0F08512F0A4D0F025F0C5838511F0A42583F5832202
:2013AF00C00F85810FC082058105810581E50F24FBF8A90F0909E6F70809E6F70809E6F7D8
:2013CF00A80F080886820886830886F0121CF4FAA3121CF4FBA3121CF4FF74012AFCE43B46
:2013EF00FD8F06A80F080886820886830886F0EC121347A3ED121347A3EE1213478A828B06
:20140F00838FF0A80F08E6121347850F81D00F2285820C85830D85F00E756A0C756B0075A9
:20142F006C4085086D85096E850A6F850B709013AF1216F5AE82AF83AB0CAC0DAD0E8B82F4
:20144F008C838DF0E41213478E828F8322C00F85810FE50F24F8FF8F70E50F24FBFF8F6A60
:20146F00756B00756C40E50F24F8F8866D08866E08866F9013AF1216F5AE82AF83E50F247F
:1B148F00FBF886030886040886058B828C838DF0E41213478E828F83D00F2295
:2014AA00E511451260467A01E51125E0F511E512334012F512E5829511E583951240030AC7
:2014CA0080E6C3E51213F512E51113F511C3E5829511F5F0E58395124005F58385F082C37E
:0D14EA00E51213F512E51113F511DAE122F8
:200086007800E84400600A790175AF00E4F309D8FC7850E84400600C7901900001E4F0A318
:0400A600D8FCD9FAAF
:2014F700121D597900E583B58202800D5003121BFFE583C39582121D87E5D0C465D020E180
:2015170017EA2DFAEB3EFBEC3FFC50097401121D87EC4480FC0215B0C3EA9DFAEB9EFBEC96
:191537009FFC500FC3E499F9E49AFAE49BFBE49CFCB2D1121DCA0215B0B7
:201550007901AA82E68F82B5821318E6B5F00E18E6B5830918E68A82B58202790022B48092
:201570000FE5F0700AE5837006E58270027F00EFB6801518B6001018B6000B18B6000608FA
:0915900008087600220808082270
:0C159900E4AC83AB82FAF9748E021D4FA3
:0B15A5007F8E121E03F58385F082226A
:2015B000B98003EA13B34010EA2401FAE43BFBE43CFC50047C800582BC000EBB000BBA007F
:2015D00008E4F5F0F583F58222A2D1E582138CF092F78B838A8222E4F583F58275F080F43F
:0F15F000A2D11322E4F583F58275F0C0747F2237
:2015FF00C00F85810F12012BD00F2285826D85836E85F06FE4F56AF56BF56C85107090152D
:20161F00FF0216F5C00F85810FE50F24FBFF8F70E4F56AF56BF56CE50F24FBF8866D08861A
:0D163F006E08866F9015FF1216F5D00F2271
:20164C00AF82C060C061C0621216598007C05EC05F8F82221581158115810568E4B5680240
:20166C00056922AF8274302FFF24C6500A74072FFF3000034307208F8202164CE582FFC4A2
:20168C00540FF582C00712166FD007740F5FF58202166F85821185631285641385651485BE
:2016AC006615AA67751620EA2AFAE515235401FF8A064EFAE5122512F512E51333F513E543
:2016CC001433F514E51533F515C3EA95114008EAC39511FA431201D516CD8512638513648B
:2016EC008514658515668A672285825E85835F856A60856B61856C62E4F568F569AD6DAEA7
:20170C006EAF6F8D828E838FF0121CF4FC74012DF56DE43EF56E8F6FECFF7003021BF8BFBB
:20172C0025028003021BF0C201C202C203C204C205C206C207C2087571007572007CFFAAC0
:20174C006DAB6EAE6F8A828B838EF0121CF4FFA3AA82AB838A6D8B6E8E6FBF25078F821229
:20176C00164C80998F7474D025745026E57424C64020BCFF12E57275F00AA4FD2F24D0F59D
:20178C007270C2D20280BEEC75F00AA42F24D0FC80B3BF2E07BCFFAD7C0080A98F05BD6183
:2017AC0000400CED248540075307DFD2008002C200BF2002806DBF2B028063BF2D02805941
:2017CC00BF42028063BF43028068BF440302199ABF46030219B0BF4803021751BF4903021C
:2017EC00199ABF4A03021751BF4C028040BF4F030219A1BF500302192FBF5302805CBF54BB
:20180C0003021751BF55030219A6BF58030219ABBF5A030217510219B4D201021751D20330
:20182C00021751D204021751D206021751D20702175130060CE57014FE8E708E0187078029
:20184C0011E57024FEFE8E708E018705098706198D078F8212164C0219BDE57024FDFE8E3B
:20186C00708E01870309870509870619198B638D648E658B828D838EF0C004121C19AD82CF
:20188C00AE83D004BCFF028D0420012AC3ED95725024E572C39DF572AE728E031EEB601427
:2018AC00758220C006C005C00412164CD004D005D00680E68E728C0685638285648385650B
:2018CC00F0121CF4FCFF602F8E041EC374808CF063F08095F050208F82C006C00512164CA5
:2018EC00D005D006AA63AB64AC650ABA00010B8A638B648C6580C12001030219BDC3ED95E5
:20190C007240030219BDE572C39DF572AE728E041EEC70030219BB758220C00612164CD0EA
:20192C000680EBE57024FDFC8C708C01870209870309870419198A638B648C65AC65BC8033
:20194C000040047F438014BC600040047F50800BBC400040047F4980027F588F82C00712DC
:20196C00164C75823A12164C75823012164C75827812164CD007BF4902800BBF50028006D3
:20198C008564821216888563821216888023D20575710A801C757108801775710A80127584
:2019AC007110800DD20880098F8212164C80028E7230085CE57024FCFE8E708E018702097D
:2019CC0087030987040987061919198A638B648C658E667563FC75641F7565808563758533
:2019EC00647685657774012575FAE43576FCAE778A638C648E658575828576838577F0121F
:201A0C001CF4FEFF70030217098F8212164C80CCE571700302170975731C30062DE570148C
:201A2C00FC8C708C01E7FA3395E0FBFCFE8A638B648C658E66200566AA637B007C007E00C9
:201A4C008A638B648C658E668054300721E57024FCFE8E708E01870209870309870409874D
:201A6C00061919198A638B648C658E668030E57024FEFE8E708E01870409870619EE3395A6
:201A8C00E0FBFA8C638E648B658A66200510AA63AB647C007E008A638B648C658E66300563
:201AAC0022E56630E71BC3E49563FAE49564FBE49565FCE49566FE8A638B648C658E668012
:201ACC0002C205D209A9737E00756700857182C006C00112169FD001D00620090BE567C42F
:201AEC00FCE7FB4CF7198002A7670EB209E56345644565456670D289738E05E572700375F1
:201B0C007201200224200121ED04FEAC72C3EE9C5015758220C006C005C00412164CD00451
:201B2C00D005D0061C80E68C7230050E75822DC00512164CD00515728023ED602030030E21
:201B4C0075822BC00512164CD0051572800F30040C758220C00512164CD005157220012204
:201B6C00AE728E041EC3ED9C502B3002047C3080027C208C82C006C00512164CD005D0060A
:201B8C0080E0C3ED95725008E572C39DF572800775720080028E72A9738D068E051EED600F
:201BAC0026B20920090A09E7C4540FFD8D6780078705740F5DF567856782C006C001121691
:201BCC006FD001D00680D4200103021709AE728E051EED7003021709758220C00612164CA5
:131BEC00D00680EB8F8212164C02170985688285698322FC
:0B1FFC003C4E4F20464C4F41543E002D
:1A1BFF00E582C583F582A2D133A2D592D11392D5ECCFFCEBCEFBEACDFA226E
:181C1900AA82AB83121CF46003A380F8C3E5829AF582E5839BF58322E1
:201C3100121D5930D502B2D1BF0009BC00030215F40215E7BC00030215D1E583B4FF0BE53F
:201C510082B4FF030215F40215D1E582B4FF030215E7C395835007247F400B0215D1248081
:201C71001450030215E7F582C3ED9AEE9BEF9C40111582C3EA33F9EB33FAEC33FBE433FC13
:201C91008005E4CCCBCAF9C08275F019C3E99DEA9EEB9FEC9400D5F002802D400EE99DF994
:201CB100EA9EFAEB9FFBEC9400FCC3B3E833F8E58233F582E58333F583C3E933F9EA33FAF4
:201CD100EB33FBEC33FC80C4B3E4F938FAE43582FBE43583FCD082500405827C80121DCA69
:031CF1000215C811
:0D005100758177121DFDE582600302004EEF
:1C1CF40020F71430F6148883A88220F507E6A88375830022E280F7E49322E022FF
:201D1000C2D5E58330E70DD2D5E4C39582F582E49583F583E51230E70BE4C39511F511E4F0
:161D30009512F5121214AA30D50BE4C39582F582E49583F5832244
:131D4600FCABF0AA83A982749EC2D1F582121DCA0215B0BF
:201D5900AA82AB83A2F73392D1F5826002D2F7ACF0E58124F9F8E6FD08E6FE0886F008E6ED
:0E1D7900A2F73392D5F5836002D2F7AFF022C5
:201D87006040F82582500274FFF582E824F8501ECCCBCAF9E4CC24F85014CBCAF9E4CB2464
:201DA700F8500BCAF9E4CA24F8500379002224086010F8C3EC13FCEB13FBEA13FAE913F917
:031DC700D8F1222E
:201DCA007804EC7011E58224F8500AF582E4C9CACBFCD8EF22EC7820058220E713D5820118
:131DEA0022C3E933F9EA33FAEB33FBEC33FCD8EA15822226
:041DFD0075820022C9
:201E01007F9E121E2830D1030215D1C3EF9582500974FFF5F0F583F582227900121D87891D
:071E2100828A838BF0EC22A2
:121E2800AA82AB83A2F73392D1F5826002D2F7ACF022BF
:00000001FF
