:040000000200513277
:01000B0032C2
:0100130032BA
:01001B0032B2
:0100230032AA
:01002B0032A2
:01003300329A
:01003B003292
:01004300328A
:03004B0002065159
:0C00AA00E4F532F533F534F53502004E74
:03004E0002058C1C
:2000B60075B1677E007F011EBEFF011FEE4F70F7E5B130E7FB75B288227598507589207597
:2000D6008DDCD28E438E10438780D29943A4012275FFDE75FFAD1200B61200CF43E104431A
:2000F600E34022AF8210990280FB8F992210980280FB8599821200F985998222C00F85819D
:200116000FE50F24FBF886820886830886F0120E1AE5828583F045F070028062E50F24FBE3
:20013600FF8F0BE50F24FBF8860808860908860A90000175F00012078F90000175F00012A2
:200156000E1AAE827F00C3EF9E501FEF2401F582E43400F583E0FDBD0A0DEF2401F582E4B8
:200176003400F583740DF00F80DC752801752900752A007527008E2B7582C6120428D00FD7
:200196002275220074C025224017752D22752E00752F40752C007530017582C612049E803B
:2001B600E375230C752823752900752A40752700752B017582C612042822752D25752E00A1
:2001D600752F40752C017530027582C612049E74FFB52505758200805F7F008F068EF005AC
:2001F600F07C017D008006EC2CFCED33FDD5F0F7AA257B00EA5204EB5205EC4D600774317B
:200216002FF58280330E8E07BE080040D0E52630E0057582398021E52630E10575822A8043
:2002360017E52630E205758230800DE52630E30575822380037582FF22AF82E4FDFEEF7074
:200256001DC006C0057452C0E0740EC0E07480C0E0120112158115811581D005D006C0066C
:20027600C0057408C0E0E4C0E07408C0E0E4C0E07408C0E0E4C0E07408C0E0E4C0E07408A7
:20029600C0E0E4C0E07468C0E0740EC0E07480C0E0120112E58124F3F58190A12075F0071D
:2002B600E41203C3D005D0067F00C007C006C0051201D0AC82D005D006D0078C03BCFF0211
:2002D6008003BB2A17902710E4F5F0C007C006C0051203C3D005D006D00780CEBB232AC037
:2002F60006C0051201D0AC82D005D006BC2313902710E4F5F0C006C0051203C3D005D006D1
:2003160080DD8D828E830203C2EBFA3395E0FCC007C006C005C004C003C002C002C0047465
:2003360078C0E0740EC0E07480C0E0120112E58124FBF581D002D003D004D005D0068D11F7
:200356008E1290000AC004C003C002120702A882A983D002D003D004D007EA28F8EC39F91B
:20037600E824D0FDE934FFFEC007C006C005C0031201D0AC82D003D005D006D007ECB50355
:200396001B902710E4F5F0C007C006C005C0031203C3D003D005D006D00780CC0FC3EF64E9
:2003B60080948550030202C08D828E8322AC82AD83AEF0FF780079007A007B00C3E89CE924
:2003D6009DEA9EEB9F500F08B8000909B900050ABA00E90B80E62220C7FDD2C530C3FDC2FC
:2003F600C5C2C3228582C210C30280FB228582C2D2C410C30280FB2230C3FD85C282C2C331
:200416002230C3FDAFC2C2C3D2C410C30280FB8F8222AF82C0071203EDD00774FE5FF5828C
:200436001203FA8527821203FA7F00AD2B7E001DBDFF011E8F037C00C3EB9DEC64808EF0E6
:2004560063F08095F0501FEF2528FCE43529FDAE2A8C828D838EF0120E32F582C00712032F
:20047600FAD0070F80C5AE2B7F001EBEFF011FEE2528FEEF3529FFAD2A8E828F838DF012E1
:200496000E32F58212040322AF82C0071203EDD0078F0674FE5EF582C0071203FA852C829E
:2004B6001204031203EDD00774014FF5821203FA7F00AD307E001DBDFF011E8F037C00C347
:2004D600EB9DEC64808EF063F08095F0502ED2C2EF252DFCE4352EFDAE2FC007C006C00516
:2004F600C00412040EAB82D004D005D006D0078C828D838EF0EB1206E70F80B6C2C2AE304E
:200516007F001EBEFF011FEE252DFEEF352EFFAD2FC007C006C005120417AC82D005D00688
:20053600D0078E828F838DF0EC1206E722753123752831752900752A40752720752B01753C
:200556008230120428753100752831752900752A40752721752B017582301204287531003B
:20057600752831752900752A40752722752B01758230120428221200E67582201200F91208
:20059600060712063812064212063C747BC0E0740EC0E07480C0E012083E158115811581DB
:2005B6007532CD75330A75EA3275FAF5E4F534F535C3E5349432E535940040F5E4F534F54C
:2005D60035C3E5349402E535940040F5120612858237858338C037C03874A2C0E0740EC0EC
:2005F600E07480C0E012083EE58124FBF58180CC2275A50FAFA474CD5FF5A422752D397589
:200616002E00752F40752C027530027582C012049EAF397E00AC3A7D00EC4EF582ED4FF552
:20063600832275E1272275CF93D2C62275D98175DAC275D84043E608D2AF22C0E0C0D0104E
:20065600DF02800E75E90075F9700534E4B53402053553D8C0D0D0D0E0327472B53621C375
:2006760074D995327408953340087532D97533088031E53224F6F532E53334FFF533802375
:20069600746CB5361EC374CB9532740C953350087532CB75330C800B740A2532F532E4352C
:2006B60033F533C032C03374A7C0E0740EC0E07480C0E012083EE58124FBF581AF3274FFCC
:1106D600C39FF5EA74FFC3953274FF9533FF8FFA22F0
:200E52000A54797065206469676974733B20656E6420772F230020202020202563256325E0
:200E7200632563256300256300456D62656464656420436F6E74726F6C20537465657269CE
:200E92006E672043616C6962726174696F6E0A000D0A2564000D0A5354525F50573A2025A4
:020EB2007500C9
:06008000E478FFF6D8FD54
:20005E007900E94400601B7A00900EBF785175AF00E493F2A308B8000205AFD9F4DAF2750D
:02007E00AFFFD2
:1B06E70020F71130F6138883A88220F509F6A8837583002280FEF280F5F02212
:1D070200E5828511F0A4C582C0F08512F0A4D0F025F0C5838511F0A42583F583229E
:20071F00C00F85810FC082058105810581E50F24FBF8A90F0909E6F70809E6F70809E6F774
:20073F00A80F080886820886830886F0120E32FAA3120E32FBA3120E32FF74012AFCE43B52
:20075F00FD8F06A80F080886820886830886F0EC1206E7A3ED1206E7A3EE1206E78A828BE9
:20077F00838FF0A80F08E61206E7850F81D00F2285820C85830D85F00E75470C75480075F9
:20079F00494085084A85094B850A4C850B4D90071F120910AE82AF83AB0CAC0DAD0E8B82CE
:2007BF008C838DF0E41206E78E828F8322C00F85810FE50F24F8FF8F4DE50F24FBFF8F47B0
:2007DF00754800754940E50F24F8F8864A08864B08864C90071F120910AE82AF83E50F2459
:1B07FF00FBF886030886040886058B828C838DF0E41206E78E828F83D00F229F
:200086007800E84400600A790175AF00E4F309D8FC7850E84400600C7901900001E4F0A318
:0400A600D8FCD9FAAF
:20081A00C00F85810F1200F9D00F2285824A85834B85F04CE4F547F548F54985104D900854
:20083A001A020910C00F85810FE50F24FBFF8F4DE4F547F548F549E50F24FBF8864A088693
:0D085A004B08864C90081A120910D00F228E
:20086700AF82C03DC03EC03F1208748007C03BC03C8F82221581158115810545E4B545021B
:20088700054622AF8274302FFF24C6500A74072FFF3000034307208F82020867E582FFC4AB
:2008A700540FF582C00712088AD007740F5FF58202088A8582118540128541138542148500
:2008C7004315AA44751620EA2AFAE515235401FF8A064EFAE5122512F512E51333F513E57C
:2008E7001433F514E51533F515C3EA95114008EAC39511FA431201D516CD851240851341C4
:200907008514428515438A442285823B85833C85473D85483E85493FE4F545F546AD4AAE83
:200927004BAF4C8D828E838FF0120E32FC74012DF54AE43EF54B8F4CECFF7003020E13BF1F
:2009470025028003020E0BC201C202C203C204C205C206C207C208754E00754F007CFFAAEB
:200967004AAB4BAE4C8A828B838EF0120E32FFA3AA82AB838A4A8B4B8E4CBF25078F8212BE
:20098700086780998F5174D025515026E55124C64020BCFF12E54F75F00AA4FD2F24D0F50F
:2009A7004F70C2D20280BEEC75F00AA42F24D0FC80B3BF2E07BCFFAD7C0080A98F05BD6199
:2009C70000400CED248540075307DFD2008002C200BF2002806DBF2B028063BF2D02805934
:2009E700BF42028063BF43028068BF4403020BB5BF4603020BCBBF480302096CBF490302E8
:200A07000BB5BF4A0302096CBF4C028040BF4F03020BBCBF5003020B4ABF5302805CBF5479
:200A27000302096CBF5503020BC1BF5803020BC6BF5A0302096C020BCFD20102096CD203D5
:200A470002096CD20402096CD20602096CD20702096C30060CE54D14FE8E4D8E018707802E
:200A670011E54D24FEFE8E4D8E018705098706198D078F82120867020BD8E54D24FDFE8E7D
:200A87004D8E01870309870509870619198B408D418E428B828D838EF0C004120E1AAD825B
:200AA700AE83D004BCFF028D0420012AC3ED954F5024E54FC39DF54FAE4F8E031EEB6014A6
:200AC700758220C006C005C004120867D004D005D00680E68E4F8C0685408285418385427D
:200AE700F0120E32FCFF602F8E041EC374808CF063F08095F050208F82C006C0051208675B
:200B0700D005D006AA40AB41AC420ABA00010B8A408B418C4280C1200103020BD8C3ED959C
:200B27004F4003020BD8E54FC39DF54FAE4F8E041EEC7003020BD6758220C006120867D042
:200B47000680EBE54D24FDFC8C4D8C01870209870309870419198A408B418C42AC42BC80F8
:200B67000040047F438014BC600040047F50800BBC400040047F4980027F588F82C00712CF
:200B8700086775823A120867758230120867758278120867D007BF4902800BBF5002800692
:200BA7008541821208A38540821208A38023D205754E0A801C754E088017754E0A8012750C
:200BC7004E10800DD20880098F8212086780028E4F30085CE54D24FCFE8E4D8E01870209EF
:200BE70087030987040987061919198A408B418C428E437540B475410E75428085405285BA
:200C0700415385425474012552FAE43553FCAE548A408C418E428552828553838554F012D8
:200C27000E32FEFF70030209248F8212086780CCE54E700302092475501C30062DE54D1491
:200C4700FC8C4D8C01E7FA3395E0FBFCFE8A408B418C428E43200566AA407B007C007E008E
:200C67008A408B418C428E438054300721E54D24FCFE8E4D8E018702098703098704098712
:200C8700061919198A408B418C428E438030E54D24FEFE8E4D8E01870409870619EE33956B
:200CA700E0FBFA8C408E418B428A43200510AA40AB417C007E008A408B418C428E433005B4
:200CC70022E54330E71BC3E49540FAE49541FBE49542FCE49543FE8A408B418C428E438040
:200CE70002C205D209A9507E00754400854E82C006C0011208BAD001D00620090BE544C4A1
:200D0700FCE7FB4CF7198002A7440EB209E54045414542454370D289508E05E54F700375D8
:200D27004F01200224200121ED04FEAC4FC3EE9C5015758220C006C005C004120867D0047D
:200D4700D005D0061C80E68C4F30050E75822DC005120867D005154F8023ED602030030E4D
:200D670075822BC005120867D005154F800F30040C758220C005120867D005154F20012223
:200D8700AE4F8E041EC3ED9C502B3002047C3080027C208C82C006C005120867D005D00613
:200DA70080E0C3ED954F5008E54FC39DF54F8007754F0080028E4FA9508D068E051EED60D4
:200DC70026B20920090A09E7C4540FFD8D4480078705740F5DF544854482C006C0011208FB
:200DE7008AD001D00680D4200103020924AE4F8E051EED7003020924758220C00612086779
:130E0700D00680EB8F82120867020924854582854683221A
:0B0EB4003C4E4F20464C4F41543E0086
:180E1A00AA82AB83120E326003A380F8C3E5829AF582E5839BF58322BE
:0D005100758154120E4EE582600302004ED0
:1C0E320020F71430F6148883A88220F507E6A88375830022E280F7E49322E022CF
:040E4E007582002287
:00000001FF
